{
	"contracts/USDTF.sol": {
		"USDTF": {
			"abi": [
				{
					"constant": true,
					"inputs": [],
					"name": "name",
					"outputs": [
						{
							"name": "",
							"type": "string"
						}
					],
					"payable": false,
					"stateMutability": "view",
					"type": "function"
				},
				{
					"constant": false,
					"inputs": [
						{
							"name": "spender",
							"type": "address"
						},
						{
							"name": "amount",
							"type": "uint256"
						}
					],
					"name": "approve",
					"outputs": [
						{
							"name": "",
							"type": "bool"
						}
					],
					"payable": false,
					"stateMutability": "nonpayable",
					"type": "function"
				},
				{
					"constant": true,
					"inputs": [],
					"name": "totalSupply",
					"outputs": [
						{
							"name": "",
							"type": "uint256"
						}
					],
					"payable": false,
					"stateMutability": "view",
					"type": "function"
				},
				{
					"constant": false,
					"inputs": [
						{
							"name": "from",
							"type": "address"
						},
						{
							"name": "to",
							"type": "address"
						},
						{
							"name": "amount",
							"type": "uint256"
						}
					],
					"name": "transferFrom",
					"outputs": [
						{
							"name": "",
							"type": "bool"
						}
					],
					"payable": false,
					"stateMutability": "nonpayable",
					"type": "function"
				},
				{
					"constant": true,
					"inputs": [],
					"name": "decimals",
					"outputs": [
						{
							"name": "",
							"type": "uint8"
						}
					],
					"payable": false,
					"stateMutability": "view",
					"type": "function"
				},
				{
					"constant": true,
					"inputs": [
						{
							"name": "account",
							"type": "address"
						}
					],
					"name": "getSpendableBalance",
					"outputs": [
						{
							"name": "spendable",
							"type": "uint256"
						}
					],
					"payable": false,
					"stateMutability": "view",
					"type": "function"
				},
				{
					"constant": true,
					"inputs": [],
					"name": "logoURI",
					"outputs": [
						{
							"name": "",
							"type": "string"
						}
					],
					"payable": false,
					"stateMutability": "view",
					"type": "function"
				},
				{
					"constant": true,
					"inputs": [
						{
							"name": "account",
							"type": "address"
						}
					],
					"name": "balanceOf",
					"outputs": [
						{
							"name": "",
							"type": "uint256"
						}
					],
					"payable": false,
					"stateMutability": "view",
					"type": "function"
				},
				{
					"constant": false,
					"inputs": [
						{
							"name": "account",
							"type": "address"
						},
						{
							"name": "lotIndex",
							"type": "uint256"
						},
						{
							"name": "minutesFromNow",
							"type": "uint256"
						}
					],
					"name": "updateTokenLotExpiryInMinutes",
					"outputs": [],
					"payable": false,
					"stateMutability": "nonpayable",
					"type": "function"
				},
				{
					"constant": true,
					"inputs": [],
					"name": "owner",
					"outputs": [
						{
							"name": "",
							"type": "address"
						}
					],
					"payable": false,
					"stateMutability": "view",
					"type": "function"
				},
				{
					"constant": true,
					"inputs": [
						{
							"name": "",
							"type": "address"
						},
						{
							"name": "",
							"type": "uint256"
						}
					],
					"name": "holdings",
					"outputs": [
						{
							"name": "amount",
							"type": "uint256"
						},
						{
							"name": "expiry",
							"type": "uint256"
						}
					],
					"payable": false,
					"stateMutability": "view",
					"type": "function"
				},
				{
					"constant": true,
					"inputs": [],
					"name": "symbol",
					"outputs": [
						{
							"name": "",
							"type": "string"
						}
					],
					"payable": false,
					"stateMutability": "view",
					"type": "function"
				},
				{
					"constant": true,
					"inputs": [
						{
							"name": "account",
							"type": "address"
						}
					],
					"name": "getAllTokenLots",
					"outputs": [
						{
							"name": "indexes",
							"type": "uint256[]"
						},
						{
							"name": "amounts",
							"type": "uint256[]"
						},
						{
							"name": "expiries",
							"type": "uint256[]"
						},
						{
							"name": "isActive",
							"type": "bool[]"
						}
					],
					"payable": false,
					"stateMutability": "view",
					"type": "function"
				},
				{
					"constant": false,
					"inputs": [
						{
							"name": "to",
							"type": "address"
						},
						{
							"name": "amount",
							"type": "uint256"
						}
					],
					"name": "transfer",
					"outputs": [
						{
							"name": "",
							"type": "bool"
						}
					],
					"payable": false,
					"stateMutability": "nonpayable",
					"type": "function"
				},
				{
					"constant": false,
					"inputs": [
						{
							"name": "account",
							"type": "address"
						}
					],
					"name": "burnExpired",
					"outputs": [
						{
							"name": "burned",
							"type": "uint256"
						}
					],
					"payable": false,
					"stateMutability": "nonpayable",
					"type": "function"
				},
				{
					"constant": true,
					"inputs": [
						{
							"name": "account",
							"type": "address"
						}
					],
					"name": "getExpiredTokenLots",
					"outputs": [
						{
							"name": "",
							"type": "uint256[]"
						},
						{
							"name": "",
							"type": "uint256[]"
						}
					],
					"payable": false,
					"stateMutability": "view",
					"type": "function"
				},
				{
					"constant": false,
					"inputs": [
						{
							"name": "to",
							"type": "address"
						},
						{
							"name": "amount",
							"type": "uint256"
						},
						{
							"name": "expiryMinutes",
							"type": "uint256"
						}
					],
					"name": "flashMint",
					"outputs": [],
					"payable": false,
					"stateMutability": "nonpayable",
					"type": "function"
				},
				{
					"constant": true,
					"inputs": [
						{
							"name": "account",
							"type": "address"
						}
					],
					"name": "getActiveTokenLots",
					"outputs": [
						{
							"name": "",
							"type": "uint256[]"
						},
						{
							"name": "",
							"type": "uint256[]"
						}
					],
					"payable": false,
					"stateMutability": "view",
					"type": "function"
				},
				{
					"constant": true,
					"inputs": [
						{
							"name": "",
							"type": "address"
						},
						{
							"name": "",
							"type": "address"
						}
					],
					"name": "allowance",
					"outputs": [
						{
							"name": "",
							"type": "uint256"
						}
					],
					"payable": false,
					"stateMutability": "view",
					"type": "function"
				},
				{
					"inputs": [],
					"payable": false,
					"stateMutability": "nonpayable",
					"type": "constructor"
				},
				{
					"anonymous": false,
					"inputs": [
						{
							"indexed": true,
							"name": "from",
							"type": "address"
						},
						{
							"indexed": true,
							"name": "to",
							"type": "address"
						},
						{
							"indexed": false,
							"name": "value",
							"type": "uint256"
						}
					],
					"name": "Transfer",
					"type": "event"
				},
				{
					"anonymous": false,
					"inputs": [
						{
							"indexed": true,
							"name": "owner",
							"type": "address"
						},
						{
							"indexed": true,
							"name": "spender",
							"type": "address"
						},
						{
							"indexed": false,
							"name": "value",
							"type": "uint256"
						}
					],
					"name": "Approval",
					"type": "event"
				},
				{
					"anonymous": false,
					"inputs": [
						{
							"indexed": true,
							"name": "to",
							"type": "address"
						},
						{
							"indexed": false,
							"name": "amount",
							"type": "uint256"
						},
						{
							"indexed": false,
							"name": "expiresAt",
							"type": "uint256"
						}
					],
					"name": "FlashMint",
					"type": "event"
				},
				{
					"anonymous": false,
					"inputs": [
						{
							"indexed": true,
							"name": "account",
							"type": "address"
						},
						{
							"indexed": false,
							"name": "amount",
							"type": "uint256"
						}
					],
					"name": "Burned",
					"type": "event"
				},
				{
					"anonymous": false,
					"inputs": [
						{
							"indexed": true,
							"name": "account",
							"type": "address"
						},
						{
							"indexed": true,
							"name": "lotIndex",
							"type": "uint256"
						},
						{
							"indexed": false,
							"name": "newExpiry",
							"type": "uint256"
						}
					],
					"name": "ExpiryUpdated",
					"type": "event"
				}
			],
			"devdoc": {
				"author": "SunDev",
				"methods": {
					"balanceOf(address)": {
						"params": {
							"account": "The address whose balance is being queried"
						},
						"return": "The total amount of unexpired tokens"
					},
					"flashMint(address,uint256,uint256)": {
						"params": {
							"amount": "Amount of tokens to mint (in base units)",
							"expiryMinutes": "Time until expiry (in minutes)",
							"to": "The address to receive the minted tokens"
						}
					},
					"getActiveTokenLots(address)": {
						"params": {
							"account": "The address to query"
						},
						"return": "amounts Array of token amountsexpiries Array of expiry timestamps"
					},
					"transfer(address,uint256)": {
						"params": {
							"amount": "The number of tokens to transfer",
							"to": "The recipient address"
						},
						"return": "success True if the transfer succeeded"
					},
					"transferFrom(address,address,uint256)": {
						"params": {
							"amount": "The amount of tokens to transfer",
							"from": "The address sending the tokens",
							"to": "The address receiving the tokens"
						},
						"return": "success True if the transfer succeeded"
					}
				},
				"title": "USDTF – A Time-Limited Token Minting Contract (Educational Use Only)"
			},
			"evm": {
				"assembly": "    /* \"contracts/USDTF.sol\":1158:10516  contract USDTF {... */\n  mstore(0x40, 0x80)\n    /* \"contracts/USDTF.sol\":1179:1212  string public name = \"USDT Token\" */\n  mload(0x40)\n  dup1\n  0x40\n  add\n  0x40\n  mstore\n  dup1\n  0x0a\n  dup2\n  mstore\n  0x20\n  add\n  0x5553445420546f6b656e00000000000000000000000000000000000000000000\n  dup2\n  mstore\n  pop\n  0x00\n  swap1\n  dup1\n  mload\n  swap1\n  0x20\n  add\n  swap1\n  tag_1\n  swap3\n  swap2\n  swap1\n  tag_2\n  jump\t// in\ntag_1:\n  pop\n    /* \"contracts/USDTF.sol\":1218:1247  string public symbol = \"USDT\" */\n  mload(0x40)\n  dup1\n  0x40\n  add\n  0x40\n  mstore\n  dup1\n  0x04\n  dup2\n  mstore\n  0x20\n  add\n  0x5553445400000000000000000000000000000000000000000000000000000000\n  dup2\n  mstore\n  pop\n  0x01\n  swap1\n  dup1\n  mload\n  swap1\n  0x20\n  add\n  swap1\n  tag_3\n  swap3\n  swap2\n  swap1\n  tag_2\n  jump\t// in\ntag_3:\n  pop\n    /* \"contracts/USDTF.sol\":1277:1278  6 */\n  0x06\n    /* \"contracts/USDTF.sol\":1253:1278  uint8 public decimals = 6 */\n  0x02\n  exp(0x0100, 0x00)\n  dup2\n  sload\n  dup2\n  0xff\n  mul\n  not\n  and\n  swap1\n  dup4\n  0xff\n  and\n  mul\n  or\n  swap1\n  sstore\n  pop\n    /* \"contracts/USDTF.sol\":1342:1434  string public logoURI = \"ipfs://bafkreievhlhdawjnbvrvmo3jsbqsn57nuoio3asx4ayvmzfixnuxvxlzke\" */\n  mload(0x40)\n  dup1\n  0x80\n  add\n  0x40\n  mstore\n  dup1\n  0x42\n  dup2\n  mstore\n  0x20\n  add\n  data_aabb71e33924ec9672b5e9eb58a90e1262af501613eecae2b7b30aaeab28bf89\n  0x42\n  swap2\n  codecopy\n  0x05\n  swap1\n  dup1\n  mload\n  swap1\n  0x20\n  add\n  swap1\n  tag_4\n  swap3\n  swap2\n  swap1\n  tag_2\n  jump\t// in\ntag_4:\n  pop\n    /* \"contracts/USDTF.sol\":2127:2171  constructor() public { owner = msg.sender; } */\n  callvalue\n    /* \"--CODEGEN--\":8:17   */\n  dup1\n    /* \"--CODEGEN--\":5:7   */\n  iszero\n  tag_5\n  jumpi\n    /* \"--CODEGEN--\":30:31   */\n  0x00\n    /* \"--CODEGEN--\":27:28   */\n  dup1\n    /* \"--CODEGEN--\":20:32   */\n  revert\n    /* \"--CODEGEN--\":5:7   */\ntag_5:\n    /* \"contracts/USDTF.sol\":2127:2171  constructor() public { owner = msg.sender; } */\n  pop\n    /* \"contracts/USDTF.sol\":2158:2168  msg.sender */\n  caller\n    /* \"contracts/USDTF.sol\":2150:2155  owner */\n  0x04\n  0x00\n    /* \"contracts/USDTF.sol\":2150:2168  owner = msg.sender */\n  0x0100\n  exp\n  dup2\n  sload\n  dup2\n  0xffffffffffffffffffffffffffffffffffffffff\n  mul\n  not\n  and\n  swap1\n  dup4\n  0xffffffffffffffffffffffffffffffffffffffff\n  and\n  mul\n  or\n  swap1\n  sstore\n  pop\n    /* \"contracts/USDTF.sol\":1158:10516  contract USDTF {... */\n  jump(tag_8)\ntag_2:\n  dup3\n  dup1\n  sload\n  0x01\n  dup2\n  0x01\n  and\n  iszero\n  0x0100\n  mul\n  sub\n  and\n  0x02\n  swap1\n  div\n  swap1\n  0x00\n  mstore\n  keccak256(0x00, 0x20)\n  swap1\n  0x1f\n  add\n  0x20\n  swap1\n  div\n  dup2\n  add\n  swap3\n  dup3\n  0x1f\n  lt\n  tag_10\n  jumpi\n  dup1\n  mload\n  not(0xff)\n  and\n  dup4\n  dup1\n  add\n  or\n  dup6\n  sstore\n  jump(tag_9)\ntag_10:\n  dup3\n  dup1\n  add\n  0x01\n  add\n  dup6\n  sstore\n  dup3\n  iszero\n  tag_9\n  jumpi\n  swap2\n  dup3\n  add\ntag_11:\n  dup3\n  dup2\n  gt\n  iszero\n  tag_12\n  jumpi\n  dup3\n  mload\n  dup3\n  sstore\n  swap2\n  0x20\n  add\n  swap2\n  swap1\n  0x01\n  add\n  swap1\n  jump(tag_11)\ntag_12:\ntag_9:\n  pop\n  swap1\n  pop\n  tag_13\n  swap2\n  swap1\n  tag_14\n  jump\t// in\ntag_13:\n  pop\n  swap1\n  jump\t// out\ntag_14:\n  tag_15\n  swap2\n  swap1\ntag_16:\n  dup1\n  dup3\n  gt\n  iszero\n  tag_17\n  jumpi\n  0x00\n  dup2\n  0x00\n  swap1\n  sstore\n  pop\n  0x01\n  add\n  jump(tag_16)\ntag_17:\n  pop\n  swap1\n  jump\ntag_15:\n  swap1\n  jump\t// out\ntag_8:\n  dataSize(sub_0)\n  dup1\n  dataOffset(sub_0)\n  0x00\n  codecopy\n  0x00\n  return\nstop\ndata_aabb71e33924ec9672b5e9eb58a90e1262af501613eecae2b7b30aaeab28bf89 697066733a2f2f6261666b7265696576686c686461776a6e627672766d6f336a736271736e35376e756f696f33617378346179766d7a6669786e757876786c7a6b65\n\nsub_0: assembly {\n        /* \"contracts/USDTF.sol\":1158:10516  contract USDTF {... */\n      mstore(0x40, 0x80)\n      callvalue\n        /* \"--CODEGEN--\":8:17   */\n      dup1\n        /* \"--CODEGEN--\":5:7   */\n      iszero\n      tag_1\n      jumpi\n        /* \"--CODEGEN--\":30:31   */\n      0x00\n        /* \"--CODEGEN--\":27:28   */\n      dup1\n        /* \"--CODEGEN--\":20:32   */\n      revert\n        /* \"--CODEGEN--\":5:7   */\n    tag_1:\n        /* \"contracts/USDTF.sol\":1158:10516  contract USDTF {... */\n      pop\n      jumpi(tag_2, lt(calldatasize, 0x04))\n      shr(0xe0, calldataload(0x00))\n      dup1\n      0x8da5cb5b\n      gt\n      tag_22\n      jumpi\n      dup1\n      0xb0f9dfbf\n      gt\n      tag_23\n      jumpi\n      dup1\n      0xb0f9dfbf\n      eq\n      tag_17\n      jumpi\n      dup1\n      0xb40792b9\n      eq\n      tag_18\n      jumpi\n      dup1\n      0xb5b3e35a\n      eq\n      tag_19\n      jumpi\n      dup1\n      0xcd437bda\n      eq\n      tag_20\n      jumpi\n      dup1\n      0xdd62ed3e\n      eq\n      tag_21\n      jumpi\n      jump(tag_2)\n    tag_23:\n      dup1\n      0x8da5cb5b\n      eq\n      tag_12\n      jumpi\n      dup1\n      0x91b46a91\n      eq\n      tag_13\n      jumpi\n      dup1\n      0x95d89b41\n      eq\n      tag_14\n      jumpi\n      dup1\n      0xa8e8486e\n      eq\n      tag_15\n      jumpi\n      dup1\n      0xa9059cbb\n      eq\n      tag_16\n      jumpi\n      jump(tag_2)\n    tag_22:\n      dup1\n      0x313ce567\n      gt\n      tag_24\n      jumpi\n      dup1\n      0x313ce567\n      eq\n      tag_7\n      jumpi\n      dup1\n      0x3345906f\n      eq\n      tag_8\n      jumpi\n      dup1\n      0x6bb38b28\n      eq\n      tag_9\n      jumpi\n      dup1\n      0x70a08231\n      eq\n      tag_10\n      jumpi\n      dup1\n      0x7a825b10\n      eq\n      tag_11\n      jumpi\n      jump(tag_2)\n    tag_24:\n      dup1\n      0x06fdde03\n      eq\n      tag_3\n      jumpi\n      dup1\n      0x095ea7b3\n      eq\n      tag_4\n      jumpi\n      dup1\n      0x18160ddd\n      eq\n      tag_5\n      jumpi\n      dup1\n      0x23b872dd\n      eq\n      tag_6\n      jumpi\n    tag_2:\n      0x00\n      dup1\n      revert\n        /* \"contracts/USDTF.sol\":1179:1212  string public name = \"USDT Token\" */\n    tag_3:\n      tag_25\n      tag_26\n      jump\t// in\n    tag_25:\n      mload(0x40)\n      tag_27\n      swap2\n      swap1\n      jump(tag_28)\n    tag_27:\n      mload(0x40)\n      dup1\n      swap2\n      sub\n      swap1\n      return\n        /* \"contracts/USDTF.sol\":2727:3020  function approve(address spender, uint256 amount) public returns (bool) {... */\n    tag_4:\n      tag_29\n      0x04\n      dup1\n      calldatasize\n      sub\n      tag_30\n      swap2\n      swap1\n      dup2\n      add\n      swap1\n      jump(tag_31)\n    tag_30:\n      tag_32\n      jump\t// in\n    tag_29:\n      mload(0x40)\n      tag_33\n      swap2\n      swap1\n      jump(tag_34)\n    tag_33:\n      mload(0x40)\n      dup1\n      swap2\n      sub\n      swap1\n      return\n        /* \"contracts/USDTF.sol\":1284:1310  uint256 public totalSupply */\n    tag_5:\n      tag_35\n      tag_36\n      jump\t// in\n    tag_35:\n      mload(0x40)\n      tag_37\n      swap2\n      swap1\n      jump(tag_38)\n    tag_37:\n      mload(0x40)\n      dup1\n      swap2\n      sub\n      swap1\n      return\n        /* \"contracts/USDTF.sol\":3597:5108  function transferFrom(address from, address to, uint256 amount) public returns (bool) {... */\n    tag_6:\n      tag_39\n      0x04\n      dup1\n      calldatasize\n      sub\n      tag_40\n      swap2\n      swap1\n      dup2\n      add\n      swap1\n      jump(tag_41)\n    tag_40:\n      tag_42\n      jump\t// in\n    tag_39:\n      mload(0x40)\n      tag_43\n      swap2\n      swap1\n      jump(tag_34)\n    tag_43:\n      mload(0x40)\n      dup1\n      swap2\n      sub\n      swap1\n      return\n        /* \"contracts/USDTF.sol\":1253:1278  uint8 public decimals = 6 */\n    tag_7:\n      tag_44\n      tag_45\n      jump\t// in\n    tag_44:\n      mload(0x40)\n      tag_46\n      swap2\n      swap1\n      jump(tag_47)\n    tag_46:\n      mload(0x40)\n      dup1\n      swap2\n      sub\n      swap1\n      return\n        /* \"contracts/USDTF.sol\":10211:10512  function getSpendableBalance(address account) public view returns (uint256 spendable) {... */\n    tag_8:\n      tag_48\n      0x04\n      dup1\n      calldatasize\n      sub\n      tag_49\n      swap2\n      swap1\n      dup2\n      add\n      swap1\n      jump(tag_50)\n    tag_49:\n      tag_51\n      jump\t// in\n    tag_48:\n      mload(0x40)\n      tag_52\n      swap2\n      swap1\n      jump(tag_38)\n    tag_52:\n      mload(0x40)\n      dup1\n      swap2\n      sub\n      swap1\n      return\n        /* \"contracts/USDTF.sol\":1342:1434  string public logoURI = \"ipfs://bafkreievhlhdawjnbvrvmo3jsbqsn57nuoio3asx4ayvmzfixnuxvxlzke\" */\n    tag_9:\n      tag_53\n      tag_54\n      jump\t// in\n    tag_53:\n      mload(0x40)\n      tag_55\n      swap2\n      swap1\n      jump(tag_28)\n    tag_55:\n      mload(0x40)\n      dup1\n      swap2\n      sub\n      swap1\n      return\n        /* \"contracts/USDTF.sol\":2389:2721  function balanceOf(address account) public view returns (uint256) {... */\n    tag_10:\n      tag_56\n      0x04\n      dup1\n      calldatasize\n      sub\n      tag_57\n      swap2\n      swap1\n      dup2\n      add\n      swap1\n      jump(tag_50)\n    tag_57:\n      tag_58\n      jump\t// in\n    tag_56:\n      mload(0x40)\n      tag_59\n      swap2\n      swap1\n      jump(tag_38)\n    tag_59:\n      mload(0x40)\n      dup1\n      swap2\n      sub\n      swap1\n      return\n        /* \"contracts/USDTF.sol\":7163:7750  function updateTokenLotExpiryInMinutes(address account, uint256 lotIndex, uint256 minutesFromNow) external onlyOwner {... */\n    tag_11:\n      tag_60\n      0x04\n      dup1\n      calldatasize\n      sub\n      tag_61\n      swap2\n      swap1\n      dup2\n      add\n      swap1\n      jump(tag_62)\n    tag_61:\n      tag_63\n      jump\t// in\n    tag_60:\n      stop\n        /* \"contracts/USDTF.sol\":1316:1336  address public owner */\n    tag_12:\n      tag_64\n      tag_65\n      jump\t// in\n    tag_64:\n      mload(0x40)\n      tag_66\n      swap2\n      swap1\n      jump(tag_67)\n    tag_66:\n      mload(0x40)\n      dup1\n      swap2\n      sub\n      swap1\n      return\n        /* \"contracts/USDTF.sol\":1520:1566  mapping(address => TokenLot[]) public holdings */\n    tag_13:\n      tag_68\n      0x04\n      dup1\n      calldatasize\n      sub\n      tag_69\n      swap2\n      swap1\n      dup2\n      add\n      swap1\n      jump(tag_31)\n    tag_69:\n      tag_70\n      jump\t// in\n    tag_68:\n      mload(0x40)\n      tag_71\n      swap3\n      swap2\n      swap1\n      jump(tag_72)\n    tag_71:\n      mload(0x40)\n      dup1\n      swap2\n      sub\n      swap1\n      return\n        /* \"contracts/USDTF.sol\":1218:1247  string public symbol = \"USDT\" */\n    tag_14:\n      tag_73\n      tag_74\n      jump\t// in\n    tag_73:\n      mload(0x40)\n      tag_75\n      swap2\n      swap1\n      jump(tag_28)\n    tag_75:\n      mload(0x40)\n      dup1\n      swap2\n      sub\n      swap1\n      return\n        /* \"contracts/USDTF.sol\":9529:10210  function getAllTokenLots(address account) public view returns (... */\n    tag_15:\n      tag_76\n      0x04\n      dup1\n      calldatasize\n      sub\n      tag_77\n      swap2\n      swap1\n      dup2\n      add\n      swap1\n      jump(tag_50)\n    tag_77:\n      tag_78\n      jump\t// in\n    tag_76:\n      mload(0x40)\n      tag_79\n      swap5\n      swap4\n      swap3\n      swap2\n      swap1\n      jump(tag_80)\n    tag_79:\n      mload(0x40)\n      dup1\n      swap2\n      sub\n      swap1\n      return\n        /* \"contracts/USDTF.sol\":3211:3339  function transfer(address to, uint256 amount) public returns (bool) {... */\n    tag_16:\n      tag_81\n      0x04\n      dup1\n      calldatasize\n      sub\n      tag_82\n      swap2\n      swap1\n      dup2\n      add\n      swap1\n      jump(tag_31)\n    tag_82:\n      tag_83\n      jump\t// in\n    tag_81:\n      mload(0x40)\n      tag_84\n      swap2\n      swap1\n      jump(tag_34)\n    tag_84:\n      mload(0x40)\n      dup1\n      swap2\n      sub\n      swap1\n      return\n        /* \"contracts/USDTF.sol\":5758:6595  function burnExpired(address account) public returns (uint256 burned) {... */\n    tag_17:\n      tag_85\n      0x04\n      dup1\n      calldatasize\n      sub\n      tag_86\n      swap2\n      swap1\n      dup2\n      add\n      swap1\n      jump(tag_50)\n    tag_86:\n      tag_87\n      jump\t// in\n    tag_85:\n      mload(0x40)\n      tag_88\n      swap2\n      swap1\n      jump(tag_38)\n    tag_88:\n      mload(0x40)\n      dup1\n      swap2\n      sub\n      swap1\n      return\n        /* \"contracts/USDTF.sol\":8758:9523  function getExpiredTokenLots(address account) public view returns (uint256[] memory, uint256[] memory) {... */\n    tag_18:\n      tag_89\n      0x04\n      dup1\n      calldatasize\n      sub\n      tag_90\n      swap2\n      swap1\n      dup2\n      add\n      swap1\n      jump(tag_50)\n    tag_90:\n      tag_91\n      jump\t// in\n    tag_89:\n      mload(0x40)\n      tag_92\n      swap3\n      swap2\n      swap1\n      jump(tag_93)\n    tag_92:\n      mload(0x40)\n      dup1\n      swap2\n      sub\n      swap1\n      return\n        /* \"contracts/USDTF.sol\":5351:5752  function flashMint(address to, uint256 amount, uint256 expiryMinutes) public onlyOwner {... */\n    tag_19:\n      tag_94\n      0x04\n      dup1\n      calldatasize\n      sub\n      tag_95\n      swap2\n      swap1\n      dup2\n      add\n      swap1\n      jump(tag_62)\n    tag_95:\n      tag_96\n      jump\t// in\n    tag_94:\n      stop\n        /* \"contracts/USDTF.sol\":7990:8752  function getActiveTokenLots(address account) public view returns (uint256[] memory, uint256[] memory) {... */\n    tag_20:\n      tag_97\n      0x04\n      dup1\n      calldatasize\n      sub\n      tag_98\n      swap2\n      swap1\n      dup2\n      add\n      swap1\n      jump(tag_50)\n    tag_98:\n      tag_99\n      jump\t// in\n    tag_97:\n      mload(0x40)\n      tag_100\n      swap3\n      swap2\n      swap1\n      jump(tag_93)\n    tag_100:\n      mload(0x40)\n      dup1\n      swap2\n      sub\n      swap1\n      return\n        /* \"contracts/USDTF.sol\":1572:1636  mapping(address => mapping(address => uint256)) public allowance */\n    tag_21:\n      tag_101\n      0x04\n      dup1\n      calldatasize\n      sub\n      tag_102\n      swap2\n      swap1\n      dup2\n      add\n      swap1\n      jump(tag_103)\n    tag_102:\n      tag_104\n      jump\t// in\n    tag_101:\n      mload(0x40)\n      tag_105\n      swap2\n      swap1\n      jump(tag_38)\n    tag_105:\n      mload(0x40)\n      dup1\n      swap2\n      sub\n      swap1\n      return\n        /* \"contracts/USDTF.sol\":1179:1212  string public name = \"USDT Token\" */\n    tag_26:\n      0x00\n      dup1\n      sload\n      0x01\n      dup2\n      0x01\n      and\n      iszero\n      0x0100\n      mul\n      sub\n      and\n      0x02\n      swap1\n      div\n      dup1\n      0x1f\n      add\n      0x20\n      dup1\n      swap2\n      div\n      mul\n      0x20\n      add\n      mload(0x40)\n      swap1\n      dup2\n      add\n      0x40\n      mstore\n      dup1\n      swap3\n      swap2\n      swap1\n      dup2\n      dup2\n      mstore\n      0x20\n      add\n      dup3\n      dup1\n      sload\n      0x01\n      dup2\n      0x01\n      and\n      iszero\n      0x0100\n      mul\n      sub\n      and\n      0x02\n      swap1\n      div\n      dup1\n      iszero\n      tag_106\n      jumpi\n      dup1\n      0x1f\n      lt\n      tag_107\n      jumpi\n      0x0100\n      dup1\n      dup4\n      sload\n      div\n      mul\n      dup4\n      mstore\n      swap2\n      0x20\n      add\n      swap2\n      jump(tag_106)\n    tag_107:\n      dup3\n      add\n      swap2\n      swap1\n      0x00\n      mstore\n      keccak256(0x00, 0x20)\n      swap1\n    tag_108:\n      dup2\n      sload\n      dup2\n      mstore\n      swap1\n      0x01\n      add\n      swap1\n      0x20\n      add\n      dup1\n      dup4\n      gt\n      tag_108\n      jumpi\n      dup3\n      swap1\n      sub\n      0x1f\n      and\n      dup3\n      add\n      swap2\n    tag_106:\n      pop\n      pop\n      pop\n      pop\n      pop\n      dup2\n      jump\t// out\n        /* \"contracts/USDTF.sol\":2727:3020  function approve(address spender, uint256 amount) public returns (bool) {... */\n    tag_32:\n        /* \"contracts/USDTF.sol\":2793:2797  bool */\n      0x00\n        /* \"contracts/USDTF.sol\":2809:2832  burnExpired(msg.sender) */\n      tag_110\n        /* \"contracts/USDTF.sol\":2821:2831  msg.sender */\n      caller\n        /* \"contracts/USDTF.sol\":2809:2820  burnExpired */\n      tag_87\n        /* \"contracts/USDTF.sol\":2809:2832  burnExpired(msg.sender) */\n      jump\t// in\n    tag_110:\n      pop\n        /* \"contracts/USDTF.sol\":2869:2870  0 */\n      0x00\n        /* \"contracts/USDTF.sol\":2850:2871  spender != address(0) */\n      0xffffffffffffffffffffffffffffffffffffffff\n      and\n        /* \"contracts/USDTF.sol\":2850:2857  spender */\n      dup4\n        /* \"contracts/USDTF.sol\":2850:2871  spender != address(0) */\n      0xffffffffffffffffffffffffffffffffffffffff\n      and\n      eq\n      iszero\n        /* \"contracts/USDTF.sol\":2842:2891  require(spender != address(0), \"Invalid spender\") */\n      tag_111\n      jumpi\n      mload(0x40)\n      0x08c379a000000000000000000000000000000000000000000000000000000000\n      dup2\n      mstore\n      0x04\n      add\n      tag_112\n      swap1\n      jump(tag_113)\n    tag_112:\n      mload(0x40)\n      dup1\n      swap2\n      sub\n      swap1\n      revert\n    tag_111:\n        /* \"contracts/USDTF.sol\":2934:2940  amount */\n      dup2\n        /* \"contracts/USDTF.sol\":2901:2910  allowance */\n      0x07\n        /* \"contracts/USDTF.sol\":2901:2922  allowance[msg.sender] */\n      0x00\n        /* \"contracts/USDTF.sol\":2911:2921  msg.sender */\n      caller\n        /* \"contracts/USDTF.sol\":2901:2922  allowance[msg.sender] */\n      0xffffffffffffffffffffffffffffffffffffffff\n      and\n      0xffffffffffffffffffffffffffffffffffffffff\n      and\n      dup2\n      mstore\n      0x20\n      add\n      swap1\n      dup2\n      mstore\n      0x20\n      add\n      0x00\n      keccak256\n        /* \"contracts/USDTF.sol\":2901:2931  allowance[msg.sender][spender] */\n      0x00\n        /* \"contracts/USDTF.sol\":2923:2930  spender */\n      dup6\n        /* \"contracts/USDTF.sol\":2901:2931  allowance[msg.sender][spender] */\n      0xffffffffffffffffffffffffffffffffffffffff\n      and\n      0xffffffffffffffffffffffffffffffffffffffff\n      and\n      dup2\n      mstore\n      0x20\n      add\n      swap1\n      dup2\n      mstore\n      0x20\n      add\n      0x00\n      keccak256\n        /* \"contracts/USDTF.sol\":2901:2940  allowance[msg.sender][spender] = amount */\n      dup2\n      swap1\n      sstore\n      pop\n        /* \"contracts/USDTF.sol\":2976:2983  spender */\n      dup3\n        /* \"contracts/USDTF.sol\":2955:2992  Approval(msg.sender, spender, amount) */\n      0xffffffffffffffffffffffffffffffffffffffff\n      and\n        /* \"contracts/USDTF.sol\":2964:2974  msg.sender */\n      caller\n        /* \"contracts/USDTF.sol\":2955:2992  Approval(msg.sender, spender, amount) */\n      0xffffffffffffffffffffffffffffffffffffffff\n      and\n      0x8c5be1e5ebec7d5bd14f71427d1e84f3dd0314c0f7b2291e5b200ac8c7c3b925\n        /* \"contracts/USDTF.sol\":2985:2991  amount */\n      dup5\n        /* \"contracts/USDTF.sol\":2955:2992  Approval(msg.sender, spender, amount) */\n      mload(0x40)\n      tag_114\n      swap2\n      swap1\n      jump(tag_38)\n    tag_114:\n      mload(0x40)\n      dup1\n      swap2\n      sub\n      swap1\n      log3\n        /* \"contracts/USDTF.sol\":3009:3013  true */\n      0x01\n        /* \"contracts/USDTF.sol\":3002:3013  return true */\n      swap1\n      pop\n        /* \"contracts/USDTF.sol\":2727:3020  function approve(address spender, uint256 amount) public returns (bool) {... */\n      swap3\n      swap2\n      pop\n      pop\n      jump\t// out\n        /* \"contracts/USDTF.sol\":1284:1310  uint256 public totalSupply */\n    tag_36:\n      sload(0x03)\n      dup2\n      jump\t// out\n        /* \"contracts/USDTF.sol\":3597:5108  function transferFrom(address from, address to, uint256 amount) public returns (bool) {... */\n    tag_42:\n        /* \"contracts/USDTF.sol\":3677:3681  bool */\n      0x00\n        /* \"contracts/USDTF.sol\":3693:3710  burnExpired(from) */\n      tag_116\n        /* \"contracts/USDTF.sol\":3705:3709  from */\n      dup5\n        /* \"contracts/USDTF.sol\":3693:3704  burnExpired */\n      tag_87\n        /* \"contracts/USDTF.sol\":3693:3710  burnExpired(from) */\n      jump\t// in\n    tag_116:\n      pop\n        /* \"contracts/USDTF.sol\":3744:3745  0 */\n      0x00\n        /* \"contracts/USDTF.sol\":3728:3746  from != address(0) */\n      0xffffffffffffffffffffffffffffffffffffffff\n      and\n        /* \"contracts/USDTF.sol\":3728:3732  from */\n      dup5\n        /* \"contracts/USDTF.sol\":3728:3746  from != address(0) */\n      0xffffffffffffffffffffffffffffffffffffffff\n      and\n      eq\n      iszero\n        /* \"contracts/USDTF.sol\":3720:3765  require(from != address(0), \"Invalid sender\") */\n      tag_117\n      jumpi\n      mload(0x40)\n      0x08c379a000000000000000000000000000000000000000000000000000000000\n      dup2\n      mstore\n      0x04\n      add\n      tag_118\n      swap1\n      jump(tag_119)\n    tag_118:\n      mload(0x40)\n      dup1\n      swap2\n      sub\n      swap1\n      revert\n    tag_117:\n        /* \"contracts/USDTF.sol\":3797:3798  0 */\n      0x00\n        /* \"contracts/USDTF.sol\":3783:3799  to != address(0) */\n      0xffffffffffffffffffffffffffffffffffffffff\n      and\n        /* \"contracts/USDTF.sol\":3783:3785  to */\n      dup4\n        /* \"contracts/USDTF.sol\":3783:3799  to != address(0) */\n      0xffffffffffffffffffffffffffffffffffffffff\n      and\n      eq\n      iszero\n        /* \"contracts/USDTF.sol\":3775:3821  require(to != address(0), \"Invalid recipient\") */\n      tag_120\n      jumpi\n      mload(0x40)\n      0x08c379a000000000000000000000000000000000000000000000000000000000\n      dup2\n      mstore\n      0x04\n      add\n      tag_121\n      swap1\n      jump(tag_122)\n    tag_121:\n      mload(0x40)\n      dup1\n      swap2\n      sub\n      swap1\n      revert\n    tag_120:\n        /* \"contracts/USDTF.sol\":3848:3849  0 */\n      0x00\n        /* \"contracts/USDTF.sol\":3839:3845  amount */\n      dup3\n        /* \"contracts/USDTF.sol\":3839:3849  amount > 0 */\n      gt\n        /* \"contracts/USDTF.sol\":3831:3886  require(amount > 0, \"Amount must be greater than zero\") */\n      tag_123\n      jumpi\n      mload(0x40)\n      0x08c379a000000000000000000000000000000000000000000000000000000000\n      dup2\n      mstore\n      0x04\n      add\n      tag_124\n      swap1\n      jump(tag_125)\n    tag_124:\n      mload(0x40)\n      dup1\n      swap2\n      sub\n      swap1\n      revert\n    tag_123:\n        /* \"contracts/USDTF.sol\":3896:3913  burnExpired(from) */\n      tag_126\n        /* \"contracts/USDTF.sol\":3908:3912  from */\n      dup5\n        /* \"contracts/USDTF.sol\":3896:3907  burnExpired */\n      tag_87\n        /* \"contracts/USDTF.sol\":3896:3913  burnExpired(from) */\n      jump\t// in\n    tag_126:\n      pop\n        /* \"contracts/USDTF.sol\":3942:3946  from */\n      dup4\n        /* \"contracts/USDTF.sol\":3928:3946  msg.sender != from */\n      0xffffffffffffffffffffffffffffffffffffffff\n      and\n        /* \"contracts/USDTF.sol\":3928:3938  msg.sender */\n      caller\n        /* \"contracts/USDTF.sol\":3928:3946  msg.sender != from */\n      0xffffffffffffffffffffffffffffffffffffffff\n      and\n      eq\n        /* \"contracts/USDTF.sol\":3924:4241  if (msg.sender != from) {... */\n      tag_127\n      jumpi\n        /* \"contracts/USDTF.sol\":3962:3986  uint256 currentAllowance */\n      0x00\n        /* \"contracts/USDTF.sol\":3989:3998  allowance */\n      0x07\n        /* \"contracts/USDTF.sol\":3989:4004  allowance[from] */\n      0x00\n        /* \"contracts/USDTF.sol\":3999:4003  from */\n      dup7\n        /* \"contracts/USDTF.sol\":3989:4004  allowance[from] */\n      0xffffffffffffffffffffffffffffffffffffffff\n      and\n      0xffffffffffffffffffffffffffffffffffffffff\n      and\n      dup2\n      mstore\n      0x20\n      add\n      swap1\n      dup2\n      mstore\n      0x20\n      add\n      0x00\n      keccak256\n        /* \"contracts/USDTF.sol\":3989:4016  allowance[from][msg.sender] */\n      0x00\n        /* \"contracts/USDTF.sol\":4005:4015  msg.sender */\n      caller\n        /* \"contracts/USDTF.sol\":3989:4016  allowance[from][msg.sender] */\n      0xffffffffffffffffffffffffffffffffffffffff\n      and\n      0xffffffffffffffffffffffffffffffffffffffff\n      and\n      dup2\n      mstore\n      0x20\n      add\n      swap1\n      dup2\n      mstore\n      0x20\n      add\n      0x00\n      keccak256\n      sload\n        /* \"contracts/USDTF.sol\":3962:4016  uint256 currentAllowance = allowance[from][msg.sender] */\n      swap1\n      pop\n        /* \"contracts/USDTF.sol\":4058:4064  amount */\n      dup3\n        /* \"contracts/USDTF.sol\":4038:4054  currentAllowance */\n      dup2\n        /* \"contracts/USDTF.sol\":4038:4064  currentAllowance >= amount */\n      lt\n      iszero\n        /* \"contracts/USDTF.sol\":4030:4087  require(currentAllowance >= amount, \"Allowance exceeded\") */\n      tag_128\n      jumpi\n      mload(0x40)\n      0x08c379a000000000000000000000000000000000000000000000000000000000\n      dup2\n      mstore\n      0x04\n      add\n      tag_129\n      swap1\n      jump(tag_130)\n    tag_129:\n      mload(0x40)\n      dup1\n      swap2\n      sub\n      swap1\n      revert\n    tag_128:\n        /* \"contracts/USDTF.sol\":4150:4156  amount */\n      dup3\n        /* \"contracts/USDTF.sol\":4131:4147  currentAllowance */\n      dup2\n        /* \"contracts/USDTF.sol\":4131:4156  currentAllowance - amount */\n      sub\n        /* \"contracts/USDTF.sol\":4101:4110  allowance */\n      0x07\n        /* \"contracts/USDTF.sol\":4101:4116  allowance[from] */\n      0x00\n        /* \"contracts/USDTF.sol\":4111:4115  from */\n      dup8\n        /* \"contracts/USDTF.sol\":4101:4116  allowance[from] */\n      0xffffffffffffffffffffffffffffffffffffffff\n      and\n      0xffffffffffffffffffffffffffffffffffffffff\n      and\n      dup2\n      mstore\n      0x20\n      add\n      swap1\n      dup2\n      mstore\n      0x20\n      add\n      0x00\n      keccak256\n        /* \"contracts/USDTF.sol\":4101:4128  allowance[from][msg.sender] */\n      0x00\n        /* \"contracts/USDTF.sol\":4117:4127  msg.sender */\n      caller\n        /* \"contracts/USDTF.sol\":4101:4128  allowance[from][msg.sender] */\n      0xffffffffffffffffffffffffffffffffffffffff\n      and\n      0xffffffffffffffffffffffffffffffffffffffff\n      and\n      dup2\n      mstore\n      0x20\n      add\n      swap1\n      dup2\n      mstore\n      0x20\n      add\n      0x00\n      keccak256\n        /* \"contracts/USDTF.sol\":4101:4156  allowance[from][msg.sender] = currentAllowance - amount */\n      dup2\n      swap1\n      sstore\n      pop\n        /* \"contracts/USDTF.sol\":4190:4200  msg.sender */\n      caller\n        /* \"contracts/USDTF.sol\":4175:4230  Approval(from, msg.sender, allowance[from][msg.sender]) */\n      0xffffffffffffffffffffffffffffffffffffffff\n      and\n        /* \"contracts/USDTF.sol\":4184:4188  from */\n      dup6\n        /* \"contracts/USDTF.sol\":4175:4230  Approval(from, msg.sender, allowance[from][msg.sender]) */\n      0xffffffffffffffffffffffffffffffffffffffff\n      and\n      0x8c5be1e5ebec7d5bd14f71427d1e84f3dd0314c0f7b2291e5b200ac8c7c3b925\n        /* \"contracts/USDTF.sol\":4202:4211  allowance */\n      0x07\n        /* \"contracts/USDTF.sol\":4202:4217  allowance[from] */\n      0x00\n        /* \"contracts/USDTF.sol\":4212:4216  from */\n      dup10\n        /* \"contracts/USDTF.sol\":4202:4217  allowance[from] */\n      0xffffffffffffffffffffffffffffffffffffffff\n      and\n      0xffffffffffffffffffffffffffffffffffffffff\n      and\n      dup2\n      mstore\n      0x20\n      add\n      swap1\n      dup2\n      mstore\n      0x20\n      add\n      0x00\n      keccak256\n        /* \"contracts/USDTF.sol\":4202:4229  allowance[from][msg.sender] */\n      0x00\n        /* \"contracts/USDTF.sol\":4218:4228  msg.sender */\n      caller\n        /* \"contracts/USDTF.sol\":4202:4229  allowance[from][msg.sender] */\n      0xffffffffffffffffffffffffffffffffffffffff\n      and\n      0xffffffffffffffffffffffffffffffffffffffff\n      and\n      dup2\n      mstore\n      0x20\n      add\n      swap1\n      dup2\n      mstore\n      0x20\n      add\n      0x00\n      keccak256\n      sload\n        /* \"contracts/USDTF.sol\":4175:4230  Approval(from, msg.sender, allowance[from][msg.sender]) */\n      mload(0x40)\n      tag_131\n      swap2\n      swap1\n      jump(tag_38)\n    tag_131:\n      mload(0x40)\n      dup1\n      swap2\n      sub\n      swap1\n      log3\n        /* \"contracts/USDTF.sol\":3924:4241  if (msg.sender != from) {... */\n      pop\n    tag_127:\n        /* \"contracts/USDTF.sol\":4251:4278  TokenLot[] storage fromLots */\n      0x00\n        /* \"contracts/USDTF.sol\":4281:4289  holdings */\n      0x06\n        /* \"contracts/USDTF.sol\":4281:4295  holdings[from] */\n      0x00\n        /* \"contracts/USDTF.sol\":4290:4294  from */\n      dup7\n        /* \"contracts/USDTF.sol\":4281:4295  holdings[from] */\n      0xffffffffffffffffffffffffffffffffffffffff\n      and\n      0xffffffffffffffffffffffffffffffffffffffff\n      and\n      dup2\n      mstore\n      0x20\n      add\n      swap1\n      dup2\n      mstore\n      0x20\n      add\n      0x00\n      keccak256\n        /* \"contracts/USDTF.sol\":4251:4295  TokenLot[] storage fromLots = holdings[from] */\n      swap1\n      pop\n        /* \"contracts/USDTF.sol\":4305:4322  uint256 remaining */\n      0x00\n        /* \"contracts/USDTF.sol\":4325:4331  amount */\n      dup4\n        /* \"contracts/USDTF.sol\":4305:4331  uint256 remaining = amount */\n      swap1\n      pop\n        /* \"contracts/USDTF.sol\":4347:4356  uint256 i */\n      0x00\n        /* \"contracts/USDTF.sol\":4359:4360  0 */\n      dup1\n        /* \"contracts/USDTF.sol\":4347:4360  uint256 i = 0 */\n      swap1\n      pop\n        /* \"contracts/USDTF.sol\":4342:4972  for (uint256 i = 0; i < fromLots.length && remaining > 0; i++) {... */\n    tag_132:\n        /* \"contracts/USDTF.sol\":4366:4374  fromLots */\n      dup3\n        /* \"contracts/USDTF.sol\":4366:4381  fromLots.length */\n      dup1\n      sload\n      swap1\n      pop\n        /* \"contracts/USDTF.sol\":4362:4363  i */\n      dup2\n        /* \"contracts/USDTF.sol\":4362:4381  i < fromLots.length */\n      lt\n        /* \"contracts/USDTF.sol\":4362:4398  i < fromLots.length && remaining > 0 */\n      dup1\n      iszero\n      tag_135\n      jumpi\n      pop\n        /* \"contracts/USDTF.sol\":4397:4398  0 */\n      0x00\n        /* \"contracts/USDTF.sol\":4385:4394  remaining */\n      dup3\n        /* \"contracts/USDTF.sol\":4385:4398  remaining > 0 */\n      gt\n        /* \"contracts/USDTF.sol\":4362:4398  i < fromLots.length && remaining > 0 */\n    tag_135:\n        /* \"contracts/USDTF.sol\":4342:4972  for (uint256 i = 0; i < fromLots.length && remaining > 0; i++) {... */\n      iszero\n      tag_133\n      jumpi\n        /* \"contracts/USDTF.sol\":4430:4438  fromLots */\n      dup3\n        /* \"contracts/USDTF.sol\":4439:4440  i */\n      dup2\n        /* \"contracts/USDTF.sol\":4430:4441  fromLots[i] */\n      dup2\n      sload\n      dup2\n      lt\n      tag_136\n      jumpi\n      invalid\n    tag_136:\n      swap1\n      0x00\n      mstore\n      keccak256(0x00, 0x20)\n      swap1\n      0x02\n      mul\n      add\n        /* \"contracts/USDTF.sol\":4430:4448  fromLots[i].expiry */\n      0x01\n      add\n      sload\n        /* \"contracts/USDTF.sol\":4423:4426  now */\n      timestamp\n        /* \"contracts/USDTF.sol\":4423:4448  now >= fromLots[i].expiry */\n      lt\n      iszero\n        /* \"contracts/USDTF.sol\":4423:4475  now >= fromLots[i].expiry || fromLots[i].amount == 0 */\n      dup1\n      tag_138\n      jumpi\n      pop\n        /* \"contracts/USDTF.sol\":4474:4475  0 */\n      0x00\n        /* \"contracts/USDTF.sol\":4452:4460  fromLots */\n      dup4\n        /* \"contracts/USDTF.sol\":4461:4462  i */\n      dup3\n        /* \"contracts/USDTF.sol\":4452:4463  fromLots[i] */\n      dup2\n      sload\n      dup2\n      lt\n      tag_139\n      jumpi\n      invalid\n    tag_139:\n      swap1\n      0x00\n      mstore\n      keccak256(0x00, 0x20)\n      swap1\n      0x02\n      mul\n      add\n        /* \"contracts/USDTF.sol\":4452:4470  fromLots[i].amount */\n      0x00\n      add\n      sload\n        /* \"contracts/USDTF.sol\":4452:4475  fromLots[i].amount == 0 */\n      eq\n        /* \"contracts/USDTF.sol\":4423:4475  now >= fromLots[i].expiry || fromLots[i].amount == 0 */\n    tag_138:\n        /* \"contracts/USDTF.sol\":4419:4485  if (now >= fromLots[i].expiry || fromLots[i].amount == 0) continue */\n      iszero\n      tag_141\n      jumpi\n        /* \"contracts/USDTF.sol\":4477:4485  continue */\n      jump(tag_134)\n        /* \"contracts/USDTF.sol\":4419:4485  if (now >= fromLots[i].expiry || fromLots[i].amount == 0) continue */\n    tag_141:\n        /* \"contracts/USDTF.sol\":4500:4520  uint256 transferable */\n      0x00\n        /* \"contracts/USDTF.sol\":4523:4531  fromLots */\n      dup4\n        /* \"contracts/USDTF.sol\":4532:4533  i */\n      dup3\n        /* \"contracts/USDTF.sol\":4523:4534  fromLots[i] */\n      dup2\n      sload\n      dup2\n      lt\n      tag_142\n      jumpi\n      invalid\n    tag_142:\n      swap1\n      0x00\n      mstore\n      keccak256(0x00, 0x20)\n      swap1\n      0x02\n      mul\n      add\n        /* \"contracts/USDTF.sol\":4523:4541  fromLots[i].amount */\n      0x00\n      add\n      sload\n        /* \"contracts/USDTF.sol\":4500:4541  uint256 transferable = fromLots[i].amount */\n      swap1\n      pop\n        /* \"contracts/USDTF.sol\":4574:4583  remaining */\n      dup3\n        /* \"contracts/USDTF.sol\":4559:4571  transferable */\n      dup2\n        /* \"contracts/USDTF.sol\":4559:4583  transferable > remaining */\n      gt\n        /* \"contracts/USDTF.sol\":4555:4962  if (transferable > remaining) {... */\n      iszero\n      tag_144\n      jumpi\n        /* \"contracts/USDTF.sol\":4625:4634  remaining */\n      dup3\n        /* \"contracts/USDTF.sol\":4603:4611  fromLots */\n      dup5\n        /* \"contracts/USDTF.sol\":4612:4613  i */\n      dup4\n        /* \"contracts/USDTF.sol\":4603:4614  fromLots[i] */\n      dup2\n      sload\n      dup2\n      lt\n      tag_145\n      jumpi\n      invalid\n    tag_145:\n      swap1\n      0x00\n      mstore\n      keccak256(0x00, 0x20)\n      swap1\n      0x02\n      mul\n      add\n        /* \"contracts/USDTF.sol\":4603:4621  fromLots[i].amount */\n      0x00\n      add\n      0x00\n        /* \"contracts/USDTF.sol\":4603:4634  fromLots[i].amount -= remaining */\n      dup3\n      dup3\n      sload\n      sub\n      swap3\n      pop\n      pop\n      dup2\n      swap1\n      sstore\n      pop\n        /* \"contracts/USDTF.sol\":4652:4660  holdings */\n      0x06\n        /* \"contracts/USDTF.sol\":4652:4664  holdings[to] */\n      0x00\n        /* \"contracts/USDTF.sol\":4661:4663  to */\n      dup9\n        /* \"contracts/USDTF.sol\":4652:4664  holdings[to] */\n      0xffffffffffffffffffffffffffffffffffffffff\n      and\n      0xffffffffffffffffffffffffffffffffffffffff\n      and\n      dup2\n      mstore\n      0x20\n      add\n      swap1\n      dup2\n      mstore\n      0x20\n      add\n      0x00\n      keccak256\n        /* \"contracts/USDTF.sol\":4670:4709  TokenLot(remaining, fromLots[i].expiry) */\n      mload(0x40)\n      dup1\n      0x40\n      add\n      0x40\n      mstore\n      dup1\n        /* \"contracts/USDTF.sol\":4679:4688  remaining */\n      dup6\n        /* \"contracts/USDTF.sol\":4670:4709  TokenLot(remaining, fromLots[i].expiry) */\n      dup2\n      mstore\n      0x20\n      add\n        /* \"contracts/USDTF.sol\":4690:4698  fromLots */\n      dup7\n        /* \"contracts/USDTF.sol\":4699:4700  i */\n      dup6\n        /* \"contracts/USDTF.sol\":4690:4701  fromLots[i] */\n      dup2\n      sload\n      dup2\n      lt\n      tag_147\n      jumpi\n      invalid\n    tag_147:\n      swap1\n      0x00\n      mstore\n      keccak256(0x00, 0x20)\n      swap1\n      0x02\n      mul\n      add\n        /* \"contracts/USDTF.sol\":4690:4708  fromLots[i].expiry */\n      0x01\n      add\n      sload\n        /* \"contracts/USDTF.sol\":4670:4709  TokenLot(remaining, fromLots[i].expiry) */\n      dup2\n      mstore\n      pop\n        /* \"contracts/USDTF.sol\":4652:4710  holdings[to].push(TokenLot(remaining, fromLots[i].expiry)) */\n      swap1\n      dup1\n        /* \"--CODEGEN--\":39:40   */\n      0x01\n        /* \"--CODEGEN--\":33:36   */\n      dup2\n        /* \"--CODEGEN--\":27:37   */\n      sload\n        /* \"--CODEGEN--\":23:41   */\n      add\n        /* \"--CODEGEN--\":57:67   */\n      dup1\n        /* \"--CODEGEN--\":52:55   */\n      dup3\n        /* \"--CODEGEN--\":45:68   */\n      sstore\n        /* \"--CODEGEN--\":79:89   */\n      dup1\n        /* \"--CODEGEN--\":72:89   */\n      swap2\n      pop\n        /* \"--CODEGEN--\":0:93   */\n      pop\n        /* \"contracts/USDTF.sol\":4652:4710  holdings[to].push(TokenLot(remaining, fromLots[i].expiry)) */\n      swap1\n      0x01\n      dup3\n      sub\n      swap1\n      0x00\n      mstore\n      keccak256(0x00, 0x20)\n      swap1\n      0x02\n      mul\n      add\n      0x00\n      swap1\n      swap2\n      swap3\n      swap1\n      swap2\n      swap1\n      swap2\n      pop\n      0x00\n      dup3\n      add\n      mload\n      dup2\n      0x00\n      add\n      sstore\n      0x20\n      dup3\n      add\n      mload\n      dup2\n      0x01\n      add\n      sstore\n      pop\n      pop\n      pop\n        /* \"contracts/USDTF.sol\":4740:4741  0 */\n      0x00\n        /* \"contracts/USDTF.sol\":4728:4741  remaining = 0 */\n      swap3\n      pop\n        /* \"contracts/USDTF.sol\":4555:4962  if (transferable > remaining) {... */\n      jump(tag_150)\n    tag_144:\n        /* \"contracts/USDTF.sol\":4801:4802  0 */\n      0x00\n        /* \"contracts/USDTF.sol\":4780:4788  fromLots */\n      dup5\n        /* \"contracts/USDTF.sol\":4789:4790  i */\n      dup4\n        /* \"contracts/USDTF.sol\":4780:4791  fromLots[i] */\n      dup2\n      sload\n      dup2\n      lt\n      tag_151\n      jumpi\n      invalid\n    tag_151:\n      swap1\n      0x00\n      mstore\n      keccak256(0x00, 0x20)\n      swap1\n      0x02\n      mul\n      add\n        /* \"contracts/USDTF.sol\":4780:4798  fromLots[i].amount */\n      0x00\n      add\n        /* \"contracts/USDTF.sol\":4780:4802  fromLots[i].amount = 0 */\n      dup2\n      swap1\n      sstore\n      pop\n        /* \"contracts/USDTF.sol\":4820:4828  holdings */\n      0x06\n        /* \"contracts/USDTF.sol\":4820:4832  holdings[to] */\n      0x00\n        /* \"contracts/USDTF.sol\":4829:4831  to */\n      dup9\n        /* \"contracts/USDTF.sol\":4820:4832  holdings[to] */\n      0xffffffffffffffffffffffffffffffffffffffff\n      and\n      0xffffffffffffffffffffffffffffffffffffffff\n      and\n      dup2\n      mstore\n      0x20\n      add\n      swap1\n      dup2\n      mstore\n      0x20\n      add\n      0x00\n      keccak256\n        /* \"contracts/USDTF.sol\":4838:4880  TokenLot(transferable, fromLots[i].expiry) */\n      mload(0x40)\n      dup1\n      0x40\n      add\n      0x40\n      mstore\n      dup1\n        /* \"contracts/USDTF.sol\":4847:4859  transferable */\n      dup4\n        /* \"contracts/USDTF.sol\":4838:4880  TokenLot(transferable, fromLots[i].expiry) */\n      dup2\n      mstore\n      0x20\n      add\n        /* \"contracts/USDTF.sol\":4861:4869  fromLots */\n      dup7\n        /* \"contracts/USDTF.sol\":4870:4871  i */\n      dup6\n        /* \"contracts/USDTF.sol\":4861:4872  fromLots[i] */\n      dup2\n      sload\n      dup2\n      lt\n      tag_153\n      jumpi\n      invalid\n    tag_153:\n      swap1\n      0x00\n      mstore\n      keccak256(0x00, 0x20)\n      swap1\n      0x02\n      mul\n      add\n        /* \"contracts/USDTF.sol\":4861:4879  fromLots[i].expiry */\n      0x01\n      add\n      sload\n        /* \"contracts/USDTF.sol\":4838:4880  TokenLot(transferable, fromLots[i].expiry) */\n      dup2\n      mstore\n      pop\n        /* \"contracts/USDTF.sol\":4820:4881  holdings[to].push(TokenLot(transferable, fromLots[i].expiry)) */\n      swap1\n      dup1\n        /* \"--CODEGEN--\":39:40   */\n      0x01\n        /* \"--CODEGEN--\":33:36   */\n      dup2\n        /* \"--CODEGEN--\":27:37   */\n      sload\n        /* \"--CODEGEN--\":23:41   */\n      add\n        /* \"--CODEGEN--\":57:67   */\n      dup1\n        /* \"--CODEGEN--\":52:55   */\n      dup3\n        /* \"--CODEGEN--\":45:68   */\n      sstore\n        /* \"--CODEGEN--\":79:89   */\n      dup1\n        /* \"--CODEGEN--\":72:89   */\n      swap2\n      pop\n        /* \"--CODEGEN--\":0:93   */\n      pop\n        /* \"contracts/USDTF.sol\":4820:4881  holdings[to].push(TokenLot(transferable, fromLots[i].expiry)) */\n      swap1\n      0x01\n      dup3\n      sub\n      swap1\n      0x00\n      mstore\n      keccak256(0x00, 0x20)\n      swap1\n      0x02\n      mul\n      add\n      0x00\n      swap1\n      swap2\n      swap3\n      swap1\n      swap2\n      swap1\n      swap2\n      pop\n      0x00\n      dup3\n      add\n      mload\n      dup2\n      0x00\n      add\n      sstore\n      0x20\n      dup3\n      add\n      mload\n      dup2\n      0x01\n      add\n      sstore\n      pop\n      pop\n      pop\n        /* \"contracts/USDTF.sol\":4912:4924  transferable */\n      dup1\n        /* \"contracts/USDTF.sol\":4899:4924  remaining -= transferable */\n      dup4\n      sub\n      swap3\n      pop\n        /* \"contracts/USDTF.sol\":4942:4947  break */\n      pop\n      jump(tag_133)\n        /* \"contracts/USDTF.sol\":4555:4962  if (transferable > remaining) {... */\n    tag_150:\n        /* \"contracts/USDTF.sol\":4342:4972  for (uint256 i = 0; i < fromLots.length && remaining > 0; i++) {... */\n      pop\n    tag_134:\n        /* \"contracts/USDTF.sol\":4400:4403  i++ */\n      dup1\n      dup1\n      0x01\n      add\n      swap2\n      pop\n      pop\n        /* \"contracts/USDTF.sol\":4342:4972  for (uint256 i = 0; i < fromLots.length && remaining > 0; i++) {... */\n      jump(tag_132)\n    tag_133:\n      pop\n        /* \"contracts/USDTF.sol\":5003:5004  0 */\n      0x00\n        /* \"contracts/USDTF.sol\":4990:4999  remaining */\n      dup2\n        /* \"contracts/USDTF.sol\":4990:5004  remaining == 0 */\n      eq\n        /* \"contracts/USDTF.sol\":4982:5039  require(remaining == 0, \"Insufficient unexpired balance\") */\n      tag_156\n      jumpi\n      mload(0x40)\n      0x08c379a000000000000000000000000000000000000000000000000000000000\n      dup2\n      mstore\n      0x04\n      add\n      tag_157\n      swap1\n      jump(tag_158)\n    tag_157:\n      mload(0x40)\n      dup1\n      swap2\n      sub\n      swap1\n      revert\n    tag_156:\n        /* \"contracts/USDTF.sol\":5069:5071  to */\n      dup5\n        /* \"contracts/USDTF.sol\":5054:5080  Transfer(from, to, amount) */\n      0xffffffffffffffffffffffffffffffffffffffff\n      and\n        /* \"contracts/USDTF.sol\":5063:5067  from */\n      dup7\n        /* \"contracts/USDTF.sol\":5054:5080  Transfer(from, to, amount) */\n      0xffffffffffffffffffffffffffffffffffffffff\n      and\n      0xddf252ad1be2c89b69c2b068fc378daa952ba7f163c4a11628f55a4df523b3ef\n        /* \"contracts/USDTF.sol\":5073:5079  amount */\n      dup7\n        /* \"contracts/USDTF.sol\":5054:5080  Transfer(from, to, amount) */\n      mload(0x40)\n      tag_159\n      swap2\n      swap1\n      jump(tag_38)\n    tag_159:\n      mload(0x40)\n      dup1\n      swap2\n      sub\n      swap1\n      log3\n        /* \"contracts/USDTF.sol\":5097:5101  true */\n      0x01\n        /* \"contracts/USDTF.sol\":5090:5101  return true */\n      swap3\n      pop\n      pop\n      pop\n        /* \"contracts/USDTF.sol\":3597:5108  function transferFrom(address from, address to, uint256 amount) public returns (bool) {... */\n      swap4\n      swap3\n      pop\n      pop\n      pop\n      jump\t// out\n        /* \"contracts/USDTF.sol\":1253:1278  uint8 public decimals = 6 */\n    tag_45:\n      0x02\n      0x00\n      swap1\n      sload\n      swap1\n      0x0100\n      exp\n      swap1\n      div\n      0xff\n      and\n      dup2\n      jump\t// out\n        /* \"contracts/USDTF.sol\":10211:10512  function getSpendableBalance(address account) public view returns (uint256 spendable) {... */\n    tag_51:\n        /* \"contracts/USDTF.sol\":10278:10295  uint256 spendable */\n      0x00\n        /* \"contracts/USDTF.sol\":10303:10326  TokenLot[] storage lots */\n      dup1\n        /* \"contracts/USDTF.sol\":10329:10337  holdings */\n      0x06\n        /* \"contracts/USDTF.sol\":10329:10346  holdings[account] */\n      0x00\n        /* \"contracts/USDTF.sol\":10338:10345  account */\n      dup5\n        /* \"contracts/USDTF.sol\":10329:10346  holdings[account] */\n      0xffffffffffffffffffffffffffffffffffffffff\n      and\n      0xffffffffffffffffffffffffffffffffffffffff\n      and\n      dup2\n      mstore\n      0x20\n      add\n      swap1\n      dup2\n      mstore\n      0x20\n      add\n      0x00\n      keccak256\n        /* \"contracts/USDTF.sol\":10303:10346  TokenLot[] storage lots = holdings[account] */\n      swap1\n      pop\n        /* \"contracts/USDTF.sol\":10357:10366  uint256 i */\n      0x00\n        /* \"contracts/USDTF.sol\":10369:10370  0 */\n      dup1\n        /* \"contracts/USDTF.sol\":10357:10370  uint256 i = 0 */\n      swap1\n      pop\n        /* \"contracts/USDTF.sol\":10352:10510  for (uint256 i = 0; i < lots.length; i++) {... */\n    tag_161:\n        /* \"contracts/USDTF.sol\":10376:10380  lots */\n      dup2\n        /* \"contracts/USDTF.sol\":10376:10387  lots.length */\n      dup1\n      sload\n      swap1\n      pop\n        /* \"contracts/USDTF.sol\":10372:10373  i */\n      dup2\n        /* \"contracts/USDTF.sol\":10372:10387  i < lots.length */\n      lt\n        /* \"contracts/USDTF.sol\":10352:10510  for (uint256 i = 0; i < lots.length; i++) {... */\n      iszero\n      tag_162\n      jumpi\n        /* \"contracts/USDTF.sol\":10414:10418  lots */\n      dup2\n        /* \"contracts/USDTF.sol\":10419:10420  i */\n      dup2\n        /* \"contracts/USDTF.sol\":10414:10421  lots[i] */\n      dup2\n      sload\n      dup2\n      lt\n      tag_164\n      jumpi\n      invalid\n    tag_164:\n      swap1\n      0x00\n      mstore\n      keccak256(0x00, 0x20)\n      swap1\n      0x02\n      mul\n      add\n        /* \"contracts/USDTF.sol\":10414:10428  lots[i].expiry */\n      0x01\n      add\n      sload\n        /* \"contracts/USDTF.sol\":10408:10411  now */\n      timestamp\n        /* \"contracts/USDTF.sol\":10408:10428  now < lots[i].expiry */\n      lt\n        /* \"contracts/USDTF.sol\":10408:10450  now < lots[i].expiry && lots[i].amount > 0 */\n      dup1\n      iszero\n      tag_166\n      jumpi\n      pop\n        /* \"contracts/USDTF.sol\":10449:10450  0 */\n      0x00\n        /* \"contracts/USDTF.sol\":10432:10436  lots */\n      dup3\n        /* \"contracts/USDTF.sol\":10437:10438  i */\n      dup3\n        /* \"contracts/USDTF.sol\":10432:10439  lots[i] */\n      dup2\n      sload\n      dup2\n      lt\n      tag_167\n      jumpi\n      invalid\n    tag_167:\n      swap1\n      0x00\n      mstore\n      keccak256(0x00, 0x20)\n      swap1\n      0x02\n      mul\n      add\n        /* \"contracts/USDTF.sol\":10432:10446  lots[i].amount */\n      0x00\n      add\n      sload\n        /* \"contracts/USDTF.sol\":10432:10450  lots[i].amount > 0 */\n      gt\n        /* \"contracts/USDTF.sol\":10408:10450  now < lots[i].expiry && lots[i].amount > 0 */\n    tag_166:\n        /* \"contracts/USDTF.sol\":10404:10504  if (now < lots[i].expiry && lots[i].amount > 0) {... */\n      iszero\n      tag_169\n      jumpi\n        /* \"contracts/USDTF.sol\":10479:10483  lots */\n      dup2\n        /* \"contracts/USDTF.sol\":10484:10485  i */\n      dup2\n        /* \"contracts/USDTF.sol\":10479:10486  lots[i] */\n      dup2\n      sload\n      dup2\n      lt\n      tag_170\n      jumpi\n      invalid\n    tag_170:\n      swap1\n      0x00\n      mstore\n      keccak256(0x00, 0x20)\n      swap1\n      0x02\n      mul\n      add\n        /* \"contracts/USDTF.sol\":10479:10493  lots[i].amount */\n      0x00\n      add\n      sload\n        /* \"contracts/USDTF.sol\":10466:10493  spendable += lots[i].amount */\n      dup4\n      add\n      swap3\n      pop\n        /* \"contracts/USDTF.sol\":10404:10504  if (now < lots[i].expiry && lots[i].amount > 0) {... */\n    tag_169:\n        /* \"contracts/USDTF.sol\":10389:10392  i++ */\n      dup1\n      dup1\n      0x01\n      add\n      swap2\n      pop\n      pop\n        /* \"contracts/USDTF.sol\":10352:10510  for (uint256 i = 0; i < lots.length; i++) {... */\n      jump(tag_161)\n    tag_162:\n      pop\n        /* \"contracts/USDTF.sol\":10211:10512  function getSpendableBalance(address account) public view returns (uint256 spendable) {... */\n      pop\n      swap2\n      swap1\n      pop\n      jump\t// out\n        /* \"contracts/USDTF.sol\":1342:1434  string public logoURI = \"ipfs://bafkreievhlhdawjnbvrvmo3jsbqsn57nuoio3asx4ayvmzfixnuxvxlzke\" */\n    tag_54:\n      0x05\n      dup1\n      sload\n      0x01\n      dup2\n      0x01\n      and\n      iszero\n      0x0100\n      mul\n      sub\n      and\n      0x02\n      swap1\n      div\n      dup1\n      0x1f\n      add\n      0x20\n      dup1\n      swap2\n      div\n      mul\n      0x20\n      add\n      mload(0x40)\n      swap1\n      dup2\n      add\n      0x40\n      mstore\n      dup1\n      swap3\n      swap2\n      swap1\n      dup2\n      dup2\n      mstore\n      0x20\n      add\n      dup3\n      dup1\n      sload\n      0x01\n      dup2\n      0x01\n      and\n      iszero\n      0x0100\n      mul\n      sub\n      and\n      0x02\n      swap1\n      div\n      dup1\n      iszero\n      tag_172\n      jumpi\n      dup1\n      0x1f\n      lt\n      tag_173\n      jumpi\n      0x0100\n      dup1\n      dup4\n      sload\n      div\n      mul\n      dup4\n      mstore\n      swap2\n      0x20\n      add\n      swap2\n      jump(tag_172)\n    tag_173:\n      dup3\n      add\n      swap2\n      swap1\n      0x00\n      mstore\n      keccak256(0x00, 0x20)\n      swap1\n    tag_174:\n      dup2\n      sload\n      dup2\n      mstore\n      swap1\n      0x01\n      add\n      swap1\n      0x20\n      add\n      dup1\n      dup4\n      gt\n      tag_174\n      jumpi\n      dup3\n      swap1\n      sub\n      0x1f\n      and\n      dup3\n      add\n      swap2\n    tag_172:\n      pop\n      pop\n      pop\n      pop\n      pop\n      dup2\n      jump\t// out\n        /* \"contracts/USDTF.sol\":2389:2721  function balanceOf(address account) public view returns (uint256) {... */\n    tag_58:\n        /* \"contracts/USDTF.sol\":2446:2453  uint256 */\n      0x00\n        /* \"contracts/USDTF.sol\":2465:2488  TokenLot[] storage lots */\n      dup1\n        /* \"contracts/USDTF.sol\":2491:2499  holdings */\n      0x06\n        /* \"contracts/USDTF.sol\":2491:2508  holdings[account] */\n      0x00\n        /* \"contracts/USDTF.sol\":2500:2507  account */\n      dup5\n        /* \"contracts/USDTF.sol\":2491:2508  holdings[account] */\n      0xffffffffffffffffffffffffffffffffffffffff\n      and\n      0xffffffffffffffffffffffffffffffffffffffff\n      and\n      dup2\n      mstore\n      0x20\n      add\n      swap1\n      dup2\n      mstore\n      0x20\n      add\n      0x00\n      keccak256\n        /* \"contracts/USDTF.sol\":2465:2508  TokenLot[] storage lots = holdings[account] */\n      swap1\n      pop\n        /* \"contracts/USDTF.sol\":2518:2531  uint256 total */\n      0x00\n        /* \"contracts/USDTF.sol\":2534:2535  0 */\n      dup1\n        /* \"contracts/USDTF.sol\":2518:2535  uint256 total = 0 */\n      swap1\n      pop\n        /* \"contracts/USDTF.sol\":2550:2559  uint256 i */\n      0x00\n        /* \"contracts/USDTF.sol\":2562:2563  0 */\n      dup1\n        /* \"contracts/USDTF.sol\":2550:2563  uint256 i = 0 */\n      swap1\n      pop\n        /* \"contracts/USDTF.sol\":2545:2693  for (uint256 i = 0; i < lots.length; i++) {... */\n    tag_176:\n        /* \"contracts/USDTF.sol\":2569:2573  lots */\n      dup3\n        /* \"contracts/USDTF.sol\":2569:2580  lots.length */\n      dup1\n      sload\n      swap1\n      pop\n        /* \"contracts/USDTF.sol\":2565:2566  i */\n      dup2\n        /* \"contracts/USDTF.sol\":2565:2580  i < lots.length */\n      lt\n        /* \"contracts/USDTF.sol\":2545:2693  for (uint256 i = 0; i < lots.length; i++) {... */\n      iszero\n      tag_177\n      jumpi\n        /* \"contracts/USDTF.sol\":2611:2615  lots */\n      dup3\n        /* \"contracts/USDTF.sol\":2616:2617  i */\n      dup2\n        /* \"contracts/USDTF.sol\":2611:2618  lots[i] */\n      dup2\n      sload\n      dup2\n      lt\n      tag_179\n      jumpi\n      invalid\n    tag_179:\n      swap1\n      0x00\n      mstore\n      keccak256(0x00, 0x20)\n      swap1\n      0x02\n      mul\n      add\n        /* \"contracts/USDTF.sol\":2611:2625  lots[i].expiry */\n      0x01\n      add\n      sload\n        /* \"contracts/USDTF.sol\":2605:2608  now */\n      timestamp\n        /* \"contracts/USDTF.sol\":2605:2625  now < lots[i].expiry */\n      lt\n        /* \"contracts/USDTF.sol\":2601:2683  if (now < lots[i].expiry) {... */\n      iszero\n      tag_181\n      jumpi\n        /* \"contracts/USDTF.sol\":2654:2658  lots */\n      dup3\n        /* \"contracts/USDTF.sol\":2659:2660  i */\n      dup2\n        /* \"contracts/USDTF.sol\":2654:2661  lots[i] */\n      dup2\n      sload\n      dup2\n      lt\n      tag_182\n      jumpi\n      invalid\n    tag_182:\n      swap1\n      0x00\n      mstore\n      keccak256(0x00, 0x20)\n      swap1\n      0x02\n      mul\n      add\n        /* \"contracts/USDTF.sol\":2654:2668  lots[i].amount */\n      0x00\n      add\n      sload\n        /* \"contracts/USDTF.sol\":2645:2668  total += lots[i].amount */\n      dup3\n      add\n      swap2\n      pop\n        /* \"contracts/USDTF.sol\":2601:2683  if (now < lots[i].expiry) {... */\n    tag_181:\n        /* \"contracts/USDTF.sol\":2582:2585  i++ */\n      dup1\n      dup1\n      0x01\n      add\n      swap2\n      pop\n      pop\n        /* \"contracts/USDTF.sol\":2545:2693  for (uint256 i = 0; i < lots.length; i++) {... */\n      jump(tag_176)\n    tag_177:\n      pop\n        /* \"contracts/USDTF.sol\":2709:2714  total */\n      dup1\n        /* \"contracts/USDTF.sol\":2702:2714  return total */\n      swap3\n      pop\n      pop\n      pop\n        /* \"contracts/USDTF.sol\":2389:2721  function balanceOf(address account) public view returns (uint256) {... */\n      swap2\n      swap1\n      pop\n      jump\t// out\n        /* \"contracts/USDTF.sol\":7163:7750  function updateTokenLotExpiryInMinutes(address account, uint256 lotIndex, uint256 minutesFromNow) external onlyOwner {... */\n    tag_63:\n        /* \"contracts/USDTF.sol\":2087:2092  owner */\n      0x04\n      0x00\n      swap1\n      sload\n      swap1\n      0x0100\n      exp\n      swap1\n      div\n      0xffffffffffffffffffffffffffffffffffffffff\n      and\n        /* \"contracts/USDTF.sol\":2073:2092  msg.sender == owner */\n      0xffffffffffffffffffffffffffffffffffffffff\n      and\n        /* \"contracts/USDTF.sol\":2073:2083  msg.sender */\n      caller\n        /* \"contracts/USDTF.sol\":2073:2092  msg.sender == owner */\n      0xffffffffffffffffffffffffffffffffffffffff\n      and\n      eq\n        /* \"contracts/USDTF.sol\":2065:2106  require(msg.sender == owner, \"Not owner\") */\n      tag_185\n      jumpi\n      mload(0x40)\n      0x08c379a000000000000000000000000000000000000000000000000000000000\n      dup2\n      mstore\n      0x04\n      add\n      tag_186\n      swap1\n      jump(tag_187)\n    tag_186:\n      mload(0x40)\n      dup1\n      swap2\n      sub\n      swap1\n      revert\n    tag_185:\n        /* \"contracts/USDTF.sol\":7289:7309  burnExpired(account) */\n      tag_189\n        /* \"contracts/USDTF.sol\":7301:7308  account */\n      dup4\n        /* \"contracts/USDTF.sol\":7289:7300  burnExpired */\n      tag_87\n        /* \"contracts/USDTF.sol\":7289:7309  burnExpired(account) */\n      jump\t// in\n    tag_189:\n      pop\n        /* \"contracts/USDTF.sol\":7342:7343  0 */\n      0x00\n        /* \"contracts/USDTF.sol\":7323:7344  account != address(0) */\n      0xffffffffffffffffffffffffffffffffffffffff\n      and\n        /* \"contracts/USDTF.sol\":7323:7330  account */\n      dup4\n        /* \"contracts/USDTF.sol\":7323:7344  account != address(0) */\n      0xffffffffffffffffffffffffffffffffffffffff\n      and\n      eq\n      iszero\n        /* \"contracts/USDTF.sol\":7315:7364  require(account != address(0), \"Invalid address\") */\n      tag_190\n      jumpi\n      mload(0x40)\n      0x08c379a000000000000000000000000000000000000000000000000000000000\n      dup2\n      mstore\n      0x04\n      add\n      tag_191\n      swap1\n      jump(tag_192)\n    tag_191:\n      mload(0x40)\n      dup1\n      swap2\n      sub\n      swap1\n      revert\n    tag_190:\n        /* \"contracts/USDTF.sol\":7370:7393  TokenLot[] storage lots */\n      0x00\n        /* \"contracts/USDTF.sol\":7396:7404  holdings */\n      0x06\n        /* \"contracts/USDTF.sol\":7396:7413  holdings[account] */\n      0x00\n        /* \"contracts/USDTF.sol\":7405:7412  account */\n      dup6\n        /* \"contracts/USDTF.sol\":7396:7413  holdings[account] */\n      0xffffffffffffffffffffffffffffffffffffffff\n      and\n      0xffffffffffffffffffffffffffffffffffffffff\n      and\n      dup2\n      mstore\n      0x20\n      add\n      swap1\n      dup2\n      mstore\n      0x20\n      add\n      0x00\n      keccak256\n        /* \"contracts/USDTF.sol\":7370:7413  TokenLot[] storage lots = holdings[account] */\n      swap1\n      pop\n        /* \"contracts/USDTF.sol\":7438:7442  lots */\n      dup1\n        /* \"contracts/USDTF.sol\":7438:7449  lots.length */\n      dup1\n      sload\n      swap1\n      pop\n        /* \"contracts/USDTF.sol\":7427:7435  lotIndex */\n      dup4\n        /* \"contracts/USDTF.sol\":7427:7449  lotIndex < lots.length */\n      lt\n        /* \"contracts/USDTF.sol\":7419:7471  require(lotIndex < lots.length, \"Invalid lot index\") */\n      tag_193\n      jumpi\n      mload(0x40)\n      0x08c379a000000000000000000000000000000000000000000000000000000000\n      dup2\n      mstore\n      0x04\n      add\n      tag_194\n      swap1\n      jump(tag_195)\n    tag_194:\n      mload(0x40)\n      dup1\n      swap2\n      sub\n      swap1\n      revert\n    tag_193:\n        /* \"contracts/USDTF.sol\":7509:7510  0 */\n      0x00\n        /* \"contracts/USDTF.sol\":7485:7489  lots */\n      dup2\n        /* \"contracts/USDTF.sol\":7490:7498  lotIndex */\n      dup5\n        /* \"contracts/USDTF.sol\":7485:7499  lots[lotIndex] */\n      dup2\n      sload\n      dup2\n      lt\n      tag_196\n      jumpi\n      invalid\n    tag_196:\n      swap1\n      0x00\n      mstore\n      keccak256(0x00, 0x20)\n      swap1\n      0x02\n      mul\n      add\n        /* \"contracts/USDTF.sol\":7485:7506  lots[lotIndex].amount */\n      0x00\n      add\n      sload\n        /* \"contracts/USDTF.sol\":7485:7510  lots[lotIndex].amount > 0 */\n      gt\n        /* \"contracts/USDTF.sol\":7477:7533  require(lots[lotIndex].amount > 0, \"Token lot is empty\") */\n      tag_198\n      jumpi\n      mload(0x40)\n      0x08c379a000000000000000000000000000000000000000000000000000000000\n      dup2\n      mstore\n      0x04\n      add\n      tag_199\n      swap1\n      jump(tag_200)\n    tag_199:\n      mload(0x40)\n      dup1\n      swap2\n      sub\n      swap1\n      revert\n    tag_198:\n        /* \"contracts/USDTF.sol\":7540:7557  uint256 newExpiry */\n      0x00\n        /* \"contracts/USDTF.sol\":7584:7586  60 */\n      0x3c\n        /* \"contracts/USDTF.sol\":7567:7581  minutesFromNow */\n      dup4\n        /* \"contracts/USDTF.sol\":7567:7586  minutesFromNow * 60 */\n      mul\n        /* \"contracts/USDTF.sol\":7560:7563  now */\n      timestamp\n        /* \"contracts/USDTF.sol\":7560:7587  now + (minutesFromNow * 60) */\n      add\n        /* \"contracts/USDTF.sol\":7540:7587  uint256 newExpiry = now + (minutesFromNow * 60) */\n      swap1\n      pop\n        /* \"contracts/USDTF.sol\":7613:7616  now */\n      timestamp\n        /* \"contracts/USDTF.sol\":7601:7610  newExpiry */\n      dup2\n        /* \"contracts/USDTF.sol\":7601:7616  newExpiry > now */\n      gt\n        /* \"contracts/USDTF.sol\":7593:7653  require(newExpiry > now, \"New expiry must be in the future\") */\n      tag_201\n      jumpi\n      mload(0x40)\n      0x08c379a000000000000000000000000000000000000000000000000000000000\n      dup2\n      mstore\n      0x04\n      add\n      tag_202\n      swap1\n      jump(tag_203)\n    tag_202:\n      mload(0x40)\n      dup1\n      swap2\n      sub\n      swap1\n      revert\n    tag_201:\n        /* \"contracts/USDTF.sol\":7684:7693  newExpiry */\n      dup1\n        /* \"contracts/USDTF.sol\":7660:7664  lots */\n      dup3\n        /* \"contracts/USDTF.sol\":7665:7673  lotIndex */\n      dup6\n        /* \"contracts/USDTF.sol\":7660:7674  lots[lotIndex] */\n      dup2\n      sload\n      dup2\n      lt\n      tag_204\n      jumpi\n      invalid\n    tag_204:\n      swap1\n      0x00\n      mstore\n      keccak256(0x00, 0x20)\n      swap1\n      0x02\n      mul\n      add\n        /* \"contracts/USDTF.sol\":7660:7681  lots[lotIndex].expiry */\n      0x01\n      add\n        /* \"contracts/USDTF.sol\":7660:7693  lots[lotIndex].expiry = newExpiry */\n      dup2\n      swap1\n      sstore\n      pop\n        /* \"contracts/USDTF.sol\":7727:7735  lotIndex */\n      dup4\n        /* \"contracts/USDTF.sol\":7718:7725  account */\n      dup6\n        /* \"contracts/USDTF.sol\":7704:7747  ExpiryUpdated(account, lotIndex, newExpiry) */\n      0xffffffffffffffffffffffffffffffffffffffff\n      and\n      0x2fbda298b5b96dd64c5d8e502aa9bc32fc01887dac2b05c9b8196d4e00464966\n        /* \"contracts/USDTF.sol\":7737:7746  newExpiry */\n      dup4\n        /* \"contracts/USDTF.sol\":7704:7747  ExpiryUpdated(account, lotIndex, newExpiry) */\n      mload(0x40)\n      tag_206\n      swap2\n      swap1\n      jump(tag_38)\n    tag_206:\n      mload(0x40)\n      dup1\n      swap2\n      sub\n      swap1\n      log3\n        /* \"contracts/USDTF.sol\":2116:2117  _ */\n      pop\n      pop\n        /* \"contracts/USDTF.sol\":7163:7750  function updateTokenLotExpiryInMinutes(address account, uint256 lotIndex, uint256 minutesFromNow) external onlyOwner {... */\n      pop\n      pop\n      pop\n      jump\t// out\n        /* \"contracts/USDTF.sol\":1316:1336  address public owner */\n    tag_65:\n      0x04\n      0x00\n      swap1\n      sload\n      swap1\n      0x0100\n      exp\n      swap1\n      div\n      0xffffffffffffffffffffffffffffffffffffffff\n      and\n      dup2\n      jump\t// out\n        /* \"contracts/USDTF.sol\":1520:1566  mapping(address => TokenLot[]) public holdings */\n    tag_70:\n      mstore(0x20, 0x06)\n      dup2\n      0x00\n      mstore\n      keccak256(0x00, 0x40)\n      dup2\n      dup2\n      sload\n      dup2\n      lt\n      tag_207\n      jumpi\n      invalid\n    tag_207:\n      swap1\n      0x00\n      mstore\n      keccak256(0x00, 0x20)\n      swap1\n      0x02\n      mul\n      add\n      0x00\n      swap2\n      pop\n      swap2\n      pop\n      pop\n      dup1\n      0x00\n      add\n      sload\n      swap1\n      dup1\n      0x01\n      add\n      sload\n      swap1\n      pop\n      dup3\n      jump\t// out\n        /* \"contracts/USDTF.sol\":1218:1247  string public symbol = \"USDT\" */\n    tag_74:\n      0x01\n      dup1\n      sload\n      0x01\n      dup2\n      0x01\n      and\n      iszero\n      0x0100\n      mul\n      sub\n      and\n      0x02\n      swap1\n      div\n      dup1\n      0x1f\n      add\n      0x20\n      dup1\n      swap2\n      div\n      mul\n      0x20\n      add\n      mload(0x40)\n      swap1\n      dup2\n      add\n      0x40\n      mstore\n      dup1\n      swap3\n      swap2\n      swap1\n      dup2\n      dup2\n      mstore\n      0x20\n      add\n      dup3\n      dup1\n      sload\n      0x01\n      dup2\n      0x01\n      and\n      iszero\n      0x0100\n      mul\n      sub\n      and\n      0x02\n      swap1\n      div\n      dup1\n      iszero\n      tag_209\n      jumpi\n      dup1\n      0x1f\n      lt\n      tag_210\n      jumpi\n      0x0100\n      dup1\n      dup4\n      sload\n      div\n      mul\n      dup4\n      mstore\n      swap2\n      0x20\n      add\n      swap2\n      jump(tag_209)\n    tag_210:\n      dup3\n      add\n      swap2\n      swap1\n      0x00\n      mstore\n      keccak256(0x00, 0x20)\n      swap1\n    tag_211:\n      dup2\n      sload\n      dup2\n      mstore\n      swap1\n      0x01\n      add\n      swap1\n      0x20\n      add\n      dup1\n      dup4\n      gt\n      tag_211\n      jumpi\n      dup3\n      swap1\n      sub\n      0x1f\n      and\n      dup3\n      add\n      swap2\n    tag_209:\n      pop\n      pop\n      pop\n      pop\n      pop\n      dup2\n      jump\t// out\n        /* \"contracts/USDTF.sol\":9529:10210  function getAllTokenLots(address account) public view returns (... */\n    tag_78:\n        /* \"contracts/USDTF.sol\":9597:9621  uint256[] memory indexes */\n      0x60\n        /* \"contracts/USDTF.sol\":9627:9651  uint256[] memory amounts */\n      dup1\n        /* \"contracts/USDTF.sol\":9657:9682  uint256[] memory expiries */\n      0x60\n        /* \"contracts/USDTF.sol\":9688:9710  bool[] memory isActive */\n      dup1\n        /* \"contracts/USDTF.sol\":9723:9746  TokenLot[] storage lots */\n      0x00\n        /* \"contracts/USDTF.sol\":9749:9757  holdings */\n      0x06\n        /* \"contracts/USDTF.sol\":9749:9766  holdings[account] */\n      0x00\n        /* \"contracts/USDTF.sol\":9758:9765  account */\n      dup8\n        /* \"contracts/USDTF.sol\":9749:9766  holdings[account] */\n      0xffffffffffffffffffffffffffffffffffffffff\n      and\n      0xffffffffffffffffffffffffffffffffffffffff\n      and\n      dup2\n      mstore\n      0x20\n      add\n      swap1\n      dup2\n      mstore\n      0x20\n      add\n      0x00\n      keccak256\n        /* \"contracts/USDTF.sol\":9723:9766  TokenLot[] storage lots = holdings[account] */\n      swap1\n      pop\n        /* \"contracts/USDTF.sol\":9772:9783  uint256 len */\n      0x00\n        /* \"contracts/USDTF.sol\":9786:9790  lots */\n      dup2\n        /* \"contracts/USDTF.sol\":9786:9797  lots.length */\n      dup1\n      sload\n      swap1\n      pop\n        /* \"contracts/USDTF.sol\":9772:9797  uint256 len = lots.length */\n      swap1\n      pop\n        /* \"contracts/USDTF.sol\":9828:9831  len */\n      dup1\n        /* \"contracts/USDTF.sol\":9814:9832  new uint256[](len) */\n      mload(0x40)\n      swap1\n      dup1\n      dup3\n      mstore\n      dup1\n      0x20\n      mul\n      0x20\n      add\n      dup3\n      add\n      0x40\n      mstore\n      dup1\n      iszero\n      tag_213\n      jumpi\n      dup2\n      0x20\n      add\n        /* \"--CODEGEN--\":29:31   */\n      0x20\n        /* \"--CODEGEN--\":21:27   */\n      dup3\n        /* \"--CODEGEN--\":17:32   */\n      mul\n        /* \"--CODEGEN--\":117:121   */\n      dup1\n        /* \"--CODEGEN--\":105:115   */\n      codesize\n        /* \"--CODEGEN--\":97:103   */\n      dup4\n        /* \"--CODEGEN--\":88:122   */\n      codecopy\n        /* \"--CODEGEN--\":148:152   */\n      dup1\n        /* \"--CODEGEN--\":140:146   */\n      dup3\n        /* \"--CODEGEN--\":136:153   */\n      add\n        /* \"--CODEGEN--\":126:153   */\n      swap2\n      pop\n        /* \"--CODEGEN--\":0:157   */\n      pop\n        /* \"contracts/USDTF.sol\":9814:9832  new uint256[](len) */\n      swap1\n      pop\n    tag_213:\n      pop\n        /* \"contracts/USDTF.sol\":9804:9832  indexes = new uint256[](len) */\n      swap6\n      pop\n        /* \"contracts/USDTF.sol\":9862:9865  len */\n      dup1\n        /* \"contracts/USDTF.sol\":9848:9866  new uint256[](len) */\n      mload(0x40)\n      swap1\n      dup1\n      dup3\n      mstore\n      dup1\n      0x20\n      mul\n      0x20\n      add\n      dup3\n      add\n      0x40\n      mstore\n      dup1\n      iszero\n      tag_214\n      jumpi\n      dup2\n      0x20\n      add\n        /* \"--CODEGEN--\":29:31   */\n      0x20\n        /* \"--CODEGEN--\":21:27   */\n      dup3\n        /* \"--CODEGEN--\":17:32   */\n      mul\n        /* \"--CODEGEN--\":117:121   */\n      dup1\n        /* \"--CODEGEN--\":105:115   */\n      codesize\n        /* \"--CODEGEN--\":97:103   */\n      dup4\n        /* \"--CODEGEN--\":88:122   */\n      codecopy\n        /* \"--CODEGEN--\":148:152   */\n      dup1\n        /* \"--CODEGEN--\":140:146   */\n      dup3\n        /* \"--CODEGEN--\":136:153   */\n      add\n        /* \"--CODEGEN--\":126:153   */\n      swap2\n      pop\n        /* \"--CODEGEN--\":0:157   */\n      pop\n        /* \"contracts/USDTF.sol\":9848:9866  new uint256[](len) */\n      swap1\n      pop\n    tag_214:\n      pop\n        /* \"contracts/USDTF.sol\":9838:9866  amounts = new uint256[](len) */\n      swap5\n      pop\n        /* \"contracts/USDTF.sol\":9897:9900  len */\n      dup1\n        /* \"contracts/USDTF.sol\":9883:9901  new uint256[](len) */\n      mload(0x40)\n      swap1\n      dup1\n      dup3\n      mstore\n      dup1\n      0x20\n      mul\n      0x20\n      add\n      dup3\n      add\n      0x40\n      mstore\n      dup1\n      iszero\n      tag_215\n      jumpi\n      dup2\n      0x20\n      add\n        /* \"--CODEGEN--\":29:31   */\n      0x20\n        /* \"--CODEGEN--\":21:27   */\n      dup3\n        /* \"--CODEGEN--\":17:32   */\n      mul\n        /* \"--CODEGEN--\":117:121   */\n      dup1\n        /* \"--CODEGEN--\":105:115   */\n      codesize\n        /* \"--CODEGEN--\":97:103   */\n      dup4\n        /* \"--CODEGEN--\":88:122   */\n      codecopy\n        /* \"--CODEGEN--\":148:152   */\n      dup1\n        /* \"--CODEGEN--\":140:146   */\n      dup3\n        /* \"--CODEGEN--\":136:153   */\n      add\n        /* \"--CODEGEN--\":126:153   */\n      swap2\n      pop\n        /* \"--CODEGEN--\":0:157   */\n      pop\n        /* \"contracts/USDTF.sol\":9883:9901  new uint256[](len) */\n      swap1\n      pop\n    tag_215:\n      pop\n        /* \"contracts/USDTF.sol\":9872:9901  expiries = new uint256[](len) */\n      swap4\n      pop\n        /* \"contracts/USDTF.sol\":9929:9932  len */\n      dup1\n        /* \"contracts/USDTF.sol\":9918:9933  new bool[](len) */\n      mload(0x40)\n      swap1\n      dup1\n      dup3\n      mstore\n      dup1\n      0x20\n      mul\n      0x20\n      add\n      dup3\n      add\n      0x40\n      mstore\n      dup1\n      iszero\n      tag_216\n      jumpi\n      dup2\n      0x20\n      add\n        /* \"--CODEGEN--\":29:31   */\n      0x20\n        /* \"--CODEGEN--\":21:27   */\n      dup3\n        /* \"--CODEGEN--\":17:32   */\n      mul\n        /* \"--CODEGEN--\":117:121   */\n      dup1\n        /* \"--CODEGEN--\":105:115   */\n      codesize\n        /* \"--CODEGEN--\":97:103   */\n      dup4\n        /* \"--CODEGEN--\":88:122   */\n      codecopy\n        /* \"--CODEGEN--\":148:152   */\n      dup1\n        /* \"--CODEGEN--\":140:146   */\n      dup3\n        /* \"--CODEGEN--\":136:153   */\n      add\n        /* \"--CODEGEN--\":126:153   */\n      swap2\n      pop\n        /* \"--CODEGEN--\":0:157   */\n      pop\n        /* \"contracts/USDTF.sol\":9918:9933  new bool[](len) */\n      swap1\n      pop\n    tag_216:\n      pop\n        /* \"contracts/USDTF.sol\":9907:9933  isActive = new bool[](len) */\n      swap3\n      pop\n        /* \"contracts/USDTF.sol\":9945:9954  uint256 i */\n      0x00\n        /* \"contracts/USDTF.sol\":9957:9958  0 */\n      dup1\n        /* \"contracts/USDTF.sol\":9945:9958  uint256 i = 0 */\n      swap1\n      pop\n        /* \"contracts/USDTF.sol\":9940:10148  for (uint256 i = 0; i < len; i++) {... */\n    tag_217:\n        /* \"contracts/USDTF.sol\":9964:9967  len */\n      dup2\n        /* \"contracts/USDTF.sol\":9960:9961  i */\n      dup2\n        /* \"contracts/USDTF.sol\":9960:9967  i < len */\n      lt\n        /* \"contracts/USDTF.sol\":9940:10148  for (uint256 i = 0; i < len; i++) {... */\n      iszero\n      tag_218\n      jumpi\n        /* \"contracts/USDTF.sol\":9997:9998  i */\n      dup1\n        /* \"contracts/USDTF.sol\":9984:9991  indexes */\n      dup8\n        /* \"contracts/USDTF.sol\":9992:9993  i */\n      dup3\n        /* \"contracts/USDTF.sol\":9984:9994  indexes[i] */\n      dup2\n      mload\n      dup2\n      lt\n      tag_220\n      jumpi\n      invalid\n    tag_220:\n      0x20\n      mul\n      0x20\n      add\n      add\n        /* \"contracts/USDTF.sol\":9984:9998  indexes[i] = i */\n      dup2\n      dup2\n      mstore\n      pop\n      pop\n        /* \"contracts/USDTF.sol\":10021:10025  lots */\n      dup3\n        /* \"contracts/USDTF.sol\":10026:10027  i */\n      dup2\n        /* \"contracts/USDTF.sol\":10021:10028  lots[i] */\n      dup2\n      sload\n      dup2\n      lt\n      tag_221\n      jumpi\n      invalid\n    tag_221:\n      swap1\n      0x00\n      mstore\n      keccak256(0x00, 0x20)\n      swap1\n      0x02\n      mul\n      add\n        /* \"contracts/USDTF.sol\":10021:10035  lots[i].amount */\n      0x00\n      add\n      sload\n        /* \"contracts/USDTF.sol\":10008:10015  amounts */\n      dup7\n        /* \"contracts/USDTF.sol\":10016:10017  i */\n      dup3\n        /* \"contracts/USDTF.sol\":10008:10018  amounts[i] */\n      dup2\n      mload\n      dup2\n      lt\n      tag_223\n      jumpi\n      invalid\n    tag_223:\n      0x20\n      mul\n      0x20\n      add\n      add\n        /* \"contracts/USDTF.sol\":10008:10035  amounts[i] = lots[i].amount */\n      dup2\n      dup2\n      mstore\n      pop\n      pop\n        /* \"contracts/USDTF.sol\":10059:10063  lots */\n      dup3\n        /* \"contracts/USDTF.sol\":10064:10065  i */\n      dup2\n        /* \"contracts/USDTF.sol\":10059:10066  lots[i] */\n      dup2\n      sload\n      dup2\n      lt\n      tag_224\n      jumpi\n      invalid\n    tag_224:\n      swap1\n      0x00\n      mstore\n      keccak256(0x00, 0x20)\n      swap1\n      0x02\n      mul\n      add\n        /* \"contracts/USDTF.sol\":10059:10073  lots[i].expiry */\n      0x01\n      add\n      sload\n        /* \"contracts/USDTF.sol\":10045:10053  expiries */\n      dup6\n        /* \"contracts/USDTF.sol\":10054:10055  i */\n      dup3\n        /* \"contracts/USDTF.sol\":10045:10056  expiries[i] */\n      dup2\n      mload\n      dup2\n      lt\n      tag_226\n      jumpi\n      invalid\n    tag_226:\n      0x20\n      mul\n      0x20\n      add\n      add\n        /* \"contracts/USDTF.sol\":10045:10073  expiries[i] = lots[i].expiry */\n      dup2\n      dup2\n      mstore\n      pop\n      pop\n        /* \"contracts/USDTF.sol\":10104:10108  lots */\n      dup3\n        /* \"contracts/USDTF.sol\":10109:10110  i */\n      dup2\n        /* \"contracts/USDTF.sol\":10104:10111  lots[i] */\n      dup2\n      sload\n      dup2\n      lt\n      tag_227\n      jumpi\n      invalid\n    tag_227:\n      swap1\n      0x00\n      mstore\n      keccak256(0x00, 0x20)\n      swap1\n      0x02\n      mul\n      add\n        /* \"contracts/USDTF.sol\":10104:10118  lots[i].expiry */\n      0x01\n      add\n      sload\n        /* \"contracts/USDTF.sol\":10098:10101  now */\n      timestamp\n        /* \"contracts/USDTF.sol\":10098:10118  now < lots[i].expiry */\n      lt\n        /* \"contracts/USDTF.sol\":10098:10140  now < lots[i].expiry && lots[i].amount > 0 */\n      dup1\n      iszero\n      tag_229\n      jumpi\n      pop\n        /* \"contracts/USDTF.sol\":10139:10140  0 */\n      0x00\n        /* \"contracts/USDTF.sol\":10122:10126  lots */\n      dup4\n        /* \"contracts/USDTF.sol\":10127:10128  i */\n      dup3\n        /* \"contracts/USDTF.sol\":10122:10129  lots[i] */\n      dup2\n      sload\n      dup2\n      lt\n      tag_230\n      jumpi\n      invalid\n    tag_230:\n      swap1\n      0x00\n      mstore\n      keccak256(0x00, 0x20)\n      swap1\n      0x02\n      mul\n      add\n        /* \"contracts/USDTF.sol\":10122:10136  lots[i].amount */\n      0x00\n      add\n      sload\n        /* \"contracts/USDTF.sol\":10122:10140  lots[i].amount > 0 */\n      gt\n        /* \"contracts/USDTF.sol\":10098:10140  now < lots[i].expiry && lots[i].amount > 0 */\n    tag_229:\n        /* \"contracts/USDTF.sol\":10083:10091  isActive */\n      dup5\n        /* \"contracts/USDTF.sol\":10092:10093  i */\n      dup3\n        /* \"contracts/USDTF.sol\":10083:10094  isActive[i] */\n      dup2\n      mload\n      dup2\n      lt\n      tag_232\n      jumpi\n      invalid\n    tag_232:\n      0x20\n      mul\n      0x20\n      add\n      add\n        /* \"contracts/USDTF.sol\":10083:10141  isActive[i] = (now < lots[i].expiry && lots[i].amount > 0) */\n      swap1\n      iszero\n      iszero\n      swap1\n      dup2\n      iszero\n      iszero\n      dup2\n      mstore\n      pop\n      pop\n        /* \"contracts/USDTF.sol\":9969:9972  i++ */\n      dup1\n      dup1\n      0x01\n      add\n      swap2\n      pop\n      pop\n        /* \"contracts/USDTF.sol\":9940:10148  for (uint256 i = 0; i < len; i++) {... */\n      jump(tag_217)\n    tag_218:\n      pop\n        /* \"contracts/USDTF.sol\":10162:10169  indexes */\n      dup6\n        /* \"contracts/USDTF.sol\":10171:10178  amounts */\n      dup6\n        /* \"contracts/USDTF.sol\":10180:10188  expiries */\n      dup6\n        /* \"contracts/USDTF.sol\":10190:10198  isActive */\n      dup6\n        /* \"contracts/USDTF.sol\":10154:10199  return (indexes, amounts, expiries, isActive) */\n      swap6\n      pop\n      swap6\n      pop\n      swap6\n      pop\n      swap6\n      pop\n      pop\n      pop\n        /* \"contracts/USDTF.sol\":9529:10210  function getAllTokenLots(address account) public view returns (... */\n      swap2\n      swap4\n      pop\n      swap2\n      swap4\n      jump\t// out\n        /* \"contracts/USDTF.sol\":3211:3339  function transfer(address to, uint256 amount) public returns (bool) {... */\n    tag_83:\n        /* \"contracts/USDTF.sol\":3273:3277  bool */\n      0x00\n        /* \"contracts/USDTF.sol\":3296:3332  transferFrom(msg.sender, to, amount) */\n      tag_234\n        /* \"contracts/USDTF.sol\":3309:3319  msg.sender */\n      caller\n        /* \"contracts/USDTF.sol\":3321:3323  to */\n      dup5\n        /* \"contracts/USDTF.sol\":3325:3331  amount */\n      dup5\n        /* \"contracts/USDTF.sol\":3296:3308  transferFrom */\n      tag_42\n        /* \"contracts/USDTF.sol\":3296:3332  transferFrom(msg.sender, to, amount) */\n      jump\t// in\n    tag_234:\n        /* \"contracts/USDTF.sol\":3289:3332  return transferFrom(msg.sender, to, amount) */\n      swap1\n      pop\n        /* \"contracts/USDTF.sol\":3211:3339  function transfer(address to, uint256 amount) public returns (bool) {... */\n      swap3\n      swap2\n      pop\n      pop\n      jump\t// out\n        /* \"contracts/USDTF.sol\":5758:6595  function burnExpired(address account) public returns (uint256 burned) {... */\n    tag_87:\n        /* \"contracts/USDTF.sol\":5812:5826  uint256 burned */\n      0x00\n        /* \"contracts/USDTF.sol\":5834:5857  TokenLot[] storage lots */\n      dup1\n        /* \"contracts/USDTF.sol\":5860:5868  holdings */\n      0x06\n        /* \"contracts/USDTF.sol\":5860:5877  holdings[account] */\n      0x00\n        /* \"contracts/USDTF.sol\":5869:5876  account */\n      dup5\n        /* \"contracts/USDTF.sol\":5860:5877  holdings[account] */\n      0xffffffffffffffffffffffffffffffffffffffff\n      and\n      0xffffffffffffffffffffffffffffffffffffffff\n      and\n      dup2\n      mstore\n      0x20\n      add\n      swap1\n      dup2\n      mstore\n      0x20\n      add\n      0x00\n      keccak256\n        /* \"contracts/USDTF.sol\":5834:5877  TokenLot[] storage lots = holdings[account] */\n      swap1\n      pop\n        /* \"contracts/USDTF.sol\":5883:5908  TokenLot[] memory updated */\n      0x60\n        /* \"contracts/USDTF.sol\":5926:5930  lots */\n      dup2\n        /* \"contracts/USDTF.sol\":5926:5937  lots.length */\n      dup1\n      sload\n      swap1\n      pop\n        /* \"contracts/USDTF.sol\":5911:5938  new TokenLot[](lots.length) */\n      mload(0x40)\n      swap1\n      dup1\n      dup3\n      mstore\n      dup1\n      0x20\n      mul\n      0x20\n      add\n      dup3\n      add\n      0x40\n      mstore\n      dup1\n      iszero\n      tag_236\n      jumpi\n      dup2\n      0x20\n      add\n    tag_237:\n      tag_238\n      tag_239\n      jump\t// in\n    tag_238:\n      dup2\n      mstore\n      0x20\n      add\n      swap1\n      0x01\n      swap1\n      sub\n      swap1\n      dup2\n      tag_237\n      jumpi\n      swap1\n      pop\n    tag_236:\n      pop\n        /* \"contracts/USDTF.sol\":5883:5938  TokenLot[] memory updated = new TokenLot[](lots.length) */\n      swap1\n      pop\n        /* \"contracts/USDTF.sol\":5944:5957  uint256 count */\n      0x00\n        /* \"contracts/USDTF.sol\":5960:5961  0 */\n      dup1\n        /* \"contracts/USDTF.sol\":5944:5961  uint256 count = 0 */\n      swap1\n      pop\n        /* \"contracts/USDTF.sol\":5973:5982  uint256 i */\n      0x00\n        /* \"contracts/USDTF.sol\":5985:5986  0 */\n      dup1\n        /* \"contracts/USDTF.sol\":5973:5986  uint256 i = 0 */\n      swap1\n      pop\n        /* \"contracts/USDTF.sol\":5968:6275  for (uint256 i = 0; i < lots.length; i++) {... */\n    tag_240:\n        /* \"contracts/USDTF.sol\":5992:5996  lots */\n      dup4\n        /* \"contracts/USDTF.sol\":5992:6003  lots.length */\n      dup1\n      sload\n      swap1\n      pop\n        /* \"contracts/USDTF.sol\":5988:5989  i */\n      dup2\n        /* \"contracts/USDTF.sol\":5988:6003  i < lots.length */\n      lt\n        /* \"contracts/USDTF.sol\":5968:6275  for (uint256 i = 0; i < lots.length; i++) {... */\n      iszero\n      tag_241\n      jumpi\n        /* \"contracts/USDTF.sol\":6031:6035  lots */\n      dup4\n        /* \"contracts/USDTF.sol\":6036:6037  i */\n      dup2\n        /* \"contracts/USDTF.sol\":6031:6038  lots[i] */\n      dup2\n      sload\n      dup2\n      lt\n      tag_243\n      jumpi\n      invalid\n    tag_243:\n      swap1\n      0x00\n      mstore\n      keccak256(0x00, 0x20)\n      swap1\n      0x02\n      mul\n      add\n        /* \"contracts/USDTF.sol\":6031:6045  lots[i].expiry */\n      0x01\n      add\n      sload\n        /* \"contracts/USDTF.sol\":6024:6027  now */\n      timestamp\n        /* \"contracts/USDTF.sol\":6024:6045  now >= lots[i].expiry */\n      lt\n      iszero\n        /* \"contracts/USDTF.sol\":6024:6067  now >= lots[i].expiry && lots[i].amount > 0 */\n      dup1\n      iszero\n      tag_245\n      jumpi\n      pop\n        /* \"contracts/USDTF.sol\":6066:6067  0 */\n      0x00\n        /* \"contracts/USDTF.sol\":6049:6053  lots */\n      dup5\n        /* \"contracts/USDTF.sol\":6054:6055  i */\n      dup3\n        /* \"contracts/USDTF.sol\":6049:6056  lots[i] */\n      dup2\n      sload\n      dup2\n      lt\n      tag_246\n      jumpi\n      invalid\n    tag_246:\n      swap1\n      0x00\n      mstore\n      keccak256(0x00, 0x20)\n      swap1\n      0x02\n      mul\n      add\n        /* \"contracts/USDTF.sol\":6049:6063  lots[i].amount */\n      0x00\n      add\n      sload\n        /* \"contracts/USDTF.sol\":6049:6067  lots[i].amount > 0 */\n      gt\n        /* \"contracts/USDTF.sol\":6024:6067  now >= lots[i].expiry && lots[i].amount > 0 */\n    tag_245:\n        /* \"contracts/USDTF.sol\":6020:6269  if (now >= lots[i].expiry && lots[i].amount > 0) {... */\n      iszero\n      tag_248\n      jumpi\n        /* \"contracts/USDTF.sol\":6093:6097  lots */\n      dup4\n        /* \"contracts/USDTF.sol\":6098:6099  i */\n      dup2\n        /* \"contracts/USDTF.sol\":6093:6100  lots[i] */\n      dup2\n      sload\n      dup2\n      lt\n      tag_249\n      jumpi\n      invalid\n    tag_249:\n      swap1\n      0x00\n      mstore\n      keccak256(0x00, 0x20)\n      swap1\n      0x02\n      mul\n      add\n        /* \"contracts/USDTF.sol\":6093:6107  lots[i].amount */\n      0x00\n      add\n      sload\n        /* \"contracts/USDTF.sol\":6083:6107  burned += lots[i].amount */\n      dup6\n      add\n      swap5\n      pop\n        /* \"contracts/USDTF.sol\":6020:6269  if (now >= lots[i].expiry && lots[i].amount > 0) {... */\n      jump(tag_251)\n    tag_248:\n        /* \"contracts/USDTF.sol\":6187:6188  0 */\n      0x00\n        /* \"contracts/USDTF.sol\":6170:6174  lots */\n      dup5\n        /* \"contracts/USDTF.sol\":6175:6176  i */\n      dup3\n        /* \"contracts/USDTF.sol\":6170:6177  lots[i] */\n      dup2\n      sload\n      dup2\n      lt\n      tag_252\n      jumpi\n      invalid\n    tag_252:\n      swap1\n      0x00\n      mstore\n      keccak256(0x00, 0x20)\n      swap1\n      0x02\n      mul\n      add\n        /* \"contracts/USDTF.sol\":6170:6184  lots[i].amount */\n      0x00\n      add\n      sload\n        /* \"contracts/USDTF.sol\":6170:6188  lots[i].amount > 0 */\n      gt\n        /* \"contracts/USDTF.sol\":6166:6269  if (lots[i].amount > 0) {... */\n      iszero\n      tag_254\n      jumpi\n        /* \"contracts/USDTF.sol\":6223:6227  lots */\n      dup4\n        /* \"contracts/USDTF.sol\":6228:6229  i */\n      dup2\n        /* \"contracts/USDTF.sol\":6223:6230  lots[i] */\n      dup2\n      sload\n      dup2\n      lt\n      tag_255\n      jumpi\n      invalid\n    tag_255:\n      swap1\n      0x00\n      mstore\n      keccak256(0x00, 0x20)\n      swap1\n      0x02\n      mul\n      add\n        /* \"contracts/USDTF.sol\":6204:6230  updated[count++] = lots[i] */\n      mload(0x40)\n      dup1\n      0x40\n      add\n      0x40\n      mstore\n      swap1\n      dup2\n      0x00\n      dup3\n      add\n      sload\n      dup2\n      mstore\n      0x20\n      add\n      0x01\n      dup3\n      add\n      sload\n      dup2\n      mstore\n      pop\n      pop\n        /* \"contracts/USDTF.sol\":6204:6211  updated */\n      dup4\n        /* \"contracts/USDTF.sol\":6212:6219  count++ */\n      dup4\n      dup1\n      0x01\n      add\n      swap5\n      pop\n        /* \"contracts/USDTF.sol\":6204:6220  updated[count++] */\n      dup2\n      mload\n      dup2\n      lt\n      tag_257\n      jumpi\n      invalid\n    tag_257:\n      0x20\n      mul\n      0x20\n      add\n      add\n        /* \"contracts/USDTF.sol\":6204:6230  updated[count++] = lots[i] */\n      dup2\n      swap1\n      mstore\n      pop\n        /* \"contracts/USDTF.sol\":6166:6269  if (lots[i].amount > 0) {... */\n    tag_254:\n        /* \"contracts/USDTF.sol\":6020:6269  if (now >= lots[i].expiry && lots[i].amount > 0) {... */\n    tag_251:\n        /* \"contracts/USDTF.sol\":6005:6008  i++ */\n      dup1\n      dup1\n      0x01\n      add\n      swap2\n      pop\n      pop\n        /* \"contracts/USDTF.sol\":5968:6275  for (uint256 i = 0; i < lots.length; i++) {... */\n      jump(tag_240)\n    tag_241:\n      pop\n        /* \"contracts/USDTF.sol\":6313:6321  holdings */\n      0x06\n        /* \"contracts/USDTF.sol\":6313:6330  holdings[account] */\n      0x00\n        /* \"contracts/USDTF.sol\":6322:6329  account */\n      dup7\n        /* \"contracts/USDTF.sol\":6313:6330  holdings[account] */\n      0xffffffffffffffffffffffffffffffffffffffff\n      and\n      0xffffffffffffffffffffffffffffffffffffffff\n      and\n      dup2\n      mstore\n      0x20\n      add\n      swap1\n      dup2\n      mstore\n      0x20\n      add\n      0x00\n      keccak256\n      0x00\n        /* \"contracts/USDTF.sol\":6306:6330  delete holdings[account] */\n      tag_258\n      swap2\n      swap1\n      tag_259\n      jump\t// in\n    tag_258:\n        /* \"contracts/USDTF.sol\":6341:6350  uint256 j */\n      0x00\n        /* \"contracts/USDTF.sol\":6353:6354  0 */\n      dup1\n        /* \"contracts/USDTF.sol\":6341:6354  uint256 j = 0 */\n      swap1\n      pop\n        /* \"contracts/USDTF.sol\":6336:6423  for (uint256 j = 0; j < count; j++) {... */\n    tag_260:\n        /* \"contracts/USDTF.sol\":6360:6365  count */\n      dup2\n        /* \"contracts/USDTF.sol\":6356:6357  j */\n      dup2\n        /* \"contracts/USDTF.sol\":6356:6365  j < count */\n      lt\n        /* \"contracts/USDTF.sol\":6336:6423  for (uint256 j = 0; j < count; j++) {... */\n      iszero\n      tag_261\n      jumpi\n        /* \"contracts/USDTF.sol\":6382:6390  holdings */\n      0x06\n        /* \"contracts/USDTF.sol\":6382:6399  holdings[account] */\n      0x00\n        /* \"contracts/USDTF.sol\":6391:6398  account */\n      dup8\n        /* \"contracts/USDTF.sol\":6382:6399  holdings[account] */\n      0xffffffffffffffffffffffffffffffffffffffff\n      and\n      0xffffffffffffffffffffffffffffffffffffffff\n      and\n      dup2\n      mstore\n      0x20\n      add\n      swap1\n      dup2\n      mstore\n      0x20\n      add\n      0x00\n      keccak256\n        /* \"contracts/USDTF.sol\":6405:6412  updated */\n      dup4\n        /* \"contracts/USDTF.sol\":6413:6414  j */\n      dup3\n        /* \"contracts/USDTF.sol\":6405:6415  updated[j] */\n      dup2\n      mload\n      dup2\n      lt\n      tag_263\n      jumpi\n      invalid\n    tag_263:\n      0x20\n      mul\n      0x20\n      add\n      add\n      mload\n        /* \"contracts/USDTF.sol\":6382:6416  holdings[account].push(updated[j]) */\n      swap1\n      dup1\n        /* \"--CODEGEN--\":39:40   */\n      0x01\n        /* \"--CODEGEN--\":33:36   */\n      dup2\n        /* \"--CODEGEN--\":27:37   */\n      sload\n        /* \"--CODEGEN--\":23:41   */\n      add\n        /* \"--CODEGEN--\":57:67   */\n      dup1\n        /* \"--CODEGEN--\":52:55   */\n      dup3\n        /* \"--CODEGEN--\":45:68   */\n      sstore\n        /* \"--CODEGEN--\":79:89   */\n      dup1\n        /* \"--CODEGEN--\":72:89   */\n      swap2\n      pop\n        /* \"--CODEGEN--\":0:93   */\n      pop\n        /* \"contracts/USDTF.sol\":6382:6416  holdings[account].push(updated[j]) */\n      swap1\n      0x01\n      dup3\n      sub\n      swap1\n      0x00\n      mstore\n      keccak256(0x00, 0x20)\n      swap1\n      0x02\n      mul\n      add\n      0x00\n      swap1\n      swap2\n      swap3\n      swap1\n      swap2\n      swap1\n      swap2\n      pop\n      0x00\n      dup3\n      add\n      mload\n      dup2\n      0x00\n      add\n      sstore\n      0x20\n      dup3\n      add\n      mload\n      dup2\n      0x01\n      add\n      sstore\n      pop\n      pop\n      pop\n        /* \"contracts/USDTF.sol\":6367:6370  j++ */\n      dup1\n      dup1\n      0x01\n      add\n      swap2\n      pop\n      pop\n        /* \"contracts/USDTF.sol\":6336:6423  for (uint256 j = 0; j < count; j++) {... */\n      jump(tag_260)\n    tag_261:\n      pop\n        /* \"contracts/USDTF.sol\":6442:6443  0 */\n      0x00\n        /* \"contracts/USDTF.sol\":6433:6439  burned */\n      dup5\n        /* \"contracts/USDTF.sol\":6433:6443  burned > 0 */\n      gt\n        /* \"contracts/USDTF.sol\":6429:6573  if (burned > 0) {... */\n      iszero\n      tag_265\n      jumpi\n        /* \"contracts/USDTF.sol\":6470:6476  burned */\n      dup4\n        /* \"contracts/USDTF.sol\":6455:6466  totalSupply */\n      0x03\n      0x00\n        /* \"contracts/USDTF.sol\":6455:6476  totalSupply -= burned */\n      dup3\n      dup3\n      sload\n      sub\n      swap3\n      pop\n      pop\n      dup2\n      swap1\n      sstore\n      pop\n        /* \"contracts/USDTF.sol\":6498:6505  account */\n      dup5\n        /* \"contracts/USDTF.sol\":6491:6514  Burned(account, burned) */\n      0xffffffffffffffffffffffffffffffffffffffff\n      and\n      0x696de425f79f4a40bc6d2122ca50507f0efbeabbff86a84871b7196ab8ea8df7\n        /* \"contracts/USDTF.sol\":6507:6513  burned */\n      dup6\n        /* \"contracts/USDTF.sol\":6491:6514  Burned(account, burned) */\n      mload(0x40)\n      tag_266\n      swap2\n      swap1\n      jump(tag_38)\n    tag_266:\n      mload(0x40)\n      dup1\n      swap2\n      sub\n      swap1\n      log2\n        /* \"contracts/USDTF.sol\":6555:6556  0 */\n      0x00\n        /* \"contracts/USDTF.sol\":6529:6566  Transfer(account, address(0), burned) */\n      0xffffffffffffffffffffffffffffffffffffffff\n      and\n        /* \"contracts/USDTF.sol\":6538:6545  account */\n      dup6\n        /* \"contracts/USDTF.sol\":6529:6566  Transfer(account, address(0), burned) */\n      0xffffffffffffffffffffffffffffffffffffffff\n      and\n      0xddf252ad1be2c89b69c2b068fc378daa952ba7f163c4a11628f55a4df523b3ef\n        /* \"contracts/USDTF.sol\":6559:6565  burned */\n      dup7\n        /* \"contracts/USDTF.sol\":6529:6566  Transfer(account, address(0), burned) */\n      mload(0x40)\n      tag_267\n      swap2\n      swap1\n      jump(tag_38)\n    tag_267:\n      mload(0x40)\n      dup1\n      swap2\n      sub\n      swap1\n      log3\n        /* \"contracts/USDTF.sol\":6429:6573  if (burned > 0) {... */\n    tag_265:\n        /* \"contracts/USDTF.sol\":6586:6592  burned */\n      dup4\n        /* \"contracts/USDTF.sol\":6579:6592  return burned */\n      swap4\n      pop\n      pop\n      pop\n      pop\n        /* \"contracts/USDTF.sol\":5758:6595  function burnExpired(address account) public returns (uint256 burned) {... */\n      swap2\n      swap1\n      pop\n      jump\t// out\n        /* \"contracts/USDTF.sol\":8758:9523  function getExpiredTokenLots(address account) public view returns (uint256[] memory, uint256[] memory) {... */\n    tag_91:\n        /* \"contracts/USDTF.sol\":8825:8841  uint256[] memory */\n      0x60\n        /* \"contracts/USDTF.sol\":8843:8859  uint256[] memory */\n      dup1\n        /* \"contracts/USDTF.sol\":8871:8894  TokenLot[] storage lots */\n      0x00\n        /* \"contracts/USDTF.sol\":8897:8905  holdings */\n      0x06\n        /* \"contracts/USDTF.sol\":8897:8914  holdings[account] */\n      0x00\n        /* \"contracts/USDTF.sol\":8906:8913  account */\n      dup6\n        /* \"contracts/USDTF.sol\":8897:8914  holdings[account] */\n      0xffffffffffffffffffffffffffffffffffffffff\n      and\n      0xffffffffffffffffffffffffffffffffffffffff\n      and\n      dup2\n      mstore\n      0x20\n      add\n      swap1\n      dup2\n      mstore\n      0x20\n      add\n      0x00\n      keccak256\n        /* \"contracts/USDTF.sol\":8871:8914  TokenLot[] storage lots = holdings[account] */\n      swap1\n      pop\n        /* \"contracts/USDTF.sol\":8924:8937  uint256 count */\n      0x00\n        /* \"contracts/USDTF.sol\":8940:8941  0 */\n      dup1\n        /* \"contracts/USDTF.sol\":8924:8941  uint256 count = 0 */\n      swap1\n      pop\n        /* \"contracts/USDTF.sol\":8956:8965  uint256 i */\n      0x00\n        /* \"contracts/USDTF.sol\":8968:8969  0 */\n      dup1\n        /* \"contracts/USDTF.sol\":8956:8969  uint256 i = 0 */\n      swap1\n      pop\n        /* \"contracts/USDTF.sol\":8951:9074  for (uint256 i = 0; i < lots.length; i++) {... */\n    tag_269:\n        /* \"contracts/USDTF.sol\":8975:8979  lots */\n      dup3\n        /* \"contracts/USDTF.sol\":8975:8986  lots.length */\n      dup1\n      sload\n      swap1\n      pop\n        /* \"contracts/USDTF.sol\":8971:8972  i */\n      dup2\n        /* \"contracts/USDTF.sol\":8971:8986  i < lots.length */\n      lt\n        /* \"contracts/USDTF.sol\":8951:9074  for (uint256 i = 0; i < lots.length; i++) {... */\n      iszero\n      tag_270\n      jumpi\n        /* \"contracts/USDTF.sol\":9018:9022  lots */\n      dup3\n        /* \"contracts/USDTF.sol\":9023:9024  i */\n      dup2\n        /* \"contracts/USDTF.sol\":9018:9025  lots[i] */\n      dup2\n      sload\n      dup2\n      lt\n      tag_272\n      jumpi\n      invalid\n    tag_272:\n      swap1\n      0x00\n      mstore\n      keccak256(0x00, 0x20)\n      swap1\n      0x02\n      mul\n      add\n        /* \"contracts/USDTF.sol\":9018:9032  lots[i].expiry */\n      0x01\n      add\n      sload\n        /* \"contracts/USDTF.sol\":9011:9014  now */\n      timestamp\n        /* \"contracts/USDTF.sol\":9011:9032  now >= lots[i].expiry */\n      lt\n      iszero\n        /* \"contracts/USDTF.sol\":9011:9054  now >= lots[i].expiry && lots[i].amount > 0 */\n      dup1\n      iszero\n      tag_274\n      jumpi\n      pop\n        /* \"contracts/USDTF.sol\":9053:9054  0 */\n      0x00\n        /* \"contracts/USDTF.sol\":9036:9040  lots */\n      dup4\n        /* \"contracts/USDTF.sol\":9041:9042  i */\n      dup3\n        /* \"contracts/USDTF.sol\":9036:9043  lots[i] */\n      dup2\n      sload\n      dup2\n      lt\n      tag_275\n      jumpi\n      invalid\n    tag_275:\n      swap1\n      0x00\n      mstore\n      keccak256(0x00, 0x20)\n      swap1\n      0x02\n      mul\n      add\n        /* \"contracts/USDTF.sol\":9036:9050  lots[i].amount */\n      0x00\n      add\n      sload\n        /* \"contracts/USDTF.sol\":9036:9054  lots[i].amount > 0 */\n      gt\n        /* \"contracts/USDTF.sol\":9011:9054  now >= lots[i].expiry && lots[i].amount > 0 */\n    tag_274:\n        /* \"contracts/USDTF.sol\":9007:9063  if (now >= lots[i].expiry && lots[i].amount > 0) count++ */\n      iszero\n      tag_277\n      jumpi\n        /* \"contracts/USDTF.sol\":9056:9063  count++ */\n      dup2\n      dup1\n      0x01\n      add\n      swap3\n      pop\n      pop\n        /* \"contracts/USDTF.sol\":9007:9063  if (now >= lots[i].expiry && lots[i].amount > 0) count++ */\n    tag_277:\n        /* \"contracts/USDTF.sol\":8988:8991  i++ */\n      dup1\n      dup1\n      0x01\n      add\n      swap2\n      pop\n      pop\n        /* \"contracts/USDTF.sol\":8951:9074  for (uint256 i = 0; i < lots.length; i++) {... */\n      jump(tag_269)\n    tag_270:\n      pop\n        /* \"contracts/USDTF.sol\":9084:9108  uint256[] memory amounts */\n      0x60\n        /* \"contracts/USDTF.sol\":9125:9130  count */\n      dup2\n        /* \"contracts/USDTF.sol\":9111:9131  new uint256[](count) */\n      mload(0x40)\n      swap1\n      dup1\n      dup3\n      mstore\n      dup1\n      0x20\n      mul\n      0x20\n      add\n      dup3\n      add\n      0x40\n      mstore\n      dup1\n      iszero\n      tag_278\n      jumpi\n      dup2\n      0x20\n      add\n        /* \"--CODEGEN--\":29:31   */\n      0x20\n        /* \"--CODEGEN--\":21:27   */\n      dup3\n        /* \"--CODEGEN--\":17:32   */\n      mul\n        /* \"--CODEGEN--\":117:121   */\n      dup1\n        /* \"--CODEGEN--\":105:115   */\n      codesize\n        /* \"--CODEGEN--\":97:103   */\n      dup4\n        /* \"--CODEGEN--\":88:122   */\n      codecopy\n        /* \"--CODEGEN--\":148:152   */\n      dup1\n        /* \"--CODEGEN--\":140:146   */\n      dup3\n        /* \"--CODEGEN--\":136:153   */\n      add\n        /* \"--CODEGEN--\":126:153   */\n      swap2\n      pop\n        /* \"--CODEGEN--\":0:157   */\n      pop\n        /* \"contracts/USDTF.sol\":9111:9131  new uint256[](count) */\n      swap1\n      pop\n    tag_278:\n      pop\n        /* \"contracts/USDTF.sol\":9084:9131  uint256[] memory amounts = new uint256[](count) */\n      swap1\n      pop\n        /* \"contracts/USDTF.sol\":9141:9166  uint256[] memory expiries */\n      0x60\n        /* \"contracts/USDTF.sol\":9183:9188  count */\n      dup3\n        /* \"contracts/USDTF.sol\":9169:9189  new uint256[](count) */\n      mload(0x40)\n      swap1\n      dup1\n      dup3\n      mstore\n      dup1\n      0x20\n      mul\n      0x20\n      add\n      dup3\n      add\n      0x40\n      mstore\n      dup1\n      iszero\n      tag_279\n      jumpi\n      dup2\n      0x20\n      add\n        /* \"--CODEGEN--\":29:31   */\n      0x20\n        /* \"--CODEGEN--\":21:27   */\n      dup3\n        /* \"--CODEGEN--\":17:32   */\n      mul\n        /* \"--CODEGEN--\":117:121   */\n      dup1\n        /* \"--CODEGEN--\":105:115   */\n      codesize\n        /* \"--CODEGEN--\":97:103   */\n      dup4\n        /* \"--CODEGEN--\":88:122   */\n      codecopy\n        /* \"--CODEGEN--\":148:152   */\n      dup1\n        /* \"--CODEGEN--\":140:146   */\n      dup3\n        /* \"--CODEGEN--\":136:153   */\n      add\n        /* \"--CODEGEN--\":126:153   */\n      swap2\n      pop\n        /* \"--CODEGEN--\":0:157   */\n      pop\n        /* \"contracts/USDTF.sol\":9169:9189  new uint256[](count) */\n      swap1\n      pop\n    tag_279:\n      pop\n        /* \"contracts/USDTF.sol\":9141:9189  uint256[] memory expiries = new uint256[](count) */\n      swap1\n      pop\n        /* \"contracts/USDTF.sol\":9199:9212  uint256 index */\n      0x00\n        /* \"contracts/USDTF.sol\":9215:9216  0 */\n      dup1\n        /* \"contracts/USDTF.sol\":9199:9216  uint256 index = 0 */\n      swap1\n      pop\n        /* \"contracts/USDTF.sol\":9231:9240  uint256 i */\n      0x00\n        /* \"contracts/USDTF.sol\":9243:9244  0 */\n      dup1\n        /* \"contracts/USDTF.sol\":9231:9244  uint256 i = 0 */\n      swap1\n      pop\n        /* \"contracts/USDTF.sol\":9226:9480  for (uint256 i = 0; i < lots.length; i++) {... */\n    tag_280:\n        /* \"contracts/USDTF.sol\":9250:9254  lots */\n      dup6\n        /* \"contracts/USDTF.sol\":9250:9261  lots.length */\n      dup1\n      sload\n      swap1\n      pop\n        /* \"contracts/USDTF.sol\":9246:9247  i */\n      dup2\n        /* \"contracts/USDTF.sol\":9246:9261  i < lots.length */\n      lt\n        /* \"contracts/USDTF.sol\":9226:9480  for (uint256 i = 0; i < lots.length; i++) {... */\n      iszero\n      tag_281\n      jumpi\n        /* \"contracts/USDTF.sol\":9293:9297  lots */\n      dup6\n        /* \"contracts/USDTF.sol\":9298:9299  i */\n      dup2\n        /* \"contracts/USDTF.sol\":9293:9300  lots[i] */\n      dup2\n      sload\n      dup2\n      lt\n      tag_283\n      jumpi\n      invalid\n    tag_283:\n      swap1\n      0x00\n      mstore\n      keccak256(0x00, 0x20)\n      swap1\n      0x02\n      mul\n      add\n        /* \"contracts/USDTF.sol\":9293:9307  lots[i].expiry */\n      0x01\n      add\n      sload\n        /* \"contracts/USDTF.sol\":9286:9289  now */\n      timestamp\n        /* \"contracts/USDTF.sol\":9286:9307  now >= lots[i].expiry */\n      lt\n      iszero\n        /* \"contracts/USDTF.sol\":9286:9329  now >= lots[i].expiry && lots[i].amount > 0 */\n      dup1\n      iszero\n      tag_285\n      jumpi\n      pop\n        /* \"contracts/USDTF.sol\":9328:9329  0 */\n      0x00\n        /* \"contracts/USDTF.sol\":9311:9315  lots */\n      dup7\n        /* \"contracts/USDTF.sol\":9316:9317  i */\n      dup3\n        /* \"contracts/USDTF.sol\":9311:9318  lots[i] */\n      dup2\n      sload\n      dup2\n      lt\n      tag_286\n      jumpi\n      invalid\n    tag_286:\n      swap1\n      0x00\n      mstore\n      keccak256(0x00, 0x20)\n      swap1\n      0x02\n      mul\n      add\n        /* \"contracts/USDTF.sol\":9311:9325  lots[i].amount */\n      0x00\n      add\n      sload\n        /* \"contracts/USDTF.sol\":9311:9329  lots[i].amount > 0 */\n      gt\n        /* \"contracts/USDTF.sol\":9286:9329  now >= lots[i].expiry && lots[i].amount > 0 */\n    tag_285:\n        /* \"contracts/USDTF.sol\":9282:9470  if (now >= lots[i].expiry && lots[i].amount > 0) {... */\n      iszero\n      tag_288\n      jumpi\n        /* \"contracts/USDTF.sol\":9366:9370  lots */\n      dup6\n        /* \"contracts/USDTF.sol\":9371:9372  i */\n      dup2\n        /* \"contracts/USDTF.sol\":9366:9373  lots[i] */\n      dup2\n      sload\n      dup2\n      lt\n      tag_289\n      jumpi\n      invalid\n    tag_289:\n      swap1\n      0x00\n      mstore\n      keccak256(0x00, 0x20)\n      swap1\n      0x02\n      mul\n      add\n        /* \"contracts/USDTF.sol\":9366:9380  lots[i].amount */\n      0x00\n      add\n      sload\n        /* \"contracts/USDTF.sol\":9349:9356  amounts */\n      dup5\n        /* \"contracts/USDTF.sol\":9357:9362  index */\n      dup4\n        /* \"contracts/USDTF.sol\":9349:9363  amounts[index] */\n      dup2\n      mload\n      dup2\n      lt\n      tag_291\n      jumpi\n      invalid\n    tag_291:\n      0x20\n      mul\n      0x20\n      add\n      add\n        /* \"contracts/USDTF.sol\":9349:9380  amounts[index] = lots[i].amount */\n      dup2\n      dup2\n      mstore\n      pop\n      pop\n        /* \"contracts/USDTF.sol\":9416:9420  lots */\n      dup6\n        /* \"contracts/USDTF.sol\":9421:9422  i */\n      dup2\n        /* \"contracts/USDTF.sol\":9416:9423  lots[i] */\n      dup2\n      sload\n      dup2\n      lt\n      tag_292\n      jumpi\n      invalid\n    tag_292:\n      swap1\n      0x00\n      mstore\n      keccak256(0x00, 0x20)\n      swap1\n      0x02\n      mul\n      add\n        /* \"contracts/USDTF.sol\":9416:9430  lots[i].expiry */\n      0x01\n      add\n      sload\n        /* \"contracts/USDTF.sol\":9398:9406  expiries */\n      dup4\n        /* \"contracts/USDTF.sol\":9407:9412  index */\n      dup4\n        /* \"contracts/USDTF.sol\":9398:9413  expiries[index] */\n      dup2\n      mload\n      dup2\n      lt\n      tag_294\n      jumpi\n      invalid\n    tag_294:\n      0x20\n      mul\n      0x20\n      add\n      add\n        /* \"contracts/USDTF.sol\":9398:9430  expiries[index] = lots[i].expiry */\n      dup2\n      dup2\n      mstore\n      pop\n      pop\n        /* \"contracts/USDTF.sol\":9448:9455  index++ */\n      dup2\n      dup1\n      0x01\n      add\n      swap3\n      pop\n      pop\n        /* \"contracts/USDTF.sol\":9282:9470  if (now >= lots[i].expiry && lots[i].amount > 0) {... */\n    tag_288:\n        /* \"contracts/USDTF.sol\":9263:9266  i++ */\n      dup1\n      dup1\n      0x01\n      add\n      swap2\n      pop\n      pop\n        /* \"contracts/USDTF.sol\":9226:9480  for (uint256 i = 0; i < lots.length; i++) {... */\n      jump(tag_280)\n    tag_281:\n      pop\n        /* \"contracts/USDTF.sol\":9498:9505  amounts */\n      dup3\n        /* \"contracts/USDTF.sol\":9507:9515  expiries */\n      dup3\n        /* \"contracts/USDTF.sol\":9490:9516  return (amounts, expiries) */\n      swap7\n      pop\n      swap7\n      pop\n      pop\n      pop\n      pop\n      pop\n      pop\n        /* \"contracts/USDTF.sol\":8758:9523  function getExpiredTokenLots(address account) public view returns (uint256[] memory, uint256[] memory) {... */\n      swap2\n      pop\n      swap2\n      jump\t// out\n        /* \"contracts/USDTF.sol\":5351:5752  function flashMint(address to, uint256 amount, uint256 expiryMinutes) public onlyOwner {... */\n    tag_96:\n        /* \"contracts/USDTF.sol\":2087:2092  owner */\n      0x04\n      0x00\n      swap1\n      sload\n      swap1\n      0x0100\n      exp\n      swap1\n      div\n      0xffffffffffffffffffffffffffffffffffffffff\n      and\n        /* \"contracts/USDTF.sol\":2073:2092  msg.sender == owner */\n      0xffffffffffffffffffffffffffffffffffffffff\n      and\n        /* \"contracts/USDTF.sol\":2073:2083  msg.sender */\n      caller\n        /* \"contracts/USDTF.sol\":2073:2092  msg.sender == owner */\n      0xffffffffffffffffffffffffffffffffffffffff\n      and\n      eq\n        /* \"contracts/USDTF.sol\":2065:2106  require(msg.sender == owner, \"Not owner\") */\n      tag_296\n      jumpi\n      mload(0x40)\n      0x08c379a000000000000000000000000000000000000000000000000000000000\n      dup2\n      mstore\n      0x04\n      add\n      tag_297\n      swap1\n      jump(tag_187)\n    tag_297:\n      mload(0x40)\n      dup1\n      swap2\n      sub\n      swap1\n      revert\n    tag_296:\n        /* \"contracts/USDTF.sol\":5448:5463  burnExpired(to) */\n      tag_299\n        /* \"contracts/USDTF.sol\":5460:5462  to */\n      dup4\n        /* \"contracts/USDTF.sol\":5448:5459  burnExpired */\n      tag_87\n        /* \"contracts/USDTF.sol\":5448:5463  burnExpired(to) */\n      jump\t// in\n    tag_299:\n      pop\n        /* \"contracts/USDTF.sol\":5495:5496  0 */\n      0x00\n        /* \"contracts/USDTF.sol\":5481:5497  to != address(0) */\n      0xffffffffffffffffffffffffffffffffffffffff\n      and\n        /* \"contracts/USDTF.sol\":5481:5483  to */\n      dup4\n        /* \"contracts/USDTF.sol\":5481:5497  to != address(0) */\n      0xffffffffffffffffffffffffffffffffffffffff\n      and\n      eq\n      iszero\n        /* \"contracts/USDTF.sol\":5473:5517  require(to != address(0), \"Invalid address\") */\n      tag_300\n      jumpi\n      mload(0x40)\n      0x08c379a000000000000000000000000000000000000000000000000000000000\n      dup2\n      mstore\n      0x04\n      add\n      tag_301\n      swap1\n      jump(tag_192)\n    tag_301:\n      mload(0x40)\n      dup1\n      swap2\n      sub\n      swap1\n      revert\n    tag_300:\n        /* \"contracts/USDTF.sol\":5527:5541  uint256 expiry */\n      0x00\n        /* \"contracts/USDTF.sol\":5567:5569  60 */\n      0x3c\n        /* \"contracts/USDTF.sol\":5551:5564  expiryMinutes */\n      dup3\n        /* \"contracts/USDTF.sol\":5551:5569  expiryMinutes * 60 */\n      mul\n        /* \"contracts/USDTF.sol\":5544:5547  now */\n      timestamp\n        /* \"contracts/USDTF.sol\":5544:5570  now + (expiryMinutes * 60) */\n      add\n        /* \"contracts/USDTF.sol\":5527:5570  uint256 expiry = now + (expiryMinutes * 60) */\n      swap1\n      pop\n        /* \"contracts/USDTF.sol\":5580:5588  holdings */\n      0x06\n        /* \"contracts/USDTF.sol\":5580:5592  holdings[to] */\n      0x00\n        /* \"contracts/USDTF.sol\":5589:5591  to */\n      dup6\n        /* \"contracts/USDTF.sol\":5580:5592  holdings[to] */\n      0xffffffffffffffffffffffffffffffffffffffff\n      and\n      0xffffffffffffffffffffffffffffffffffffffff\n      and\n      dup2\n      mstore\n      0x20\n      add\n      swap1\n      dup2\n      mstore\n      0x20\n      add\n      0x00\n      keccak256\n        /* \"contracts/USDTF.sol\":5598:5622  TokenLot(amount, expiry) */\n      mload(0x40)\n      dup1\n      0x40\n      add\n      0x40\n      mstore\n      dup1\n        /* \"contracts/USDTF.sol\":5607:5613  amount */\n      dup6\n        /* \"contracts/USDTF.sol\":5598:5622  TokenLot(amount, expiry) */\n      dup2\n      mstore\n      0x20\n      add\n        /* \"contracts/USDTF.sol\":5615:5621  expiry */\n      dup4\n        /* \"contracts/USDTF.sol\":5598:5622  TokenLot(amount, expiry) */\n      dup2\n      mstore\n      pop\n        /* \"contracts/USDTF.sol\":5580:5623  holdings[to].push(TokenLot(amount, expiry)) */\n      swap1\n      dup1\n        /* \"--CODEGEN--\":39:40   */\n      0x01\n        /* \"--CODEGEN--\":33:36   */\n      dup2\n        /* \"--CODEGEN--\":27:37   */\n      sload\n        /* \"--CODEGEN--\":23:41   */\n      add\n        /* \"--CODEGEN--\":57:67   */\n      dup1\n        /* \"--CODEGEN--\":52:55   */\n      dup3\n        /* \"--CODEGEN--\":45:68   */\n      sstore\n        /* \"--CODEGEN--\":79:89   */\n      dup1\n        /* \"--CODEGEN--\":72:89   */\n      swap2\n      pop\n        /* \"--CODEGEN--\":0:93   */\n      pop\n        /* \"contracts/USDTF.sol\":5580:5623  holdings[to].push(TokenLot(amount, expiry)) */\n      swap1\n      0x01\n      dup3\n      sub\n      swap1\n      0x00\n      mstore\n      keccak256(0x00, 0x20)\n      swap1\n      0x02\n      mul\n      add\n      0x00\n      swap1\n      swap2\n      swap3\n      swap1\n      swap2\n      swap1\n      swap2\n      pop\n      0x00\n      dup3\n      add\n      mload\n      dup2\n      0x00\n      add\n      sstore\n      0x20\n      dup3\n      add\n      mload\n      dup2\n      0x01\n      add\n      sstore\n      pop\n      pop\n      pop\n        /* \"contracts/USDTF.sol\":5648:5654  amount */\n      dup3\n        /* \"contracts/USDTF.sol\":5633:5644  totalSupply */\n      0x03\n      0x00\n        /* \"contracts/USDTF.sol\":5633:5654  totalSupply += amount */\n      dup3\n      dup3\n      sload\n      add\n      swap3\n      pop\n      pop\n      dup2\n      swap1\n      sstore\n      pop\n        /* \"contracts/USDTF.sol\":5679:5681  to */\n      dup4\n        /* \"contracts/USDTF.sol\":5669:5698  FlashMint(to, amount, expiry) */\n      0xffffffffffffffffffffffffffffffffffffffff\n      and\n      0xc1d5a9a0a7cdddbc3db5b9aeffbc9fa1ba5f7275fbd46d9de20ec463f8b8cfbd\n        /* \"contracts/USDTF.sol\":5683:5689  amount */\n      dup5\n        /* \"contracts/USDTF.sol\":5691:5697  expiry */\n      dup4\n        /* \"contracts/USDTF.sol\":5669:5698  FlashMint(to, amount, expiry) */\n      mload(0x40)\n      tag_303\n      swap3\n      swap2\n      swap1\n      jump(tag_72)\n    tag_303:\n      mload(0x40)\n      dup1\n      swap2\n      sub\n      swap1\n      log2\n        /* \"contracts/USDTF.sol\":5734:5736  to */\n      dup4\n        /* \"contracts/USDTF.sol\":5713:5745  Transfer(address(0), to, amount) */\n      0xffffffffffffffffffffffffffffffffffffffff\n      and\n        /* \"contracts/USDTF.sol\":5730:5731  0 */\n      0x00\n        /* \"contracts/USDTF.sol\":5713:5745  Transfer(address(0), to, amount) */\n      0xffffffffffffffffffffffffffffffffffffffff\n      and\n      0xddf252ad1be2c89b69c2b068fc378daa952ba7f163c4a11628f55a4df523b3ef\n        /* \"contracts/USDTF.sol\":5738:5744  amount */\n      dup6\n        /* \"contracts/USDTF.sol\":5713:5745  Transfer(address(0), to, amount) */\n      mload(0x40)\n      tag_304\n      swap2\n      swap1\n      jump(tag_38)\n    tag_304:\n      mload(0x40)\n      dup1\n      swap2\n      sub\n      swap1\n      log3\n        /* \"contracts/USDTF.sol\":2116:2117  _ */\n      pop\n        /* \"contracts/USDTF.sol\":5351:5752  function flashMint(address to, uint256 amount, uint256 expiryMinutes) public onlyOwner {... */\n      pop\n      pop\n      pop\n      jump\t// out\n        /* \"contracts/USDTF.sol\":7990:8752  function getActiveTokenLots(address account) public view returns (uint256[] memory, uint256[] memory) {... */\n    tag_99:\n        /* \"contracts/USDTF.sol\":8056:8072  uint256[] memory */\n      0x60\n        /* \"contracts/USDTF.sol\":8074:8090  uint256[] memory */\n      dup1\n        /* \"contracts/USDTF.sol\":8102:8125  TokenLot[] storage lots */\n      0x00\n        /* \"contracts/USDTF.sol\":8128:8136  holdings */\n      0x06\n        /* \"contracts/USDTF.sol\":8128:8145  holdings[account] */\n      0x00\n        /* \"contracts/USDTF.sol\":8137:8144  account */\n      dup6\n        /* \"contracts/USDTF.sol\":8128:8145  holdings[account] */\n      0xffffffffffffffffffffffffffffffffffffffff\n      and\n      0xffffffffffffffffffffffffffffffffffffffff\n      and\n      dup2\n      mstore\n      0x20\n      add\n      swap1\n      dup2\n      mstore\n      0x20\n      add\n      0x00\n      keccak256\n        /* \"contracts/USDTF.sol\":8102:8145  TokenLot[] storage lots = holdings[account] */\n      swap1\n      pop\n        /* \"contracts/USDTF.sol\":8155:8168  uint256 count */\n      0x00\n        /* \"contracts/USDTF.sol\":8171:8172  0 */\n      dup1\n        /* \"contracts/USDTF.sol\":8155:8172  uint256 count = 0 */\n      swap1\n      pop\n        /* \"contracts/USDTF.sol\":8187:8196  uint256 i */\n      0x00\n        /* \"contracts/USDTF.sol\":8199:8200  0 */\n      dup1\n        /* \"contracts/USDTF.sol\":8187:8200  uint256 i = 0 */\n      swap1\n      pop\n        /* \"contracts/USDTF.sol\":8182:8304  for (uint256 i = 0; i < lots.length; i++) {... */\n    tag_306:\n        /* \"contracts/USDTF.sol\":8206:8210  lots */\n      dup3\n        /* \"contracts/USDTF.sol\":8206:8217  lots.length */\n      dup1\n      sload\n      swap1\n      pop\n        /* \"contracts/USDTF.sol\":8202:8203  i */\n      dup2\n        /* \"contracts/USDTF.sol\":8202:8217  i < lots.length */\n      lt\n        /* \"contracts/USDTF.sol\":8182:8304  for (uint256 i = 0; i < lots.length; i++) {... */\n      iszero\n      tag_307\n      jumpi\n        /* \"contracts/USDTF.sol\":8248:8252  lots */\n      dup3\n        /* \"contracts/USDTF.sol\":8253:8254  i */\n      dup2\n        /* \"contracts/USDTF.sol\":8248:8255  lots[i] */\n      dup2\n      sload\n      dup2\n      lt\n      tag_309\n      jumpi\n      invalid\n    tag_309:\n      swap1\n      0x00\n      mstore\n      keccak256(0x00, 0x20)\n      swap1\n      0x02\n      mul\n      add\n        /* \"contracts/USDTF.sol\":8248:8262  lots[i].expiry */\n      0x01\n      add\n      sload\n        /* \"contracts/USDTF.sol\":8242:8245  now */\n      timestamp\n        /* \"contracts/USDTF.sol\":8242:8262  now < lots[i].expiry */\n      lt\n        /* \"contracts/USDTF.sol\":8242:8284  now < lots[i].expiry && lots[i].amount > 0 */\n      dup1\n      iszero\n      tag_311\n      jumpi\n      pop\n        /* \"contracts/USDTF.sol\":8283:8284  0 */\n      0x00\n        /* \"contracts/USDTF.sol\":8266:8270  lots */\n      dup4\n        /* \"contracts/USDTF.sol\":8271:8272  i */\n      dup3\n        /* \"contracts/USDTF.sol\":8266:8273  lots[i] */\n      dup2\n      sload\n      dup2\n      lt\n      tag_312\n      jumpi\n      invalid\n    tag_312:\n      swap1\n      0x00\n      mstore\n      keccak256(0x00, 0x20)\n      swap1\n      0x02\n      mul\n      add\n        /* \"contracts/USDTF.sol\":8266:8280  lots[i].amount */\n      0x00\n      add\n      sload\n        /* \"contracts/USDTF.sol\":8266:8284  lots[i].amount > 0 */\n      gt\n        /* \"contracts/USDTF.sol\":8242:8284  now < lots[i].expiry && lots[i].amount > 0 */\n    tag_311:\n        /* \"contracts/USDTF.sol\":8238:8293  if (now < lots[i].expiry && lots[i].amount > 0) count++ */\n      iszero\n      tag_314\n      jumpi\n        /* \"contracts/USDTF.sol\":8286:8293  count++ */\n      dup2\n      dup1\n      0x01\n      add\n      swap3\n      pop\n      pop\n        /* \"contracts/USDTF.sol\":8238:8293  if (now < lots[i].expiry && lots[i].amount > 0) count++ */\n    tag_314:\n        /* \"contracts/USDTF.sol\":8219:8222  i++ */\n      dup1\n      dup1\n      0x01\n      add\n      swap2\n      pop\n      pop\n        /* \"contracts/USDTF.sol\":8182:8304  for (uint256 i = 0; i < lots.length; i++) {... */\n      jump(tag_306)\n    tag_307:\n      pop\n        /* \"contracts/USDTF.sol\":8314:8338  uint256[] memory amounts */\n      0x60\n        /* \"contracts/USDTF.sol\":8355:8360  count */\n      dup2\n        /* \"contracts/USDTF.sol\":8341:8361  new uint256[](count) */\n      mload(0x40)\n      swap1\n      dup1\n      dup3\n      mstore\n      dup1\n      0x20\n      mul\n      0x20\n      add\n      dup3\n      add\n      0x40\n      mstore\n      dup1\n      iszero\n      tag_315\n      jumpi\n      dup2\n      0x20\n      add\n        /* \"--CODEGEN--\":29:31   */\n      0x20\n        /* \"--CODEGEN--\":21:27   */\n      dup3\n        /* \"--CODEGEN--\":17:32   */\n      mul\n        /* \"--CODEGEN--\":117:121   */\n      dup1\n        /* \"--CODEGEN--\":105:115   */\n      codesize\n        /* \"--CODEGEN--\":97:103   */\n      dup4\n        /* \"--CODEGEN--\":88:122   */\n      codecopy\n        /* \"--CODEGEN--\":148:152   */\n      dup1\n        /* \"--CODEGEN--\":140:146   */\n      dup3\n        /* \"--CODEGEN--\":136:153   */\n      add\n        /* \"--CODEGEN--\":126:153   */\n      swap2\n      pop\n        /* \"--CODEGEN--\":0:157   */\n      pop\n        /* \"contracts/USDTF.sol\":8341:8361  new uint256[](count) */\n      swap1\n      pop\n    tag_315:\n      pop\n        /* \"contracts/USDTF.sol\":8314:8361  uint256[] memory amounts = new uint256[](count) */\n      swap1\n      pop\n        /* \"contracts/USDTF.sol\":8371:8396  uint256[] memory expiries */\n      0x60\n        /* \"contracts/USDTF.sol\":8413:8418  count */\n      dup3\n        /* \"contracts/USDTF.sol\":8399:8419  new uint256[](count) */\n      mload(0x40)\n      swap1\n      dup1\n      dup3\n      mstore\n      dup1\n      0x20\n      mul\n      0x20\n      add\n      dup3\n      add\n      0x40\n      mstore\n      dup1\n      iszero\n      tag_316\n      jumpi\n      dup2\n      0x20\n      add\n        /* \"--CODEGEN--\":29:31   */\n      0x20\n        /* \"--CODEGEN--\":21:27   */\n      dup3\n        /* \"--CODEGEN--\":17:32   */\n      mul\n        /* \"--CODEGEN--\":117:121   */\n      dup1\n        /* \"--CODEGEN--\":105:115   */\n      codesize\n        /* \"--CODEGEN--\":97:103   */\n      dup4\n        /* \"--CODEGEN--\":88:122   */\n      codecopy\n        /* \"--CODEGEN--\":148:152   */\n      dup1\n        /* \"--CODEGEN--\":140:146   */\n      dup3\n        /* \"--CODEGEN--\":136:153   */\n      add\n        /* \"--CODEGEN--\":126:153   */\n      swap2\n      pop\n        /* \"--CODEGEN--\":0:157   */\n      pop\n        /* \"contracts/USDTF.sol\":8399:8419  new uint256[](count) */\n      swap1\n      pop\n    tag_316:\n      pop\n        /* \"contracts/USDTF.sol\":8371:8419  uint256[] memory expiries = new uint256[](count) */\n      swap1\n      pop\n        /* \"contracts/USDTF.sol\":8429:8442  uint256 index */\n      0x00\n        /* \"contracts/USDTF.sol\":8445:8446  0 */\n      dup1\n        /* \"contracts/USDTF.sol\":8429:8446  uint256 index = 0 */\n      swap1\n      pop\n        /* \"contracts/USDTF.sol\":8461:8470  uint256 i */\n      0x00\n        /* \"contracts/USDTF.sol\":8473:8474  0 */\n      dup1\n        /* \"contracts/USDTF.sol\":8461:8474  uint256 i = 0 */\n      swap1\n      pop\n        /* \"contracts/USDTF.sol\":8456:8709  for (uint256 i = 0; i < lots.length; i++) {... */\n    tag_317:\n        /* \"contracts/USDTF.sol\":8480:8484  lots */\n      dup6\n        /* \"contracts/USDTF.sol\":8480:8491  lots.length */\n      dup1\n      sload\n      swap1\n      pop\n        /* \"contracts/USDTF.sol\":8476:8477  i */\n      dup2\n        /* \"contracts/USDTF.sol\":8476:8491  i < lots.length */\n      lt\n        /* \"contracts/USDTF.sol\":8456:8709  for (uint256 i = 0; i < lots.length; i++) {... */\n      iszero\n      tag_318\n      jumpi\n        /* \"contracts/USDTF.sol\":8522:8526  lots */\n      dup6\n        /* \"contracts/USDTF.sol\":8527:8528  i */\n      dup2\n        /* \"contracts/USDTF.sol\":8522:8529  lots[i] */\n      dup2\n      sload\n      dup2\n      lt\n      tag_320\n      jumpi\n      invalid\n    tag_320:\n      swap1\n      0x00\n      mstore\n      keccak256(0x00, 0x20)\n      swap1\n      0x02\n      mul\n      add\n        /* \"contracts/USDTF.sol\":8522:8536  lots[i].expiry */\n      0x01\n      add\n      sload\n        /* \"contracts/USDTF.sol\":8516:8519  now */\n      timestamp\n        /* \"contracts/USDTF.sol\":8516:8536  now < lots[i].expiry */\n      lt\n        /* \"contracts/USDTF.sol\":8516:8558  now < lots[i].expiry && lots[i].amount > 0 */\n      dup1\n      iszero\n      tag_322\n      jumpi\n      pop\n        /* \"contracts/USDTF.sol\":8557:8558  0 */\n      0x00\n        /* \"contracts/USDTF.sol\":8540:8544  lots */\n      dup7\n        /* \"contracts/USDTF.sol\":8545:8546  i */\n      dup3\n        /* \"contracts/USDTF.sol\":8540:8547  lots[i] */\n      dup2\n      sload\n      dup2\n      lt\n      tag_323\n      jumpi\n      invalid\n    tag_323:\n      swap1\n      0x00\n      mstore\n      keccak256(0x00, 0x20)\n      swap1\n      0x02\n      mul\n      add\n        /* \"contracts/USDTF.sol\":8540:8554  lots[i].amount */\n      0x00\n      add\n      sload\n        /* \"contracts/USDTF.sol\":8540:8558  lots[i].amount > 0 */\n      gt\n        /* \"contracts/USDTF.sol\":8516:8558  now < lots[i].expiry && lots[i].amount > 0 */\n    tag_322:\n        /* \"contracts/USDTF.sol\":8512:8699  if (now < lots[i].expiry && lots[i].amount > 0) {... */\n      iszero\n      tag_325\n      jumpi\n        /* \"contracts/USDTF.sol\":8595:8599  lots */\n      dup6\n        /* \"contracts/USDTF.sol\":8600:8601  i */\n      dup2\n        /* \"contracts/USDTF.sol\":8595:8602  lots[i] */\n      dup2\n      sload\n      dup2\n      lt\n      tag_326\n      jumpi\n      invalid\n    tag_326:\n      swap1\n      0x00\n      mstore\n      keccak256(0x00, 0x20)\n      swap1\n      0x02\n      mul\n      add\n        /* \"contracts/USDTF.sol\":8595:8609  lots[i].amount */\n      0x00\n      add\n      sload\n        /* \"contracts/USDTF.sol\":8578:8585  amounts */\n      dup5\n        /* \"contracts/USDTF.sol\":8586:8591  index */\n      dup4\n        /* \"contracts/USDTF.sol\":8578:8592  amounts[index] */\n      dup2\n      mload\n      dup2\n      lt\n      tag_328\n      jumpi\n      invalid\n    tag_328:\n      0x20\n      mul\n      0x20\n      add\n      add\n        /* \"contracts/USDTF.sol\":8578:8609  amounts[index] = lots[i].amount */\n      dup2\n      dup2\n      mstore\n      pop\n      pop\n        /* \"contracts/USDTF.sol\":8645:8649  lots */\n      dup6\n        /* \"contracts/USDTF.sol\":8650:8651  i */\n      dup2\n        /* \"contracts/USDTF.sol\":8645:8652  lots[i] */\n      dup2\n      sload\n      dup2\n      lt\n      tag_329\n      jumpi\n      invalid\n    tag_329:\n      swap1\n      0x00\n      mstore\n      keccak256(0x00, 0x20)\n      swap1\n      0x02\n      mul\n      add\n        /* \"contracts/USDTF.sol\":8645:8659  lots[i].expiry */\n      0x01\n      add\n      sload\n        /* \"contracts/USDTF.sol\":8627:8635  expiries */\n      dup4\n        /* \"contracts/USDTF.sol\":8636:8641  index */\n      dup4\n        /* \"contracts/USDTF.sol\":8627:8642  expiries[index] */\n      dup2\n      mload\n      dup2\n      lt\n      tag_331\n      jumpi\n      invalid\n    tag_331:\n      0x20\n      mul\n      0x20\n      add\n      add\n        /* \"contracts/USDTF.sol\":8627:8659  expiries[index] = lots[i].expiry */\n      dup2\n      dup2\n      mstore\n      pop\n      pop\n        /* \"contracts/USDTF.sol\":8677:8684  index++ */\n      dup2\n      dup1\n      0x01\n      add\n      swap3\n      pop\n      pop\n        /* \"contracts/USDTF.sol\":8512:8699  if (now < lots[i].expiry && lots[i].amount > 0) {... */\n    tag_325:\n        /* \"contracts/USDTF.sol\":8493:8496  i++ */\n      dup1\n      dup1\n      0x01\n      add\n      swap2\n      pop\n      pop\n        /* \"contracts/USDTF.sol\":8456:8709  for (uint256 i = 0; i < lots.length; i++) {... */\n      jump(tag_317)\n    tag_318:\n      pop\n        /* \"contracts/USDTF.sol\":8727:8734  amounts */\n      dup3\n        /* \"contracts/USDTF.sol\":8736:8744  expiries */\n      dup3\n        /* \"contracts/USDTF.sol\":8719:8745  return (amounts, expiries) */\n      swap7\n      pop\n      swap7\n      pop\n      pop\n      pop\n      pop\n      pop\n      pop\n        /* \"contracts/USDTF.sol\":7990:8752  function getActiveTokenLots(address account) public view returns (uint256[] memory, uint256[] memory) {... */\n      swap2\n      pop\n      swap2\n      jump\t// out\n        /* \"contracts/USDTF.sol\":1572:1636  mapping(address => mapping(address => uint256)) public allowance */\n    tag_104:\n      mstore(0x20, 0x07)\n      dup2\n      0x00\n      mstore\n      mstore(0x20, keccak256(0x00, 0x40))\n      dup1\n      0x00\n      mstore\n      keccak256(0x00, 0x40)\n      0x00\n      swap2\n      pop\n      swap2\n      pop\n      pop\n      sload\n      dup2\n      jump\t// out\n        /* \"contracts/USDTF.sol\":1158:10516  contract USDTF {... */\n    tag_239:\n      mload(0x40)\n      dup1\n      0x40\n      add\n      0x40\n      mstore\n      dup1\n      0x00\n      dup2\n      mstore\n      0x20\n      add\n      0x00\n      dup2\n      mstore\n      pop\n      swap1\n      jump\t// out\n    tag_259:\n      pop\n      dup1\n      sload\n      0x00\n      dup3\n      sstore\n      0x02\n      mul\n      swap1\n      0x00\n      mstore\n      keccak256(0x00, 0x20)\n      swap1\n      dup2\n      add\n      swap1\n      tag_333\n      swap2\n      swap1\n      tag_334\n      jump\t// in\n    tag_333:\n      pop\n      jump\t// out\n    tag_334:\n      tag_335\n      swap2\n      swap1\n    tag_336:\n      dup1\n      dup3\n      gt\n      iszero\n      tag_337\n      jumpi\n      0x00\n      dup1\n      dup3\n      add\n      0x00\n      swap1\n      sstore\n      0x01\n      dup3\n      add\n      0x00\n      swap1\n      sstore\n      pop\n      0x02\n      add\n      jump(tag_336)\n    tag_337:\n      pop\n      swap1\n      jump\n    tag_335:\n      swap1\n      jump\t// out\n        /* \"--CODEGEN--\":5:135   */\n    tag_339:\n      0x00\n        /* \"--CODEGEN--\":85:91   */\n      dup2\n        /* \"--CODEGEN--\":72:92   */\n      calldataload\n        /* \"--CODEGEN--\":63:92   */\n      swap1\n      pop\n        /* \"--CODEGEN--\":97:130   */\n      tag_340\n        /* \"--CODEGEN--\":124:129   */\n      dup2\n        /* \"--CODEGEN--\":97:130   */\n      jump(tag_341)\n    tag_340:\n        /* \"--CODEGEN--\":57:135   */\n      swap3\n      swap2\n      pop\n      pop\n      jump\n        /* \"--CODEGEN--\":142:272   */\n    tag_342:\n      0x00\n        /* \"--CODEGEN--\":222:228   */\n      dup2\n        /* \"--CODEGEN--\":209:229   */\n      calldataload\n        /* \"--CODEGEN--\":200:229   */\n      swap1\n      pop\n        /* \"--CODEGEN--\":234:267   */\n      tag_343\n        /* \"--CODEGEN--\":261:266   */\n      dup2\n        /* \"--CODEGEN--\":234:267   */\n      jump(tag_344)\n    tag_343:\n        /* \"--CODEGEN--\":194:272   */\n      swap3\n      swap2\n      pop\n      pop\n      jump\n        /* \"--CODEGEN--\":279:520   */\n    tag_50:\n      0x00\n        /* \"--CODEGEN--\":383:385   */\n      0x20\n        /* \"--CODEGEN--\":371:380   */\n      dup3\n        /* \"--CODEGEN--\":362:369   */\n      dup5\n        /* \"--CODEGEN--\":358:381   */\n      sub\n        /* \"--CODEGEN--\":354:386   */\n      slt\n        /* \"--CODEGEN--\":351:353   */\n      iszero\n      tag_345\n      jumpi\n        /* \"--CODEGEN--\":399:400   */\n      0x00\n        /* \"--CODEGEN--\":396:397   */\n      dup1\n        /* \"--CODEGEN--\":389:401   */\n      revert\n        /* \"--CODEGEN--\":351:353   */\n    tag_345:\n        /* \"--CODEGEN--\":434:435   */\n      0x00\n        /* \"--CODEGEN--\":451:504   */\n      tag_346\n        /* \"--CODEGEN--\":496:503   */\n      dup5\n        /* \"--CODEGEN--\":487:493   */\n      dup3\n        /* \"--CODEGEN--\":476:485   */\n      dup6\n        /* \"--CODEGEN--\":472:494   */\n      add\n        /* \"--CODEGEN--\":451:504   */\n      jump(tag_339)\n    tag_346:\n        /* \"--CODEGEN--\":441:504   */\n      swap2\n      pop\n        /* \"--CODEGEN--\":413:510   */\n      pop\n        /* \"--CODEGEN--\":345:520   */\n      swap3\n      swap2\n      pop\n      pop\n      jump\n        /* \"--CODEGEN--\":527:893   */\n    tag_103:\n      0x00\n      dup1\n        /* \"--CODEGEN--\":648:650   */\n      0x40\n        /* \"--CODEGEN--\":636:645   */\n      dup4\n        /* \"--CODEGEN--\":627:634   */\n      dup6\n        /* \"--CODEGEN--\":623:646   */\n      sub\n        /* \"--CODEGEN--\":619:651   */\n      slt\n        /* \"--CODEGEN--\":616:618   */\n      iszero\n      tag_347\n      jumpi\n        /* \"--CODEGEN--\":664:665   */\n      0x00\n        /* \"--CODEGEN--\":661:662   */\n      dup1\n        /* \"--CODEGEN--\":654:666   */\n      revert\n        /* \"--CODEGEN--\":616:618   */\n    tag_347:\n        /* \"--CODEGEN--\":699:700   */\n      0x00\n        /* \"--CODEGEN--\":716:769   */\n      tag_348\n        /* \"--CODEGEN--\":761:768   */\n      dup6\n        /* \"--CODEGEN--\":752:758   */\n      dup3\n        /* \"--CODEGEN--\":741:750   */\n      dup7\n        /* \"--CODEGEN--\":737:759   */\n      add\n        /* \"--CODEGEN--\":716:769   */\n      jump(tag_339)\n    tag_348:\n        /* \"--CODEGEN--\":706:769   */\n      swap3\n      pop\n        /* \"--CODEGEN--\":678:775   */\n      pop\n        /* \"--CODEGEN--\":806:808   */\n      0x20\n        /* \"--CODEGEN--\":824:877   */\n      tag_349\n        /* \"--CODEGEN--\":869:876   */\n      dup6\n        /* \"--CODEGEN--\":860:866   */\n      dup3\n        /* \"--CODEGEN--\":849:858   */\n      dup7\n        /* \"--CODEGEN--\":845:867   */\n      add\n        /* \"--CODEGEN--\":824:877   */\n      jump(tag_339)\n    tag_349:\n        /* \"--CODEGEN--\":814:877   */\n      swap2\n      pop\n        /* \"--CODEGEN--\":785:883   */\n      pop\n        /* \"--CODEGEN--\":610:893   */\n      swap3\n      pop\n      swap3\n      swap1\n      pop\n      jump\n        /* \"--CODEGEN--\":900:1391   */\n    tag_41:\n      0x00\n      dup1\n      0x00\n        /* \"--CODEGEN--\":1038:1040   */\n      0x60\n        /* \"--CODEGEN--\":1026:1035   */\n      dup5\n        /* \"--CODEGEN--\":1017:1024   */\n      dup7\n        /* \"--CODEGEN--\":1013:1036   */\n      sub\n        /* \"--CODEGEN--\":1009:1041   */\n      slt\n        /* \"--CODEGEN--\":1006:1008   */\n      iszero\n      tag_350\n      jumpi\n        /* \"--CODEGEN--\":1054:1055   */\n      0x00\n        /* \"--CODEGEN--\":1051:1052   */\n      dup1\n        /* \"--CODEGEN--\":1044:1056   */\n      revert\n        /* \"--CODEGEN--\":1006:1008   */\n    tag_350:\n        /* \"--CODEGEN--\":1089:1090   */\n      0x00\n        /* \"--CODEGEN--\":1106:1159   */\n      tag_351\n        /* \"--CODEGEN--\":1151:1158   */\n      dup7\n        /* \"--CODEGEN--\":1142:1148   */\n      dup3\n        /* \"--CODEGEN--\":1131:1140   */\n      dup8\n        /* \"--CODEGEN--\":1127:1149   */\n      add\n        /* \"--CODEGEN--\":1106:1159   */\n      jump(tag_339)\n    tag_351:\n        /* \"--CODEGEN--\":1096:1159   */\n      swap4\n      pop\n        /* \"--CODEGEN--\":1068:1165   */\n      pop\n        /* \"--CODEGEN--\":1196:1198   */\n      0x20\n        /* \"--CODEGEN--\":1214:1267   */\n      tag_352\n        /* \"--CODEGEN--\":1259:1266   */\n      dup7\n        /* \"--CODEGEN--\":1250:1256   */\n      dup3\n        /* \"--CODEGEN--\":1239:1248   */\n      dup8\n        /* \"--CODEGEN--\":1235:1257   */\n      add\n        /* \"--CODEGEN--\":1214:1267   */\n      jump(tag_339)\n    tag_352:\n        /* \"--CODEGEN--\":1204:1267   */\n      swap3\n      pop\n        /* \"--CODEGEN--\":1175:1273   */\n      pop\n        /* \"--CODEGEN--\":1304:1306   */\n      0x40\n        /* \"--CODEGEN--\":1322:1375   */\n      tag_353\n        /* \"--CODEGEN--\":1367:1374   */\n      dup7\n        /* \"--CODEGEN--\":1358:1364   */\n      dup3\n        /* \"--CODEGEN--\":1347:1356   */\n      dup8\n        /* \"--CODEGEN--\":1343:1365   */\n      add\n        /* \"--CODEGEN--\":1322:1375   */\n      jump(tag_342)\n    tag_353:\n        /* \"--CODEGEN--\":1312:1375   */\n      swap2\n      pop\n        /* \"--CODEGEN--\":1283:1381   */\n      pop\n        /* \"--CODEGEN--\":1000:1391   */\n      swap3\n      pop\n      swap3\n      pop\n      swap3\n      jump\n        /* \"--CODEGEN--\":1398:1764   */\n    tag_31:\n      0x00\n      dup1\n        /* \"--CODEGEN--\":1519:1521   */\n      0x40\n        /* \"--CODEGEN--\":1507:1516   */\n      dup4\n        /* \"--CODEGEN--\":1498:1505   */\n      dup6\n        /* \"--CODEGEN--\":1494:1517   */\n      sub\n        /* \"--CODEGEN--\":1490:1522   */\n      slt\n        /* \"--CODEGEN--\":1487:1489   */\n      iszero\n      tag_354\n      jumpi\n        /* \"--CODEGEN--\":1535:1536   */\n      0x00\n        /* \"--CODEGEN--\":1532:1533   */\n      dup1\n        /* \"--CODEGEN--\":1525:1537   */\n      revert\n        /* \"--CODEGEN--\":1487:1489   */\n    tag_354:\n        /* \"--CODEGEN--\":1570:1571   */\n      0x00\n        /* \"--CODEGEN--\":1587:1640   */\n      tag_355\n        /* \"--CODEGEN--\":1632:1639   */\n      dup6\n        /* \"--CODEGEN--\":1623:1629   */\n      dup3\n        /* \"--CODEGEN--\":1612:1621   */\n      dup7\n        /* \"--CODEGEN--\":1608:1630   */\n      add\n        /* \"--CODEGEN--\":1587:1640   */\n      jump(tag_339)\n    tag_355:\n        /* \"--CODEGEN--\":1577:1640   */\n      swap3\n      pop\n        /* \"--CODEGEN--\":1549:1646   */\n      pop\n        /* \"--CODEGEN--\":1677:1679   */\n      0x20\n        /* \"--CODEGEN--\":1695:1748   */\n      tag_356\n        /* \"--CODEGEN--\":1740:1747   */\n      dup6\n        /* \"--CODEGEN--\":1731:1737   */\n      dup3\n        /* \"--CODEGEN--\":1720:1729   */\n      dup7\n        /* \"--CODEGEN--\":1716:1738   */\n      add\n        /* \"--CODEGEN--\":1695:1748   */\n      jump(tag_342)\n    tag_356:\n        /* \"--CODEGEN--\":1685:1748   */\n      swap2\n      pop\n        /* \"--CODEGEN--\":1656:1754   */\n      pop\n        /* \"--CODEGEN--\":1481:1764   */\n      swap3\n      pop\n      swap3\n      swap1\n      pop\n      jump\n        /* \"--CODEGEN--\":1771:2262   */\n    tag_62:\n      0x00\n      dup1\n      0x00\n        /* \"--CODEGEN--\":1909:1911   */\n      0x60\n        /* \"--CODEGEN--\":1897:1906   */\n      dup5\n        /* \"--CODEGEN--\":1888:1895   */\n      dup7\n        /* \"--CODEGEN--\":1884:1907   */\n      sub\n        /* \"--CODEGEN--\":1880:1912   */\n      slt\n        /* \"--CODEGEN--\":1877:1879   */\n      iszero\n      tag_357\n      jumpi\n        /* \"--CODEGEN--\":1925:1926   */\n      0x00\n        /* \"--CODEGEN--\":1922:1923   */\n      dup1\n        /* \"--CODEGEN--\":1915:1927   */\n      revert\n        /* \"--CODEGEN--\":1877:1879   */\n    tag_357:\n        /* \"--CODEGEN--\":1960:1961   */\n      0x00\n        /* \"--CODEGEN--\":1977:2030   */\n      tag_358\n        /* \"--CODEGEN--\":2022:2029   */\n      dup7\n        /* \"--CODEGEN--\":2013:2019   */\n      dup3\n        /* \"--CODEGEN--\":2002:2011   */\n      dup8\n        /* \"--CODEGEN--\":1998:2020   */\n      add\n        /* \"--CODEGEN--\":1977:2030   */\n      jump(tag_339)\n    tag_358:\n        /* \"--CODEGEN--\":1967:2030   */\n      swap4\n      pop\n        /* \"--CODEGEN--\":1939:2036   */\n      pop\n        /* \"--CODEGEN--\":2067:2069   */\n      0x20\n        /* \"--CODEGEN--\":2085:2138   */\n      tag_359\n        /* \"--CODEGEN--\":2130:2137   */\n      dup7\n        /* \"--CODEGEN--\":2121:2127   */\n      dup3\n        /* \"--CODEGEN--\":2110:2119   */\n      dup8\n        /* \"--CODEGEN--\":2106:2128   */\n      add\n        /* \"--CODEGEN--\":2085:2138   */\n      jump(tag_342)\n    tag_359:\n        /* \"--CODEGEN--\":2075:2138   */\n      swap3\n      pop\n        /* \"--CODEGEN--\":2046:2144   */\n      pop\n        /* \"--CODEGEN--\":2175:2177   */\n      0x40\n        /* \"--CODEGEN--\":2193:2246   */\n      tag_360\n        /* \"--CODEGEN--\":2238:2245   */\n      dup7\n        /* \"--CODEGEN--\":2229:2235   */\n      dup3\n        /* \"--CODEGEN--\":2218:2227   */\n      dup8\n        /* \"--CODEGEN--\":2214:2236   */\n      add\n        /* \"--CODEGEN--\":2193:2246   */\n      jump(tag_342)\n    tag_360:\n        /* \"--CODEGEN--\":2183:2246   */\n      swap2\n      pop\n        /* \"--CODEGEN--\":2154:2252   */\n      pop\n        /* \"--CODEGEN--\":1871:2262   */\n      swap3\n      pop\n      swap3\n      pop\n      swap3\n      jump\n        /* \"--CODEGEN--\":2270:2431   */\n    tag_361:\n      0x00\n        /* \"--CODEGEN--\":2351:2391   */\n      tag_362\n        /* \"--CODEGEN--\":2387:2390   */\n      dup4\n        /* \"--CODEGEN--\":2379:2385   */\n      dup4\n        /* \"--CODEGEN--\":2351:2391   */\n      jump(tag_363)\n    tag_362:\n        /* \"--CODEGEN--\":2420:2424   */\n      0x20\n        /* \"--CODEGEN--\":2415:2418   */\n      dup4\n        /* \"--CODEGEN--\":2411:2425   */\n      add\n        /* \"--CODEGEN--\":2397:2425   */\n      swap1\n      pop\n        /* \"--CODEGEN--\":2344:2431   */\n      swap3\n      swap2\n      pop\n      pop\n      jump\n        /* \"--CODEGEN--\":2440:2613   */\n    tag_364:\n      0x00\n        /* \"--CODEGEN--\":2527:2573   */\n      tag_365\n        /* \"--CODEGEN--\":2569:2572   */\n      dup4\n        /* \"--CODEGEN--\":2561:2567   */\n      dup4\n        /* \"--CODEGEN--\":2527:2573   */\n      jump(tag_366)\n    tag_365:\n        /* \"--CODEGEN--\":2602:2606   */\n      0x20\n        /* \"--CODEGEN--\":2597:2600   */\n      dup4\n        /* \"--CODEGEN--\":2593:2607   */\n      add\n        /* \"--CODEGEN--\":2579:2607   */\n      swap1\n      pop\n        /* \"--CODEGEN--\":2520:2613   */\n      swap3\n      swap2\n      pop\n      pop\n      jump\n        /* \"--CODEGEN--\":2621:2734   */\n    tag_367:\n        /* \"--CODEGEN--\":2704:2728   */\n      tag_368\n        /* \"--CODEGEN--\":2722:2727   */\n      dup2\n        /* \"--CODEGEN--\":2704:2728   */\n      jump(tag_369)\n    tag_368:\n        /* \"--CODEGEN--\":2699:2702   */\n      dup3\n        /* \"--CODEGEN--\":2692:2729   */\n      mstore\n        /* \"--CODEGEN--\":2686:2734   */\n      pop\n      pop\n      jump\n        /* \"--CODEGEN--\":2766:3432   */\n    tag_370:\n      0x00\n        /* \"--CODEGEN--\":2905:2956   */\n      tag_371\n        /* \"--CODEGEN--\":2950:2955   */\n      dup3\n        /* \"--CODEGEN--\":2905:2956   */\n      jump(tag_372)\n    tag_371:\n        /* \"--CODEGEN--\":2969:3052   */\n      tag_373\n        /* \"--CODEGEN--\":3045:3051   */\n      dup2\n        /* \"--CODEGEN--\":3040:3043   */\n      dup6\n        /* \"--CODEGEN--\":2969:3052   */\n      jump(tag_374)\n    tag_373:\n        /* \"--CODEGEN--\":2962:3052   */\n      swap4\n      pop\n        /* \"--CODEGEN--\":3073:3126   */\n      tag_375\n        /* \"--CODEGEN--\":3120:3125   */\n      dup4\n        /* \"--CODEGEN--\":3073:3126   */\n      jump(tag_376)\n    tag_375:\n        /* \"--CODEGEN--\":3146:3153   */\n      dup1\n        /* \"--CODEGEN--\":3174:3175   */\n      0x00\n        /* \"--CODEGEN--\":3159:3410   */\n    tag_377:\n        /* \"--CODEGEN--\":3184:3190   */\n      dup4\n        /* \"--CODEGEN--\":3181:3182   */\n      dup2\n        /* \"--CODEGEN--\":3178:3191   */\n      lt\n        /* \"--CODEGEN--\":3159:3410   */\n      iszero\n      tag_379\n      jumpi\n        /* \"--CODEGEN--\":3251:3257   */\n      dup2\n        /* \"--CODEGEN--\":3245:3258   */\n      mload\n        /* \"--CODEGEN--\":3272:3329   */\n      tag_380\n        /* \"--CODEGEN--\":3325:3328   */\n      dup9\n        /* \"--CODEGEN--\":3310:3323   */\n      dup3\n        /* \"--CODEGEN--\":3272:3329   */\n      jump(tag_361)\n    tag_380:\n        /* \"--CODEGEN--\":3265:3329   */\n      swap8\n      pop\n        /* \"--CODEGEN--\":3346:3403   */\n      tag_381\n        /* \"--CODEGEN--\":3396:3402   */\n      dup4\n        /* \"--CODEGEN--\":3346:3403   */\n      jump(tag_382)\n    tag_381:\n        /* \"--CODEGEN--\":3336:3403   */\n      swap3\n      pop\n        /* \"--CODEGEN--\":3216:3410   */\n      pop\n        /* \"--CODEGEN--\":3206:3207   */\n      0x01\n        /* \"--CODEGEN--\":3203:3204   */\n      dup2\n        /* \"--CODEGEN--\":3199:3208   */\n      add\n        /* \"--CODEGEN--\":3194:3208   */\n      swap1\n      pop\n        /* \"--CODEGEN--\":3159:3410   */\n      jump(tag_377)\n    tag_379:\n        /* \"--CODEGEN--\":3163:3177   */\n      pop\n        /* \"--CODEGEN--\":3423:3426   */\n      dup6\n        /* \"--CODEGEN--\":3416:3426   */\n      swap4\n      pop\n        /* \"--CODEGEN--\":2884:3432   */\n      pop\n      pop\n      pop\n      swap3\n      swap2\n      pop\n      pop\n      jump\n        /* \"--CODEGEN--\":3471:4161   */\n    tag_383:\n      0x00\n        /* \"--CODEGEN--\":3616:3670   */\n      tag_384\n        /* \"--CODEGEN--\":3664:3669   */\n      dup3\n        /* \"--CODEGEN--\":3616:3670   */\n      jump(tag_385)\n    tag_384:\n        /* \"--CODEGEN--\":3683:3769   */\n      tag_386\n        /* \"--CODEGEN--\":3762:3768   */\n      dup2\n        /* \"--CODEGEN--\":3757:3760   */\n      dup6\n        /* \"--CODEGEN--\":3683:3769   */\n      jump(tag_387)\n    tag_386:\n        /* \"--CODEGEN--\":3676:3769   */\n      swap4\n      pop\n        /* \"--CODEGEN--\":3790:3846   */\n      tag_388\n        /* \"--CODEGEN--\":3840:3845   */\n      dup4\n        /* \"--CODEGEN--\":3790:3846   */\n      jump(tag_389)\n    tag_388:\n        /* \"--CODEGEN--\":3866:3873   */\n      dup1\n        /* \"--CODEGEN--\":3894:3895   */\n      0x00\n        /* \"--CODEGEN--\":3879:4139   */\n    tag_390:\n        /* \"--CODEGEN--\":3904:3910   */\n      dup4\n        /* \"--CODEGEN--\":3901:3902   */\n      dup2\n        /* \"--CODEGEN--\":3898:3911   */\n      lt\n        /* \"--CODEGEN--\":3879:4139   */\n      iszero\n      tag_392\n      jumpi\n        /* \"--CODEGEN--\":3971:3977   */\n      dup2\n        /* \"--CODEGEN--\":3965:3978   */\n      mload\n        /* \"--CODEGEN--\":3992:4055   */\n      tag_393\n        /* \"--CODEGEN--\":4051:4054   */\n      dup9\n        /* \"--CODEGEN--\":4036:4049   */\n      dup3\n        /* \"--CODEGEN--\":3992:4055   */\n      jump(tag_364)\n    tag_393:\n        /* \"--CODEGEN--\":3985:4055   */\n      swap8\n      pop\n        /* \"--CODEGEN--\":4072:4132   */\n      tag_394\n        /* \"--CODEGEN--\":4125:4131   */\n      dup4\n        /* \"--CODEGEN--\":4072:4132   */\n      jump(tag_395)\n    tag_394:\n        /* \"--CODEGEN--\":4062:4132   */\n      swap3\n      pop\n        /* \"--CODEGEN--\":3936:4139   */\n      pop\n        /* \"--CODEGEN--\":3926:3927   */\n      0x01\n        /* \"--CODEGEN--\":3923:3924   */\n      dup2\n        /* \"--CODEGEN--\":3919:3928   */\n      add\n        /* \"--CODEGEN--\":3914:3928   */\n      swap1\n      pop\n        /* \"--CODEGEN--\":3879:4139   */\n      jump(tag_390)\n    tag_392:\n        /* \"--CODEGEN--\":3883:3897   */\n      pop\n        /* \"--CODEGEN--\":4152:4155   */\n      dup6\n        /* \"--CODEGEN--\":4145:4155   */\n      swap4\n      pop\n        /* \"--CODEGEN--\":3595:4161   */\n      pop\n      pop\n      pop\n      swap3\n      swap2\n      pop\n      pop\n      jump\n        /* \"--CODEGEN--\":4169:4263   */\n    tag_363:\n        /* \"--CODEGEN--\":4236:4257   */\n      tag_396\n        /* \"--CODEGEN--\":4251:4256   */\n      dup2\n        /* \"--CODEGEN--\":4236:4257   */\n      jump(tag_397)\n    tag_396:\n        /* \"--CODEGEN--\":4231:4234   */\n      dup3\n        /* \"--CODEGEN--\":4224:4258   */\n      mstore\n        /* \"--CODEGEN--\":4218:4263   */\n      pop\n      pop\n      jump\n        /* \"--CODEGEN--\":4270:4374   */\n    tag_398:\n        /* \"--CODEGEN--\":4347:4368   */\n      tag_399\n        /* \"--CODEGEN--\":4362:4367   */\n      dup2\n        /* \"--CODEGEN--\":4347:4368   */\n      jump(tag_397)\n    tag_399:\n        /* \"--CODEGEN--\":4342:4345   */\n      dup3\n        /* \"--CODEGEN--\":4335:4369   */\n      mstore\n        /* \"--CODEGEN--\":4329:4374   */\n      pop\n      pop\n      jump\n        /* \"--CODEGEN--\":4381:4720   */\n    tag_400:\n      0x00\n        /* \"--CODEGEN--\":4489:4524   */\n      tag_401\n        /* \"--CODEGEN--\":4518:4523   */\n      dup3\n        /* \"--CODEGEN--\":4489:4524   */\n      jump(tag_402)\n    tag_401:\n        /* \"--CODEGEN--\":4536:4607   */\n      tag_403\n        /* \"--CODEGEN--\":4600:4606   */\n      dup2\n        /* \"--CODEGEN--\":4595:4598   */\n      dup6\n        /* \"--CODEGEN--\":4536:4607   */\n      jump(tag_404)\n    tag_403:\n        /* \"--CODEGEN--\":4529:4607   */\n      swap4\n      pop\n        /* \"--CODEGEN--\":4612:4664   */\n      tag_405\n        /* \"--CODEGEN--\":4657:4663   */\n      dup2\n        /* \"--CODEGEN--\":4652:4655   */\n      dup6\n        /* \"--CODEGEN--\":4645:4649   */\n      0x20\n        /* \"--CODEGEN--\":4638:4643   */\n      dup7\n        /* \"--CODEGEN--\":4634:4650   */\n      add\n        /* \"--CODEGEN--\":4612:4664   */\n      jump(tag_406)\n    tag_405:\n        /* \"--CODEGEN--\":4685:4714   */\n      tag_407\n        /* \"--CODEGEN--\":4707:4713   */\n      dup2\n        /* \"--CODEGEN--\":4685:4714   */\n      jump(tag_408)\n    tag_407:\n        /* \"--CODEGEN--\":4680:4683   */\n      dup5\n        /* \"--CODEGEN--\":4676:4715   */\n      add\n        /* \"--CODEGEN--\":4669:4715   */\n      swap2\n      pop\n        /* \"--CODEGEN--\":4469:4720   */\n      pop\n      swap3\n      swap2\n      pop\n      pop\n      jump\n        /* \"--CODEGEN--\":4728:5092   */\n    tag_409:\n      0x00\n        /* \"--CODEGEN--\":4888:4955   */\n      tag_410\n        /* \"--CODEGEN--\":4952:4954   */\n      0x12\n        /* \"--CODEGEN--\":4947:4950   */\n      dup4\n        /* \"--CODEGEN--\":4888:4955   */\n      jump(tag_404)\n    tag_410:\n        /* \"--CODEGEN--\":4881:4955   */\n      swap2\n      pop\n        /* \"--CODEGEN--\":4988:5054   */\n      0x416c6c6f77616e63652065786365656465640000000000000000000000000000\n        /* \"--CODEGEN--\":4984:4985   */\n      0x00\n        /* \"--CODEGEN--\":4979:4982   */\n      dup4\n        /* \"--CODEGEN--\":4975:4986   */\n      add\n        /* \"--CODEGEN--\":4968:5055   */\n      mstore\n        /* \"--CODEGEN--\":5083:5085   */\n      0x20\n        /* \"--CODEGEN--\":5078:5081   */\n      dup3\n        /* \"--CODEGEN--\":5074:5086   */\n      add\n        /* \"--CODEGEN--\":5067:5086   */\n      swap1\n      pop\n        /* \"--CODEGEN--\":4874:5092   */\n      swap2\n      swap1\n      pop\n      jump\n        /* \"--CODEGEN--\":5101:5465   */\n    tag_411:\n      0x00\n        /* \"--CODEGEN--\":5261:5328   */\n      tag_412\n        /* \"--CODEGEN--\":5325:5327   */\n      0x0f\n        /* \"--CODEGEN--\":5320:5323   */\n      dup4\n        /* \"--CODEGEN--\":5261:5328   */\n      jump(tag_404)\n    tag_412:\n        /* \"--CODEGEN--\":5254:5328   */\n      swap2\n      pop\n        /* \"--CODEGEN--\":5361:5427   */\n      0x496e76616c696420616464726573730000000000000000000000000000000000\n        /* \"--CODEGEN--\":5357:5358   */\n      0x00\n        /* \"--CODEGEN--\":5352:5355   */\n      dup4\n        /* \"--CODEGEN--\":5348:5359   */\n      add\n        /* \"--CODEGEN--\":5341:5428   */\n      mstore\n        /* \"--CODEGEN--\":5456:5458   */\n      0x20\n        /* \"--CODEGEN--\":5451:5454   */\n      dup3\n        /* \"--CODEGEN--\":5447:5459   */\n      add\n        /* \"--CODEGEN--\":5440:5459   */\n      swap1\n      pop\n        /* \"--CODEGEN--\":5247:5465   */\n      swap2\n      swap1\n      pop\n      jump\n        /* \"--CODEGEN--\":5474:5838   */\n    tag_413:\n      0x00\n        /* \"--CODEGEN--\":5634:5701   */\n      tag_414\n        /* \"--CODEGEN--\":5698:5700   */\n      0x20\n        /* \"--CODEGEN--\":5693:5696   */\n      dup4\n        /* \"--CODEGEN--\":5634:5701   */\n      jump(tag_404)\n    tag_414:\n        /* \"--CODEGEN--\":5627:5701   */\n      swap2\n      pop\n        /* \"--CODEGEN--\":5734:5800   */\n      0x416d6f756e74206d7573742062652067726561746572207468616e207a65726f\n        /* \"--CODEGEN--\":5730:5731   */\n      0x00\n        /* \"--CODEGEN--\":5725:5728   */\n      dup4\n        /* \"--CODEGEN--\":5721:5732   */\n      add\n        /* \"--CODEGEN--\":5714:5801   */\n      mstore\n        /* \"--CODEGEN--\":5829:5831   */\n      0x20\n        /* \"--CODEGEN--\":5824:5827   */\n      dup3\n        /* \"--CODEGEN--\":5820:5832   */\n      add\n        /* \"--CODEGEN--\":5813:5832   */\n      swap1\n      pop\n        /* \"--CODEGEN--\":5620:5838   */\n      swap2\n      swap1\n      pop\n      jump\n        /* \"--CODEGEN--\":5847:6211   */\n    tag_415:\n      0x00\n        /* \"--CODEGEN--\":6007:6074   */\n      tag_416\n        /* \"--CODEGEN--\":6071:6073   */\n      0x0e\n        /* \"--CODEGEN--\":6066:6069   */\n      dup4\n        /* \"--CODEGEN--\":6007:6074   */\n      jump(tag_404)\n    tag_416:\n        /* \"--CODEGEN--\":6000:6074   */\n      swap2\n      pop\n        /* \"--CODEGEN--\":6107:6173   */\n      0x496e76616c69642073656e646572000000000000000000000000000000000000\n        /* \"--CODEGEN--\":6103:6104   */\n      0x00\n        /* \"--CODEGEN--\":6098:6101   */\n      dup4\n        /* \"--CODEGEN--\":6094:6105   */\n      add\n        /* \"--CODEGEN--\":6087:6174   */\n      mstore\n        /* \"--CODEGEN--\":6202:6204   */\n      0x20\n        /* \"--CODEGEN--\":6197:6200   */\n      dup3\n        /* \"--CODEGEN--\":6193:6205   */\n      add\n        /* \"--CODEGEN--\":6186:6205   */\n      swap1\n      pop\n        /* \"--CODEGEN--\":5993:6211   */\n      swap2\n      swap1\n      pop\n      jump\n        /* \"--CODEGEN--\":6220:6584   */\n    tag_417:\n      0x00\n        /* \"--CODEGEN--\":6380:6447   */\n      tag_418\n        /* \"--CODEGEN--\":6444:6446   */\n      0x20\n        /* \"--CODEGEN--\":6439:6442   */\n      dup4\n        /* \"--CODEGEN--\":6380:6447   */\n      jump(tag_404)\n    tag_418:\n        /* \"--CODEGEN--\":6373:6447   */\n      swap2\n      pop\n        /* \"--CODEGEN--\":6480:6546   */\n      0x4e657720657870697279206d75737420626520696e2074686520667574757265\n        /* \"--CODEGEN--\":6476:6477   */\n      0x00\n        /* \"--CODEGEN--\":6471:6474   */\n      dup4\n        /* \"--CODEGEN--\":6467:6478   */\n      add\n        /* \"--CODEGEN--\":6460:6547   */\n      mstore\n        /* \"--CODEGEN--\":6575:6577   */\n      0x20\n        /* \"--CODEGEN--\":6570:6573   */\n      dup3\n        /* \"--CODEGEN--\":6566:6578   */\n      add\n        /* \"--CODEGEN--\":6559:6578   */\n      swap1\n      pop\n        /* \"--CODEGEN--\":6366:6584   */\n      swap2\n      swap1\n      pop\n      jump\n        /* \"--CODEGEN--\":6593:6957   */\n    tag_419:\n      0x00\n        /* \"--CODEGEN--\":6753:6820   */\n      tag_420\n        /* \"--CODEGEN--\":6817:6819   */\n      0x1e\n        /* \"--CODEGEN--\":6812:6815   */\n      dup4\n        /* \"--CODEGEN--\":6753:6820   */\n      jump(tag_404)\n    tag_420:\n        /* \"--CODEGEN--\":6746:6820   */\n      swap2\n      pop\n        /* \"--CODEGEN--\":6853:6919   */\n      0x496e73756666696369656e7420756e657870697265642062616c616e63650000\n        /* \"--CODEGEN--\":6849:6850   */\n      0x00\n        /* \"--CODEGEN--\":6844:6847   */\n      dup4\n        /* \"--CODEGEN--\":6840:6851   */\n      add\n        /* \"--CODEGEN--\":6833:6920   */\n      mstore\n        /* \"--CODEGEN--\":6948:6950   */\n      0x20\n        /* \"--CODEGEN--\":6943:6946   */\n      dup3\n        /* \"--CODEGEN--\":6939:6951   */\n      add\n        /* \"--CODEGEN--\":6932:6951   */\n      swap1\n      pop\n        /* \"--CODEGEN--\":6739:6957   */\n      swap2\n      swap1\n      pop\n      jump\n        /* \"--CODEGEN--\":6966:7330   */\n    tag_421:\n      0x00\n        /* \"--CODEGEN--\":7126:7193   */\n      tag_422\n        /* \"--CODEGEN--\":7190:7192   */\n      0x11\n        /* \"--CODEGEN--\":7185:7188   */\n      dup4\n        /* \"--CODEGEN--\":7126:7193   */\n      jump(tag_404)\n    tag_422:\n        /* \"--CODEGEN--\":7119:7193   */\n      swap2\n      pop\n        /* \"--CODEGEN--\":7226:7292   */\n      0x496e76616c696420726563697069656e74000000000000000000000000000000\n        /* \"--CODEGEN--\":7222:7223   */\n      0x00\n        /* \"--CODEGEN--\":7217:7220   */\n      dup4\n        /* \"--CODEGEN--\":7213:7224   */\n      add\n        /* \"--CODEGEN--\":7206:7293   */\n      mstore\n        /* \"--CODEGEN--\":7321:7323   */\n      0x20\n        /* \"--CODEGEN--\":7316:7319   */\n      dup3\n        /* \"--CODEGEN--\":7312:7324   */\n      add\n        /* \"--CODEGEN--\":7305:7324   */\n      swap1\n      pop\n        /* \"--CODEGEN--\":7112:7330   */\n      swap2\n      swap1\n      pop\n      jump\n        /* \"--CODEGEN--\":7339:7702   */\n    tag_423:\n      0x00\n        /* \"--CODEGEN--\":7499:7565   */\n      tag_424\n        /* \"--CODEGEN--\":7563:7564   */\n      0x09\n        /* \"--CODEGEN--\":7558:7561   */\n      dup4\n        /* \"--CODEGEN--\":7499:7565   */\n      jump(tag_404)\n    tag_424:\n        /* \"--CODEGEN--\":7492:7565   */\n      swap2\n      pop\n        /* \"--CODEGEN--\":7598:7664   */\n      0x4e6f74206f776e65720000000000000000000000000000000000000000000000\n        /* \"--CODEGEN--\":7594:7595   */\n      0x00\n        /* \"--CODEGEN--\":7589:7592   */\n      dup4\n        /* \"--CODEGEN--\":7585:7596   */\n      add\n        /* \"--CODEGEN--\":7578:7665   */\n      mstore\n        /* \"--CODEGEN--\":7693:7695   */\n      0x20\n        /* \"--CODEGEN--\":7688:7691   */\n      dup3\n        /* \"--CODEGEN--\":7684:7696   */\n      add\n        /* \"--CODEGEN--\":7677:7696   */\n      swap1\n      pop\n        /* \"--CODEGEN--\":7485:7702   */\n      swap2\n      swap1\n      pop\n      jump\n        /* \"--CODEGEN--\":7711:8075   */\n    tag_425:\n      0x00\n        /* \"--CODEGEN--\":7871:7938   */\n      tag_426\n        /* \"--CODEGEN--\":7935:7937   */\n      0x12\n        /* \"--CODEGEN--\":7930:7933   */\n      dup4\n        /* \"--CODEGEN--\":7871:7938   */\n      jump(tag_404)\n    tag_426:\n        /* \"--CODEGEN--\":7864:7938   */\n      swap2\n      pop\n        /* \"--CODEGEN--\":7971:8037   */\n      0x546f6b656e206c6f7420697320656d7074790000000000000000000000000000\n        /* \"--CODEGEN--\":7967:7968   */\n      0x00\n        /* \"--CODEGEN--\":7962:7965   */\n      dup4\n        /* \"--CODEGEN--\":7958:7969   */\n      add\n        /* \"--CODEGEN--\":7951:8038   */\n      mstore\n        /* \"--CODEGEN--\":8066:8068   */\n      0x20\n        /* \"--CODEGEN--\":8061:8064   */\n      dup3\n        /* \"--CODEGEN--\":8057:8069   */\n      add\n        /* \"--CODEGEN--\":8050:8069   */\n      swap1\n      pop\n        /* \"--CODEGEN--\":7857:8075   */\n      swap2\n      swap1\n      pop\n      jump\n        /* \"--CODEGEN--\":8084:8448   */\n    tag_427:\n      0x00\n        /* \"--CODEGEN--\":8244:8311   */\n      tag_428\n        /* \"--CODEGEN--\":8308:8310   */\n      0x11\n        /* \"--CODEGEN--\":8303:8306   */\n      dup4\n        /* \"--CODEGEN--\":8244:8311   */\n      jump(tag_404)\n    tag_428:\n        /* \"--CODEGEN--\":8237:8311   */\n      swap2\n      pop\n        /* \"--CODEGEN--\":8344:8410   */\n      0x496e76616c6964206c6f7420696e646578000000000000000000000000000000\n        /* \"--CODEGEN--\":8340:8341   */\n      0x00\n        /* \"--CODEGEN--\":8335:8338   */\n      dup4\n        /* \"--CODEGEN--\":8331:8342   */\n      add\n        /* \"--CODEGEN--\":8324:8411   */\n      mstore\n        /* \"--CODEGEN--\":8439:8441   */\n      0x20\n        /* \"--CODEGEN--\":8434:8437   */\n      dup3\n        /* \"--CODEGEN--\":8430:8442   */\n      add\n        /* \"--CODEGEN--\":8423:8442   */\n      swap1\n      pop\n        /* \"--CODEGEN--\":8230:8448   */\n      swap2\n      swap1\n      pop\n      jump\n        /* \"--CODEGEN--\":8457:8821   */\n    tag_429:\n      0x00\n        /* \"--CODEGEN--\":8617:8684   */\n      tag_430\n        /* \"--CODEGEN--\":8681:8683   */\n      0x0f\n        /* \"--CODEGEN--\":8676:8679   */\n      dup4\n        /* \"--CODEGEN--\":8617:8684   */\n      jump(tag_404)\n    tag_430:\n        /* \"--CODEGEN--\":8610:8684   */\n      swap2\n      pop\n        /* \"--CODEGEN--\":8717:8783   */\n      0x496e76616c6964207370656e6465720000000000000000000000000000000000\n        /* \"--CODEGEN--\":8713:8714   */\n      0x00\n        /* \"--CODEGEN--\":8708:8711   */\n      dup4\n        /* \"--CODEGEN--\":8704:8715   */\n      add\n        /* \"--CODEGEN--\":8697:8784   */\n      mstore\n        /* \"--CODEGEN--\":8812:8814   */\n      0x20\n        /* \"--CODEGEN--\":8807:8810   */\n      dup3\n        /* \"--CODEGEN--\":8803:8815   */\n      add\n        /* \"--CODEGEN--\":8796:8815   */\n      swap1\n      pop\n        /* \"--CODEGEN--\":8603:8821   */\n      swap2\n      swap1\n      pop\n      jump\n        /* \"--CODEGEN--\":8829:8932   */\n    tag_366:\n        /* \"--CODEGEN--\":8902:8926   */\n      tag_431\n        /* \"--CODEGEN--\":8920:8925   */\n      dup2\n        /* \"--CODEGEN--\":8902:8926   */\n      jump(tag_432)\n    tag_431:\n        /* \"--CODEGEN--\":8897:8900   */\n      dup3\n        /* \"--CODEGEN--\":8890:8927   */\n      mstore\n        /* \"--CODEGEN--\":8884:8932   */\n      pop\n      pop\n      jump\n        /* \"--CODEGEN--\":8939:9052   */\n    tag_433:\n        /* \"--CODEGEN--\":9022:9046   */\n      tag_434\n        /* \"--CODEGEN--\":9040:9045   */\n      dup2\n        /* \"--CODEGEN--\":9022:9046   */\n      jump(tag_432)\n    tag_434:\n        /* \"--CODEGEN--\":9017:9020   */\n      dup3\n        /* \"--CODEGEN--\":9010:9047   */\n      mstore\n        /* \"--CODEGEN--\":9004:9052   */\n      pop\n      pop\n      jump\n        /* \"--CODEGEN--\":9059:9166   */\n    tag_435:\n        /* \"--CODEGEN--\":9138:9160   */\n      tag_436\n        /* \"--CODEGEN--\":9154:9159   */\n      dup2\n        /* \"--CODEGEN--\":9138:9160   */\n      jump(tag_437)\n    tag_436:\n        /* \"--CODEGEN--\":9133:9136   */\n      dup3\n        /* \"--CODEGEN--\":9126:9161   */\n      mstore\n        /* \"--CODEGEN--\":9120:9166   */\n      pop\n      pop\n      jump\n        /* \"--CODEGEN--\":9173:9386   */\n    tag_67:\n      0x00\n        /* \"--CODEGEN--\":9291:9293   */\n      0x20\n        /* \"--CODEGEN--\":9280:9289   */\n      dup3\n        /* \"--CODEGEN--\":9276:9294   */\n      add\n        /* \"--CODEGEN--\":9268:9294   */\n      swap1\n      pop\n        /* \"--CODEGEN--\":9305:9376   */\n      tag_438\n        /* \"--CODEGEN--\":9373:9374   */\n      0x00\n        /* \"--CODEGEN--\":9362:9371   */\n      dup4\n        /* \"--CODEGEN--\":9358:9375   */\n      add\n        /* \"--CODEGEN--\":9349:9355   */\n      dup5\n        /* \"--CODEGEN--\":9305:9376   */\n      jump(tag_367)\n    tag_438:\n        /* \"--CODEGEN--\":9262:9386   */\n      swap3\n      swap2\n      pop\n      pop\n      jump\n        /* \"--CODEGEN--\":9393:10013   */\n    tag_93:\n      0x00\n        /* \"--CODEGEN--\":9639:9641   */\n      0x40\n        /* \"--CODEGEN--\":9628:9637   */\n      dup3\n        /* \"--CODEGEN--\":9624:9642   */\n      add\n        /* \"--CODEGEN--\":9616:9642   */\n      swap1\n      pop\n        /* \"--CODEGEN--\":9689:9698   */\n      dup2\n        /* \"--CODEGEN--\":9683:9687   */\n      dup2\n        /* \"--CODEGEN--\":9679:9699   */\n      sub\n        /* \"--CODEGEN--\":9675:9676   */\n      0x00\n        /* \"--CODEGEN--\":9664:9673   */\n      dup4\n        /* \"--CODEGEN--\":9660:9677   */\n      add\n        /* \"--CODEGEN--\":9653:9700   */\n      mstore\n        /* \"--CODEGEN--\":9714:9822   */\n      tag_439\n        /* \"--CODEGEN--\":9817:9821   */\n      dup2\n        /* \"--CODEGEN--\":9808:9814   */\n      dup6\n        /* \"--CODEGEN--\":9714:9822   */\n      jump(tag_383)\n    tag_439:\n        /* \"--CODEGEN--\":9706:9822   */\n      swap1\n      pop\n        /* \"--CODEGEN--\":9870:9879   */\n      dup2\n        /* \"--CODEGEN--\":9864:9868   */\n      dup2\n        /* \"--CODEGEN--\":9860:9880   */\n      sub\n        /* \"--CODEGEN--\":9855:9857   */\n      0x20\n        /* \"--CODEGEN--\":9844:9853   */\n      dup4\n        /* \"--CODEGEN--\":9840:9858   */\n      add\n        /* \"--CODEGEN--\":9833:9881   */\n      mstore\n        /* \"--CODEGEN--\":9895:10003   */\n      tag_440\n        /* \"--CODEGEN--\":9998:10002   */\n      dup2\n        /* \"--CODEGEN--\":9989:9995   */\n      dup5\n        /* \"--CODEGEN--\":9895:10003   */\n      jump(tag_383)\n    tag_440:\n        /* \"--CODEGEN--\":9887:10003   */\n      swap1\n      pop\n        /* \"--CODEGEN--\":9610:10013   */\n      swap4\n      swap3\n      pop\n      pop\n      pop\n      jump\n        /* \"--CODEGEN--\":10020:11147   */\n    tag_80:\n      0x00\n        /* \"--CODEGEN--\":10416:10419   */\n      0x80\n        /* \"--CODEGEN--\":10405:10414   */\n      dup3\n        /* \"--CODEGEN--\":10401:10420   */\n      add\n        /* \"--CODEGEN--\":10393:10420   */\n      swap1\n      pop\n        /* \"--CODEGEN--\":10467:10476   */\n      dup2\n        /* \"--CODEGEN--\":10461:10465   */\n      dup2\n        /* \"--CODEGEN--\":10457:10477   */\n      sub\n        /* \"--CODEGEN--\":10453:10454   */\n      0x00\n        /* \"--CODEGEN--\":10442:10451   */\n      dup4\n        /* \"--CODEGEN--\":10438:10455   */\n      add\n        /* \"--CODEGEN--\":10431:10478   */\n      mstore\n        /* \"--CODEGEN--\":10492:10600   */\n      tag_441\n        /* \"--CODEGEN--\":10595:10599   */\n      dup2\n        /* \"--CODEGEN--\":10586:10592   */\n      dup8\n        /* \"--CODEGEN--\":10492:10600   */\n      jump(tag_383)\n    tag_441:\n        /* \"--CODEGEN--\":10484:10600   */\n      swap1\n      pop\n        /* \"--CODEGEN--\":10648:10657   */\n      dup2\n        /* \"--CODEGEN--\":10642:10646   */\n      dup2\n        /* \"--CODEGEN--\":10638:10658   */\n      sub\n        /* \"--CODEGEN--\":10633:10635   */\n      0x20\n        /* \"--CODEGEN--\":10622:10631   */\n      dup4\n        /* \"--CODEGEN--\":10618:10636   */\n      add\n        /* \"--CODEGEN--\":10611:10659   */\n      mstore\n        /* \"--CODEGEN--\":10673:10781   */\n      tag_442\n        /* \"--CODEGEN--\":10776:10780   */\n      dup2\n        /* \"--CODEGEN--\":10767:10773   */\n      dup7\n        /* \"--CODEGEN--\":10673:10781   */\n      jump(tag_383)\n    tag_442:\n        /* \"--CODEGEN--\":10665:10781   */\n      swap1\n      pop\n        /* \"--CODEGEN--\":10829:10838   */\n      dup2\n        /* \"--CODEGEN--\":10823:10827   */\n      dup2\n        /* \"--CODEGEN--\":10819:10839   */\n      sub\n        /* \"--CODEGEN--\":10814:10816   */\n      0x40\n        /* \"--CODEGEN--\":10803:10812   */\n      dup4\n        /* \"--CODEGEN--\":10799:10817   */\n      add\n        /* \"--CODEGEN--\":10792:10840   */\n      mstore\n        /* \"--CODEGEN--\":10854:10962   */\n      tag_443\n        /* \"--CODEGEN--\":10957:10961   */\n      dup2\n        /* \"--CODEGEN--\":10948:10954   */\n      dup6\n        /* \"--CODEGEN--\":10854:10962   */\n      jump(tag_383)\n    tag_443:\n        /* \"--CODEGEN--\":10846:10962   */\n      swap1\n      pop\n        /* \"--CODEGEN--\":11010:11019   */\n      dup2\n        /* \"--CODEGEN--\":11004:11008   */\n      dup2\n        /* \"--CODEGEN--\":11000:11020   */\n      sub\n        /* \"--CODEGEN--\":10995:10997   */\n      0x60\n        /* \"--CODEGEN--\":10984:10993   */\n      dup4\n        /* \"--CODEGEN--\":10980:10998   */\n      add\n        /* \"--CODEGEN--\":10973:11021   */\n      mstore\n        /* \"--CODEGEN--\":11035:11137   */\n      tag_444\n        /* \"--CODEGEN--\":11132:11136   */\n      dup2\n        /* \"--CODEGEN--\":11123:11129   */\n      dup5\n        /* \"--CODEGEN--\":11035:11137   */\n      jump(tag_370)\n    tag_444:\n        /* \"--CODEGEN--\":11027:11137   */\n      swap1\n      pop\n        /* \"--CODEGEN--\":10387:11147   */\n      swap6\n      swap5\n      pop\n      pop\n      pop\n      pop\n      pop\n      jump\n        /* \"--CODEGEN--\":11154:11355   */\n    tag_34:\n      0x00\n        /* \"--CODEGEN--\":11266:11268   */\n      0x20\n        /* \"--CODEGEN--\":11255:11264   */\n      dup3\n        /* \"--CODEGEN--\":11251:11269   */\n      add\n        /* \"--CODEGEN--\":11243:11269   */\n      swap1\n      pop\n        /* \"--CODEGEN--\":11280:11345   */\n      tag_445\n        /* \"--CODEGEN--\":11342:11343   */\n      0x00\n        /* \"--CODEGEN--\":11331:11340   */\n      dup4\n        /* \"--CODEGEN--\":11327:11344   */\n      add\n        /* \"--CODEGEN--\":11318:11324   */\n      dup5\n        /* \"--CODEGEN--\":11280:11345   */\n      jump(tag_398)\n    tag_445:\n        /* \"--CODEGEN--\":11237:11355   */\n      swap3\n      swap2\n      pop\n      pop\n      jump\n        /* \"--CODEGEN--\":11362:11655   */\n    tag_28:\n      0x00\n        /* \"--CODEGEN--\":11496:11498   */\n      0x20\n        /* \"--CODEGEN--\":11485:11494   */\n      dup3\n        /* \"--CODEGEN--\":11481:11499   */\n      add\n        /* \"--CODEGEN--\":11473:11499   */\n      swap1\n      pop\n        /* \"--CODEGEN--\":11546:11555   */\n      dup2\n        /* \"--CODEGEN--\":11540:11544   */\n      dup2\n        /* \"--CODEGEN--\":11536:11556   */\n      sub\n        /* \"--CODEGEN--\":11532:11533   */\n      0x00\n        /* \"--CODEGEN--\":11521:11530   */\n      dup4\n        /* \"--CODEGEN--\":11517:11534   */\n      add\n        /* \"--CODEGEN--\":11510:11557   */\n      mstore\n        /* \"--CODEGEN--\":11571:11645   */\n      tag_446\n        /* \"--CODEGEN--\":11640:11644   */\n      dup2\n        /* \"--CODEGEN--\":11631:11637   */\n      dup5\n        /* \"--CODEGEN--\":11571:11645   */\n      jump(tag_400)\n    tag_446:\n        /* \"--CODEGEN--\":11563:11645   */\n      swap1\n      pop\n        /* \"--CODEGEN--\":11467:11655   */\n      swap3\n      swap2\n      pop\n      pop\n      jump\n        /* \"--CODEGEN--\":11662:12069   */\n    tag_130:\n      0x00\n        /* \"--CODEGEN--\":11853:11855   */\n      0x20\n        /* \"--CODEGEN--\":11842:11851   */\n      dup3\n        /* \"--CODEGEN--\":11838:11856   */\n      add\n        /* \"--CODEGEN--\":11830:11856   */\n      swap1\n      pop\n        /* \"--CODEGEN--\":11903:11912   */\n      dup2\n        /* \"--CODEGEN--\":11897:11901   */\n      dup2\n        /* \"--CODEGEN--\":11893:11913   */\n      sub\n        /* \"--CODEGEN--\":11889:11890   */\n      0x00\n        /* \"--CODEGEN--\":11878:11887   */\n      dup4\n        /* \"--CODEGEN--\":11874:11891   */\n      add\n        /* \"--CODEGEN--\":11867:11914   */\n      mstore\n        /* \"--CODEGEN--\":11928:12059   */\n      tag_447\n        /* \"--CODEGEN--\":12054:12058   */\n      dup2\n        /* \"--CODEGEN--\":11928:12059   */\n      jump(tag_409)\n    tag_447:\n        /* \"--CODEGEN--\":11920:12059   */\n      swap1\n      pop\n        /* \"--CODEGEN--\":11824:12069   */\n      swap2\n      swap1\n      pop\n      jump\n        /* \"--CODEGEN--\":12076:12483   */\n    tag_192:\n      0x00\n        /* \"--CODEGEN--\":12267:12269   */\n      0x20\n        /* \"--CODEGEN--\":12256:12265   */\n      dup3\n        /* \"--CODEGEN--\":12252:12270   */\n      add\n        /* \"--CODEGEN--\":12244:12270   */\n      swap1\n      pop\n        /* \"--CODEGEN--\":12317:12326   */\n      dup2\n        /* \"--CODEGEN--\":12311:12315   */\n      dup2\n        /* \"--CODEGEN--\":12307:12327   */\n      sub\n        /* \"--CODEGEN--\":12303:12304   */\n      0x00\n        /* \"--CODEGEN--\":12292:12301   */\n      dup4\n        /* \"--CODEGEN--\":12288:12305   */\n      add\n        /* \"--CODEGEN--\":12281:12328   */\n      mstore\n        /* \"--CODEGEN--\":12342:12473   */\n      tag_448\n        /* \"--CODEGEN--\":12468:12472   */\n      dup2\n        /* \"--CODEGEN--\":12342:12473   */\n      jump(tag_411)\n    tag_448:\n        /* \"--CODEGEN--\":12334:12473   */\n      swap1\n      pop\n        /* \"--CODEGEN--\":12238:12483   */\n      swap2\n      swap1\n      pop\n      jump\n        /* \"--CODEGEN--\":12490:12897   */\n    tag_125:\n      0x00\n        /* \"--CODEGEN--\":12681:12683   */\n      0x20\n        /* \"--CODEGEN--\":12670:12679   */\n      dup3\n        /* \"--CODEGEN--\":12666:12684   */\n      add\n        /* \"--CODEGEN--\":12658:12684   */\n      swap1\n      pop\n        /* \"--CODEGEN--\":12731:12740   */\n      dup2\n        /* \"--CODEGEN--\":12725:12729   */\n      dup2\n        /* \"--CODEGEN--\":12721:12741   */\n      sub\n        /* \"--CODEGEN--\":12717:12718   */\n      0x00\n        /* \"--CODEGEN--\":12706:12715   */\n      dup4\n        /* \"--CODEGEN--\":12702:12719   */\n      add\n        /* \"--CODEGEN--\":12695:12742   */\n      mstore\n        /* \"--CODEGEN--\":12756:12887   */\n      tag_449\n        /* \"--CODEGEN--\":12882:12886   */\n      dup2\n        /* \"--CODEGEN--\":12756:12887   */\n      jump(tag_413)\n    tag_449:\n        /* \"--CODEGEN--\":12748:12887   */\n      swap1\n      pop\n        /* \"--CODEGEN--\":12652:12897   */\n      swap2\n      swap1\n      pop\n      jump\n        /* \"--CODEGEN--\":12904:13311   */\n    tag_119:\n      0x00\n        /* \"--CODEGEN--\":13095:13097   */\n      0x20\n        /* \"--CODEGEN--\":13084:13093   */\n      dup3\n        /* \"--CODEGEN--\":13080:13098   */\n      add\n        /* \"--CODEGEN--\":13072:13098   */\n      swap1\n      pop\n        /* \"--CODEGEN--\":13145:13154   */\n      dup2\n        /* \"--CODEGEN--\":13139:13143   */\n      dup2\n        /* \"--CODEGEN--\":13135:13155   */\n      sub\n        /* \"--CODEGEN--\":13131:13132   */\n      0x00\n        /* \"--CODEGEN--\":13120:13129   */\n      dup4\n        /* \"--CODEGEN--\":13116:13133   */\n      add\n        /* \"--CODEGEN--\":13109:13156   */\n      mstore\n        /* \"--CODEGEN--\":13170:13301   */\n      tag_450\n        /* \"--CODEGEN--\":13296:13300   */\n      dup2\n        /* \"--CODEGEN--\":13170:13301   */\n      jump(tag_415)\n    tag_450:\n        /* \"--CODEGEN--\":13162:13301   */\n      swap1\n      pop\n        /* \"--CODEGEN--\":13066:13311   */\n      swap2\n      swap1\n      pop\n      jump\n        /* \"--CODEGEN--\":13318:13725   */\n    tag_203:\n      0x00\n        /* \"--CODEGEN--\":13509:13511   */\n      0x20\n        /* \"--CODEGEN--\":13498:13507   */\n      dup3\n        /* \"--CODEGEN--\":13494:13512   */\n      add\n        /* \"--CODEGEN--\":13486:13512   */\n      swap1\n      pop\n        /* \"--CODEGEN--\":13559:13568   */\n      dup2\n        /* \"--CODEGEN--\":13553:13557   */\n      dup2\n        /* \"--CODEGEN--\":13549:13569   */\n      sub\n        /* \"--CODEGEN--\":13545:13546   */\n      0x00\n        /* \"--CODEGEN--\":13534:13543   */\n      dup4\n        /* \"--CODEGEN--\":13530:13547   */\n      add\n        /* \"--CODEGEN--\":13523:13570   */\n      mstore\n        /* \"--CODEGEN--\":13584:13715   */\n      tag_451\n        /* \"--CODEGEN--\":13710:13714   */\n      dup2\n        /* \"--CODEGEN--\":13584:13715   */\n      jump(tag_417)\n    tag_451:\n        /* \"--CODEGEN--\":13576:13715   */\n      swap1\n      pop\n        /* \"--CODEGEN--\":13480:13725   */\n      swap2\n      swap1\n      pop\n      jump\n        /* \"--CODEGEN--\":13732:14139   */\n    tag_158:\n      0x00\n        /* \"--CODEGEN--\":13923:13925   */\n      0x20\n        /* \"--CODEGEN--\":13912:13921   */\n      dup3\n        /* \"--CODEGEN--\":13908:13926   */\n      add\n        /* \"--CODEGEN--\":13900:13926   */\n      swap1\n      pop\n        /* \"--CODEGEN--\":13973:13982   */\n      dup2\n        /* \"--CODEGEN--\":13967:13971   */\n      dup2\n        /* \"--CODEGEN--\":13963:13983   */\n      sub\n        /* \"--CODEGEN--\":13959:13960   */\n      0x00\n        /* \"--CODEGEN--\":13948:13957   */\n      dup4\n        /* \"--CODEGEN--\":13944:13961   */\n      add\n        /* \"--CODEGEN--\":13937:13984   */\n      mstore\n        /* \"--CODEGEN--\":13998:14129   */\n      tag_452\n        /* \"--CODEGEN--\":14124:14128   */\n      dup2\n        /* \"--CODEGEN--\":13998:14129   */\n      jump(tag_419)\n    tag_452:\n        /* \"--CODEGEN--\":13990:14129   */\n      swap1\n      pop\n        /* \"--CODEGEN--\":13894:14139   */\n      swap2\n      swap1\n      pop\n      jump\n        /* \"--CODEGEN--\":14146:14553   */\n    tag_122:\n      0x00\n        /* \"--CODEGEN--\":14337:14339   */\n      0x20\n        /* \"--CODEGEN--\":14326:14335   */\n      dup3\n        /* \"--CODEGEN--\":14322:14340   */\n      add\n        /* \"--CODEGEN--\":14314:14340   */\n      swap1\n      pop\n        /* \"--CODEGEN--\":14387:14396   */\n      dup2\n        /* \"--CODEGEN--\":14381:14385   */\n      dup2\n        /* \"--CODEGEN--\":14377:14397   */\n      sub\n        /* \"--CODEGEN--\":14373:14374   */\n      0x00\n        /* \"--CODEGEN--\":14362:14371   */\n      dup4\n        /* \"--CODEGEN--\":14358:14375   */\n      add\n        /* \"--CODEGEN--\":14351:14398   */\n      mstore\n        /* \"--CODEGEN--\":14412:14543   */\n      tag_453\n        /* \"--CODEGEN--\":14538:14542   */\n      dup2\n        /* \"--CODEGEN--\":14412:14543   */\n      jump(tag_421)\n    tag_453:\n        /* \"--CODEGEN--\":14404:14543   */\n      swap1\n      pop\n        /* \"--CODEGEN--\":14308:14553   */\n      swap2\n      swap1\n      pop\n      jump\n        /* \"--CODEGEN--\":14560:14967   */\n    tag_187:\n      0x00\n        /* \"--CODEGEN--\":14751:14753   */\n      0x20\n        /* \"--CODEGEN--\":14740:14749   */\n      dup3\n        /* \"--CODEGEN--\":14736:14754   */\n      add\n        /* \"--CODEGEN--\":14728:14754   */\n      swap1\n      pop\n        /* \"--CODEGEN--\":14801:14810   */\n      dup2\n        /* \"--CODEGEN--\":14795:14799   */\n      dup2\n        /* \"--CODEGEN--\":14791:14811   */\n      sub\n        /* \"--CODEGEN--\":14787:14788   */\n      0x00\n        /* \"--CODEGEN--\":14776:14785   */\n      dup4\n        /* \"--CODEGEN--\":14772:14789   */\n      add\n        /* \"--CODEGEN--\":14765:14812   */\n      mstore\n        /* \"--CODEGEN--\":14826:14957   */\n      tag_454\n        /* \"--CODEGEN--\":14952:14956   */\n      dup2\n        /* \"--CODEGEN--\":14826:14957   */\n      jump(tag_423)\n    tag_454:\n        /* \"--CODEGEN--\":14818:14957   */\n      swap1\n      pop\n        /* \"--CODEGEN--\":14722:14967   */\n      swap2\n      swap1\n      pop\n      jump\n        /* \"--CODEGEN--\":14974:15381   */\n    tag_200:\n      0x00\n        /* \"--CODEGEN--\":15165:15167   */\n      0x20\n        /* \"--CODEGEN--\":15154:15163   */\n      dup3\n        /* \"--CODEGEN--\":15150:15168   */\n      add\n        /* \"--CODEGEN--\":15142:15168   */\n      swap1\n      pop\n        /* \"--CODEGEN--\":15215:15224   */\n      dup2\n        /* \"--CODEGEN--\":15209:15213   */\n      dup2\n        /* \"--CODEGEN--\":15205:15225   */\n      sub\n        /* \"--CODEGEN--\":15201:15202   */\n      0x00\n        /* \"--CODEGEN--\":15190:15199   */\n      dup4\n        /* \"--CODEGEN--\":15186:15203   */\n      add\n        /* \"--CODEGEN--\":15179:15226   */\n      mstore\n        /* \"--CODEGEN--\":15240:15371   */\n      tag_455\n        /* \"--CODEGEN--\":15366:15370   */\n      dup2\n        /* \"--CODEGEN--\":15240:15371   */\n      jump(tag_425)\n    tag_455:\n        /* \"--CODEGEN--\":15232:15371   */\n      swap1\n      pop\n        /* \"--CODEGEN--\":15136:15381   */\n      swap2\n      swap1\n      pop\n      jump\n        /* \"--CODEGEN--\":15388:15795   */\n    tag_195:\n      0x00\n        /* \"--CODEGEN--\":15579:15581   */\n      0x20\n        /* \"--CODEGEN--\":15568:15577   */\n      dup3\n        /* \"--CODEGEN--\":15564:15582   */\n      add\n        /* \"--CODEGEN--\":15556:15582   */\n      swap1\n      pop\n        /* \"--CODEGEN--\":15629:15638   */\n      dup2\n        /* \"--CODEGEN--\":15623:15627   */\n      dup2\n        /* \"--CODEGEN--\":15619:15639   */\n      sub\n        /* \"--CODEGEN--\":15615:15616   */\n      0x00\n        /* \"--CODEGEN--\":15604:15613   */\n      dup4\n        /* \"--CODEGEN--\":15600:15617   */\n      add\n        /* \"--CODEGEN--\":15593:15640   */\n      mstore\n        /* \"--CODEGEN--\":15654:15785   */\n      tag_456\n        /* \"--CODEGEN--\":15780:15784   */\n      dup2\n        /* \"--CODEGEN--\":15654:15785   */\n      jump(tag_427)\n    tag_456:\n        /* \"--CODEGEN--\":15646:15785   */\n      swap1\n      pop\n        /* \"--CODEGEN--\":15550:15795   */\n      swap2\n      swap1\n      pop\n      jump\n        /* \"--CODEGEN--\":15802:16209   */\n    tag_113:\n      0x00\n        /* \"--CODEGEN--\":15993:15995   */\n      0x20\n        /* \"--CODEGEN--\":15982:15991   */\n      dup3\n        /* \"--CODEGEN--\":15978:15996   */\n      add\n        /* \"--CODEGEN--\":15970:15996   */\n      swap1\n      pop\n        /* \"--CODEGEN--\":16043:16052   */\n      dup2\n        /* \"--CODEGEN--\":16037:16041   */\n      dup2\n        /* \"--CODEGEN--\":16033:16053   */\n      sub\n        /* \"--CODEGEN--\":16029:16030   */\n      0x00\n        /* \"--CODEGEN--\":16018:16027   */\n      dup4\n        /* \"--CODEGEN--\":16014:16031   */\n      add\n        /* \"--CODEGEN--\":16007:16054   */\n      mstore\n        /* \"--CODEGEN--\":16068:16199   */\n      tag_457\n        /* \"--CODEGEN--\":16194:16198   */\n      dup2\n        /* \"--CODEGEN--\":16068:16199   */\n      jump(tag_429)\n    tag_457:\n        /* \"--CODEGEN--\":16060:16199   */\n      swap1\n      pop\n        /* \"--CODEGEN--\":15964:16209   */\n      swap2\n      swap1\n      pop\n      jump\n        /* \"--CODEGEN--\":16216:16429   */\n    tag_38:\n      0x00\n        /* \"--CODEGEN--\":16334:16336   */\n      0x20\n        /* \"--CODEGEN--\":16323:16332   */\n      dup3\n        /* \"--CODEGEN--\":16319:16337   */\n      add\n        /* \"--CODEGEN--\":16311:16337   */\n      swap1\n      pop\n        /* \"--CODEGEN--\":16348:16419   */\n      tag_458\n        /* \"--CODEGEN--\":16416:16417   */\n      0x00\n        /* \"--CODEGEN--\":16405:16414   */\n      dup4\n        /* \"--CODEGEN--\":16401:16418   */\n      add\n        /* \"--CODEGEN--\":16392:16398   */\n      dup5\n        /* \"--CODEGEN--\":16348:16419   */\n      jump(tag_433)\n    tag_458:\n        /* \"--CODEGEN--\":16305:16429   */\n      swap3\n      swap2\n      pop\n      pop\n      jump\n        /* \"--CODEGEN--\":16436:16760   */\n    tag_72:\n      0x00\n        /* \"--CODEGEN--\":16582:16584   */\n      0x40\n        /* \"--CODEGEN--\":16571:16580   */\n      dup3\n        /* \"--CODEGEN--\":16567:16585   */\n      add\n        /* \"--CODEGEN--\":16559:16585   */\n      swap1\n      pop\n        /* \"--CODEGEN--\":16596:16667   */\n      tag_459\n        /* \"--CODEGEN--\":16664:16665   */\n      0x00\n        /* \"--CODEGEN--\":16653:16662   */\n      dup4\n        /* \"--CODEGEN--\":16649:16666   */\n      add\n        /* \"--CODEGEN--\":16640:16646   */\n      dup6\n        /* \"--CODEGEN--\":16596:16667   */\n      jump(tag_433)\n    tag_459:\n        /* \"--CODEGEN--\":16678:16750   */\n      tag_460\n        /* \"--CODEGEN--\":16746:16748   */\n      0x20\n        /* \"--CODEGEN--\":16735:16744   */\n      dup4\n        /* \"--CODEGEN--\":16731:16749   */\n      add\n        /* \"--CODEGEN--\":16722:16728   */\n      dup5\n        /* \"--CODEGEN--\":16678:16750   */\n      jump(tag_433)\n    tag_460:\n        /* \"--CODEGEN--\":16553:16760   */\n      swap4\n      swap3\n      pop\n      pop\n      pop\n      jump\n        /* \"--CODEGEN--\":16767:16972   */\n    tag_47:\n      0x00\n        /* \"--CODEGEN--\":16881:16883   */\n      0x20\n        /* \"--CODEGEN--\":16870:16879   */\n      dup3\n        /* \"--CODEGEN--\":16866:16884   */\n      add\n        /* \"--CODEGEN--\":16858:16884   */\n      swap1\n      pop\n        /* \"--CODEGEN--\":16895:16962   */\n      tag_461\n        /* \"--CODEGEN--\":16959:16960   */\n      0x00\n        /* \"--CODEGEN--\":16948:16957   */\n      dup4\n        /* \"--CODEGEN--\":16944:16961   */\n      add\n        /* \"--CODEGEN--\":16935:16941   */\n      dup5\n        /* \"--CODEGEN--\":16895:16962   */\n      jump(tag_435)\n    tag_461:\n        /* \"--CODEGEN--\":16852:16972   */\n      swap3\n      swap2\n      pop\n      pop\n      jump\n        /* \"--CODEGEN--\":16979:17127   */\n    tag_376:\n      0x00\n        /* \"--CODEGEN--\":17062:17065   */\n      dup2\n        /* \"--CODEGEN--\":17054:17065   */\n      swap1\n      pop\n        /* \"--CODEGEN--\":17100:17104   */\n      0x20\n        /* \"--CODEGEN--\":17095:17098   */\n      dup3\n        /* \"--CODEGEN--\":17091:17105   */\n      add\n        /* \"--CODEGEN--\":17083:17105   */\n      swap1\n      pop\n        /* \"--CODEGEN--\":17048:17127   */\n      swap2\n      swap1\n      pop\n      jump\n        /* \"--CODEGEN--\":17134:17285   */\n    tag_389:\n      0x00\n        /* \"--CODEGEN--\":17220:17223   */\n      dup2\n        /* \"--CODEGEN--\":17212:17223   */\n      swap1\n      pop\n        /* \"--CODEGEN--\":17258:17262   */\n      0x20\n        /* \"--CODEGEN--\":17253:17256   */\n      dup3\n        /* \"--CODEGEN--\":17249:17263   */\n      add\n        /* \"--CODEGEN--\":17241:17263   */\n      swap1\n      pop\n        /* \"--CODEGEN--\":17206:17285   */\n      swap2\n      swap1\n      pop\n      jump\n        /* \"--CODEGEN--\":17292:17426   */\n    tag_372:\n      0x00\n        /* \"--CODEGEN--\":17398:17403   */\n      dup2\n        /* \"--CODEGEN--\":17392:17404   */\n      mload\n        /* \"--CODEGEN--\":17382:17404   */\n      swap1\n      pop\n        /* \"--CODEGEN--\":17363:17426   */\n      swap2\n      swap1\n      pop\n      jump\n        /* \"--CODEGEN--\":17433:17570   */\n    tag_385:\n      0x00\n        /* \"--CODEGEN--\":17542:17547   */\n      dup2\n        /* \"--CODEGEN--\":17536:17548   */\n      mload\n        /* \"--CODEGEN--\":17526:17548   */\n      swap1\n      pop\n        /* \"--CODEGEN--\":17507:17570   */\n      swap2\n      swap1\n      pop\n      jump\n        /* \"--CODEGEN--\":17577:17695   */\n    tag_402:\n      0x00\n        /* \"--CODEGEN--\":17667:17672   */\n      dup2\n        /* \"--CODEGEN--\":17661:17673   */\n      mload\n        /* \"--CODEGEN--\":17651:17673   */\n      swap1\n      pop\n        /* \"--CODEGEN--\":17632:17695   */\n      swap2\n      swap1\n      pop\n      jump\n        /* \"--CODEGEN--\":17702:17807   */\n    tag_382:\n      0x00\n        /* \"--CODEGEN--\":17797:17801   */\n      0x20\n        /* \"--CODEGEN--\":17792:17795   */\n      dup3\n        /* \"--CODEGEN--\":17788:17802   */\n      add\n        /* \"--CODEGEN--\":17780:17802   */\n      swap1\n      pop\n        /* \"--CODEGEN--\":17774:17807   */\n      swap2\n      swap1\n      pop\n      jump\n        /* \"--CODEGEN--\":17814:17922   */\n    tag_395:\n      0x00\n        /* \"--CODEGEN--\":17912:17916   */\n      0x20\n        /* \"--CODEGEN--\":17907:17910   */\n      dup3\n        /* \"--CODEGEN--\":17903:17917   */\n      add\n        /* \"--CODEGEN--\":17895:17917   */\n      swap1\n      pop\n        /* \"--CODEGEN--\":17889:17922   */\n      swap2\n      swap1\n      pop\n      jump\n        /* \"--CODEGEN--\":17930:18105   */\n    tag_374:\n      0x00\n        /* \"--CODEGEN--\":18057:18063   */\n      dup3\n        /* \"--CODEGEN--\":18052:18055   */\n      dup3\n        /* \"--CODEGEN--\":18045:18064   */\n      mstore\n        /* \"--CODEGEN--\":18094:18098   */\n      0x20\n        /* \"--CODEGEN--\":18089:18092   */\n      dup3\n        /* \"--CODEGEN--\":18085:18099   */\n      add\n        /* \"--CODEGEN--\":18070:18099   */\n      swap1\n      pop\n        /* \"--CODEGEN--\":18038:18105   */\n      swap3\n      swap2\n      pop\n      pop\n      jump\n        /* \"--CODEGEN--\":18114:18292   */\n    tag_387:\n      0x00\n        /* \"--CODEGEN--\":18244:18250   */\n      dup3\n        /* \"--CODEGEN--\":18239:18242   */\n      dup3\n        /* \"--CODEGEN--\":18232:18251   */\n      mstore\n        /* \"--CODEGEN--\":18281:18285   */\n      0x20\n        /* \"--CODEGEN--\":18276:18279   */\n      dup3\n        /* \"--CODEGEN--\":18272:18286   */\n      add\n        /* \"--CODEGEN--\":18257:18286   */\n      swap1\n      pop\n        /* \"--CODEGEN--\":18225:18292   */\n      swap3\n      swap2\n      pop\n      pop\n      jump\n        /* \"--CODEGEN--\":18301:18464   */\n    tag_404:\n      0x00\n        /* \"--CODEGEN--\":18416:18422   */\n      dup3\n        /* \"--CODEGEN--\":18411:18414   */\n      dup3\n        /* \"--CODEGEN--\":18404:18423   */\n      mstore\n        /* \"--CODEGEN--\":18453:18457   */\n      0x20\n        /* \"--CODEGEN--\":18448:18451   */\n      dup3\n        /* \"--CODEGEN--\":18444:18458   */\n      add\n        /* \"--CODEGEN--\":18429:18458   */\n      swap1\n      pop\n        /* \"--CODEGEN--\":18397:18464   */\n      swap3\n      swap2\n      pop\n      pop\n      jump\n        /* \"--CODEGEN--\":18472:18563   */\n    tag_369:\n      0x00\n        /* \"--CODEGEN--\":18534:18558   */\n      tag_462\n        /* \"--CODEGEN--\":18552:18557   */\n      dup3\n        /* \"--CODEGEN--\":18534:18558   */\n      jump(tag_463)\n    tag_462:\n        /* \"--CODEGEN--\":18523:18558   */\n      swap1\n      pop\n        /* \"--CODEGEN--\":18517:18563   */\n      swap2\n      swap1\n      pop\n      jump\n        /* \"--CODEGEN--\":18570:18655   */\n    tag_397:\n      0x00\n        /* \"--CODEGEN--\":18643:18648   */\n      dup2\n        /* \"--CODEGEN--\":18636:18649   */\n      iszero\n        /* \"--CODEGEN--\":18629:18650   */\n      iszero\n        /* \"--CODEGEN--\":18618:18650   */\n      swap1\n      pop\n        /* \"--CODEGEN--\":18612:18655   */\n      swap2\n      swap1\n      pop\n      jump\n        /* \"--CODEGEN--\":18662:18783   */\n    tag_463:\n      0x00\n        /* \"--CODEGEN--\":18735:18777   */\n      0xffffffffffffffffffffffffffffffffffffffff\n        /* \"--CODEGEN--\":18728:18733   */\n      dup3\n        /* \"--CODEGEN--\":18724:18778   */\n      and\n        /* \"--CODEGEN--\":18713:18778   */\n      swap1\n      pop\n        /* \"--CODEGEN--\":18707:18783   */\n      swap2\n      swap1\n      pop\n      jump\n        /* \"--CODEGEN--\":18790:18862   */\n    tag_432:\n      0x00\n        /* \"--CODEGEN--\":18852:18857   */\n      dup2\n        /* \"--CODEGEN--\":18841:18857   */\n      swap1\n      pop\n        /* \"--CODEGEN--\":18835:18862   */\n      swap2\n      swap1\n      pop\n      jump\n        /* \"--CODEGEN--\":18869:18950   */\n    tag_437:\n      0x00\n        /* \"--CODEGEN--\":18940:18944   */\n      0xff\n        /* \"--CODEGEN--\":18933:18938   */\n      dup3\n        /* \"--CODEGEN--\":18929:18945   */\n      and\n        /* \"--CODEGEN--\":18918:18945   */\n      swap1\n      pop\n        /* \"--CODEGEN--\":18912:18950   */\n      swap2\n      swap1\n      pop\n      jump\n        /* \"--CODEGEN--\":18958:19226   */\n    tag_406:\n        /* \"--CODEGEN--\":19023:19024   */\n      0x00\n        /* \"--CODEGEN--\":19030:19131   */\n    tag_464:\n        /* \"--CODEGEN--\":19044:19050   */\n      dup4\n        /* \"--CODEGEN--\":19041:19042   */\n      dup2\n        /* \"--CODEGEN--\":19038:19051   */\n      lt\n        /* \"--CODEGEN--\":19030:19131   */\n      iszero\n      tag_466\n      jumpi\n        /* \"--CODEGEN--\":19120:19121   */\n      dup1\n        /* \"--CODEGEN--\":19115:19118   */\n      dup3\n        /* \"--CODEGEN--\":19111:19122   */\n      add\n        /* \"--CODEGEN--\":19105:19123   */\n      mload\n        /* \"--CODEGEN--\":19101:19102   */\n      dup2\n        /* \"--CODEGEN--\":19096:19099   */\n      dup5\n        /* \"--CODEGEN--\":19092:19103   */\n      add\n        /* \"--CODEGEN--\":19085:19124   */\n      mstore\n        /* \"--CODEGEN--\":19066:19068   */\n      0x20\n        /* \"--CODEGEN--\":19063:19064   */\n      dup2\n        /* \"--CODEGEN--\":19059:19069   */\n      add\n        /* \"--CODEGEN--\":19054:19069   */\n      swap1\n      pop\n        /* \"--CODEGEN--\":19030:19131   */\n      jump(tag_464)\n    tag_466:\n        /* \"--CODEGEN--\":19146:19152   */\n      dup4\n        /* \"--CODEGEN--\":19143:19144   */\n      dup2\n        /* \"--CODEGEN--\":19140:19153   */\n      gt\n        /* \"--CODEGEN--\":19137:19139   */\n      iszero\n      tag_467\n      jumpi\n        /* \"--CODEGEN--\":19211:19212   */\n      0x00\n        /* \"--CODEGEN--\":19202:19208   */\n      dup5\n        /* \"--CODEGEN--\":19197:19200   */\n      dup5\n        /* \"--CODEGEN--\":19193:19209   */\n      add\n        /* \"--CODEGEN--\":19186:19213   */\n      mstore\n        /* \"--CODEGEN--\":19137:19139   */\n    tag_467:\n        /* \"--CODEGEN--\":19007:19226   */\n      pop\n      pop\n      pop\n      pop\n      jump\n        /* \"--CODEGEN--\":19234:19331   */\n    tag_408:\n      0x00\n        /* \"--CODEGEN--\":19322:19324   */\n      0x1f\n        /* \"--CODEGEN--\":19318:19325   */\n      not\n        /* \"--CODEGEN--\":19313:19315   */\n      0x1f\n        /* \"--CODEGEN--\":19306:19311   */\n      dup4\n        /* \"--CODEGEN--\":19302:19316   */\n      add\n        /* \"--CODEGEN--\":19298:19326   */\n      and\n        /* \"--CODEGEN--\":19288:19326   */\n      swap1\n      pop\n        /* \"--CODEGEN--\":19282:19331   */\n      swap2\n      swap1\n      pop\n      jump\n        /* \"--CODEGEN--\":19339:19456   */\n    tag_341:\n        /* \"--CODEGEN--\":19408:19432   */\n      tag_468\n        /* \"--CODEGEN--\":19426:19431   */\n      dup2\n        /* \"--CODEGEN--\":19408:19432   */\n      jump(tag_369)\n    tag_468:\n        /* \"--CODEGEN--\":19401:19406   */\n      dup2\n        /* \"--CODEGEN--\":19398:19433   */\n      eq\n        /* \"--CODEGEN--\":19388:19390   */\n      tag_469\n      jumpi\n        /* \"--CODEGEN--\":19447:19448   */\n      0x00\n        /* \"--CODEGEN--\":19444:19445   */\n      dup1\n        /* \"--CODEGEN--\":19437:19449   */\n      revert\n        /* \"--CODEGEN--\":19388:19390   */\n    tag_469:\n        /* \"--CODEGEN--\":19382:19456   */\n      pop\n      jump\n        /* \"--CODEGEN--\":19463:19580   */\n    tag_344:\n        /* \"--CODEGEN--\":19532:19556   */\n      tag_470\n        /* \"--CODEGEN--\":19550:19555   */\n      dup2\n        /* \"--CODEGEN--\":19532:19556   */\n      jump(tag_432)\n    tag_470:\n        /* \"--CODEGEN--\":19525:19530   */\n      dup2\n        /* \"--CODEGEN--\":19522:19557   */\n      eq\n        /* \"--CODEGEN--\":19512:19514   */\n      tag_471\n      jumpi\n        /* \"--CODEGEN--\":19571:19572   */\n      0x00\n        /* \"--CODEGEN--\":19568:19569   */\n      dup1\n        /* \"--CODEGEN--\":19561:19573   */\n      revert\n        /* \"--CODEGEN--\":19512:19514   */\n    tag_471:\n        /* \"--CODEGEN--\":19506:19580   */\n      pop\n      jump\n\n    auxdata: 0xa365627a7a723058202fd5ba9a9817a39f713b44847389f55224af1eb15ee59deee07be6a9d45463196c6578706572696d656e74616cf564736f6c634300050a0040\n}\n",
				"bytecode": {
					"linkReferences": {},
					"object": "60806040526040518060400160405280600a81526020017f5553445420546f6b656e00000000000000000000000000000000000000000000815250600090805190602001906200005192919062000143565b506040518060400160405280600481526020017f5553445400000000000000000000000000000000000000000000000000000000815250600190805190602001906200009f92919062000143565b506006600260006101000a81548160ff021916908360ff16021790555060405180608001604052806042815260200162002c3e6042913960059080519060200190620000ed92919062000143565b50348015620000fb57600080fd5b5033600460006101000a81548173ffffffffffffffffffffffffffffffffffffffff021916908373ffffffffffffffffffffffffffffffffffffffff160217905550620001f2565b828054600181600116156101000203166002900490600052602060002090601f016020900481019282601f106200018657805160ff1916838001178555620001b7565b82800160010185558215620001b7579182015b82811115620001b657825182559160200191906001019062000199565b5b509050620001c69190620001ca565b5090565b620001ef91905b80821115620001eb576000816000905550600101620001d1565b5090565b90565b612a3c80620002026000396000f3fe608060405234801561001057600080fd5b50600436106101215760003560e01c80638da5cb5b116100ad578063b0f9dfbf11610071578063b0f9dfbf1461034a578063b40792b91461037a578063b5b3e35a146103ab578063cd437bda146103c7578063dd62ed3e146103f857610121565b80638da5cb5b1461027a57806391b46a911461029857806395d89b41146102c9578063a8e8486e146102e7578063a9059cbb1461031a57610121565b8063313ce567116100f4578063313ce567146101c25780633345906f146101e05780636bb38b281461021057806370a082311461022e5780637a825b101461025e57610121565b806306fdde0314610126578063095ea7b31461014457806318160ddd1461017457806323b872dd14610192575b600080fd5b61012e610428565b60405161013b91906126c3565b60405180910390f35b61015e6004803603610159919081019061212b565b6104c6565b60405161016b91906126a8565b60405180910390f35b61017c610632565b6040516101899190612845565b60405180910390f35b6101ac60048036036101a791908101906120dc565b610638565b6040516101b991906126a8565b60405180910390f35b6101ca610d3e565b6040516101d79190612889565b60405180910390f35b6101fa60048036036101f59190810190612077565b610d51565b6040516102079190612845565b60405180910390f35b610218610e2c565b60405161022591906126c3565b60405180910390f35b61024860048036036102439190810190612077565b610eca565b6040516102559190612845565b60405180910390f35b61027860048036036102739190810190612167565b610f85565b005b61028261123c565b60405161028f91906125f5565b60405180910390f35b6102b260048036036102ad919081019061212b565b611262565b6040516102c0929190612860565b60405180910390f35b6102d16112a0565b6040516102de91906126c3565b60405180910390f35b61030160048036036102fc9190810190612077565b61133e565b6040516103119493929190612647565b60405180910390f35b610334600480360361032f919081019061212b565b611575565b60405161034191906126a8565b60405180910390f35b610364600480360361035f9190810190612077565b61158a565b6040516103719190612845565b60405180910390f35b610394600480360361038f9190810190612077565b6118ff565b6040516103a2929190612610565b60405180910390f35b6103c560048036036103c09190810190612167565b611b23565b005b6103e160048036036103dc9190810190612077565b611d99565b6040516103ef929190612610565b60405180910390f35b610412600480360361040d91908101906120a0565b611fbb565b60405161041f9190612845565b60405180910390f35b60008054600181600116156101000203166002900480601f0160208091040260200160405190810160405280929190818152602001828054600181600116156101000203166002900480156104be5780601f10610493576101008083540402835291602001916104be565b820191906000526020600020905b8154815290600101906020018083116104a157829003601f168201915b505050505081565b60006104d13361158a565b50600073ffffffffffffffffffffffffffffffffffffffff168373ffffffffffffffffffffffffffffffffffffffff161415610542576040517f08c379a000000000000000000000000000000000000000000000000000000000815260040161053990612825565b60405180910390fd5b81600760003373ffffffffffffffffffffffffffffffffffffffff1673ffffffffffffffffffffffffffffffffffffffff16815260200190815260200160002060008573ffffffffffffffffffffffffffffffffffffffff1673ffffffffffffffffffffffffffffffffffffffff168152602001908152602001600020819055508273ffffffffffffffffffffffffffffffffffffffff163373ffffffffffffffffffffffffffffffffffffffff167f8c5be1e5ebec7d5bd14f71427d1e84f3dd0314c0f7b2291e5b200ac8c7c3b925846040516106209190612845565b60405180910390a36001905092915050565b60035481565b60006106438461158a565b50600073ffffffffffffffffffffffffffffffffffffffff168473ffffffffffffffffffffffffffffffffffffffff1614156106b4576040517f08c379a00000000000000000000000000000000000000000000000000000000081526004016106ab90612745565b60405180910390fd5b600073ffffffffffffffffffffffffffffffffffffffff168373ffffffffffffffffffffffffffffffffffffffff161415610724576040517f08c379a000000000000000000000000000000000000000000000000000000000815260040161071b906127a5565b60405180910390fd5b60008211610767576040517f08c379a000000000000000000000000000000000000000000000000000000000815260040161075e90612725565b60405180910390fd5b6107708461158a565b508373ffffffffffffffffffffffffffffffffffffffff163373ffffffffffffffffffffffffffffffffffffffff16146109ce576000600760008673ffffffffffffffffffffffffffffffffffffffff1673ffffffffffffffffffffffffffffffffffffffff16815260200190815260200160002060003373ffffffffffffffffffffffffffffffffffffffff1673ffffffffffffffffffffffffffffffffffffffff16815260200190815260200160002054905082811015610868576040517f08c379a000000000000000000000000000000000000000000000000000000000815260040161085f906126e5565b60405180910390fd5b828103600760008773ffffffffffffffffffffffffffffffffffffffff1673ffffffffffffffffffffffffffffffffffffffff16815260200190815260200160002060003373ffffffffffffffffffffffffffffffffffffffff1673ffffffffffffffffffffffffffffffffffffffff168152602001908152602001600020819055503373ffffffffffffffffffffffffffffffffffffffff168573ffffffffffffffffffffffffffffffffffffffff167f8c5be1e5ebec7d5bd14f71427d1e84f3dd0314c0f7b2291e5b200ac8c7c3b925600760008973ffffffffffffffffffffffffffffffffffffffff1673ffffffffffffffffffffffffffffffffffffffff16815260200190815260200160002060003373ffffffffffffffffffffffffffffffffffffffff1673ffffffffffffffffffffffffffffffffffffffff168152602001908152602001600020546040516109c49190612845565b60405180910390a3505b6000600660008673ffffffffffffffffffffffffffffffffffffffff1673ffffffffffffffffffffffffffffffffffffffff1681526020019081526020016000209050600083905060008090505b828054905081108015610a2f5750600082115b15610c8857828181548110610a4057fe5b90600052602060002090600202016001015442101580610a7d57506000838281548110610a6957fe5b906000526020600020906002020160000154145b15610a8757610c7b565b6000838281548110610a9557fe5b906000526020600020906002020160000154905082811115610b985782848381548110610abe57fe5b906000526020600020906002020160000160008282540392505081905550600660008873ffffffffffffffffffffffffffffffffffffffff1673ffffffffffffffffffffffffffffffffffffffff1681526020019081526020016000206040518060400160405280858152602001868581548110610b3857fe5b90600052602060002090600202016001015481525090806001815401808255809150509060018203906000526020600020906002020160009091929091909150600082015181600001556020820151816001015550505060009250610c79565b6000848381548110610ba657fe5b906000526020600020906002020160000181905550600660008873ffffffffffffffffffffffffffffffffffffffff1673ffffffffffffffffffffffffffffffffffffffff1681526020019081526020016000206040518060400160405280838152602001868581548110610c1757fe5b906000526020600020906002020160010154815250908060018154018082558091505090600182039060005260206000209060020201600090919290919091506000820151816000015560208201518160010155505050808303925050610c88565b505b8080600101915050610a1c565b5060008114610ccc576040517f08c379a0000000000000000000000000000000000000000000000000000000008152600401610cc390612785565b60405180910390fd5b8473ffffffffffffffffffffffffffffffffffffffff168673ffffffffffffffffffffffffffffffffffffffff167fddf252ad1be2c89b69c2b068fc378daa952ba7f163c4a11628f55a4df523b3ef86604051610d299190612845565b60405180910390a36001925050509392505050565b600260009054906101000a900460ff1681565b600080600660008473ffffffffffffffffffffffffffffffffffffffff1673ffffffffffffffffffffffffffffffffffffffff168152602001908152602001600020905060008090505b8180549050811015610e2557818181548110610db357fe5b90600052602060002090600202016001015442108015610df057506000828281548110610ddc57fe5b906000526020600020906002020160000154115b15610e1857818181548110610e0157fe5b906000526020600020906002020160000154830192505b8080600101915050610d9b565b5050919050565b60058054600181600116156101000203166002900480601f016020809104026020016040519081016040528092919081815260200182805460018160011615610100020316600290048015610ec25780601f10610e9757610100808354040283529160200191610ec2565b820191906000526020600020905b815481529060010190602001808311610ea557829003601f168201915b505050505081565b600080600660008473ffffffffffffffffffffffffffffffffffffffff1673ffffffffffffffffffffffffffffffffffffffff1681526020019081526020016000209050600080905060008090505b8280549050811015610f7a57828181548110610f3157fe5b906000526020600020906002020160010154421015610f6d57828181548110610f5657fe5b906000526020600020906002020160000154820191505b8080600101915050610f19565b508092505050919050565b600460009054906101000a900473ffffffffffffffffffffffffffffffffffffffff1673ffffffffffffffffffffffffffffffffffffffff163373ffffffffffffffffffffffffffffffffffffffff1614611015576040517f08c379a000000000000000000000000000000000000000000000000000000000815260040161100c906127c5565b60405180910390fd5b61101e8361158a565b50600073ffffffffffffffffffffffffffffffffffffffff168373ffffffffffffffffffffffffffffffffffffffff16141561108f576040517f08c379a000000000000000000000000000000000000000000000000000000000815260040161108690612705565b60405180910390fd5b6000600660008573ffffffffffffffffffffffffffffffffffffffff1673ffffffffffffffffffffffffffffffffffffffff168152602001908152602001600020905080805490508310611118576040517f08c379a000000000000000000000000000000000000000000000000000000000815260040161110f90612805565b60405180910390fd5b600081848154811061112657fe5b90600052602060002090600202016000015411611178576040517f08c379a000000000000000000000000000000000000000000000000000000000815260040161116f906127e5565b60405180910390fd5b6000603c8302420190504281116111c4576040517f08c379a00000000000000000000000000000000000000000000000000000000081526004016111bb90612765565b60405180910390fd5b808285815481106111d157fe5b906000526020600020906002020160010181905550838573ffffffffffffffffffffffffffffffffffffffff167f2fbda298b5b96dd64c5d8e502aa9bc32fc01887dac2b05c9b8196d4e004649668360405161122d9190612845565b60405180910390a35050505050565b600460009054906101000a900473ffffffffffffffffffffffffffffffffffffffff1681565b6006602052816000526040600020818154811061127b57fe5b9060005260206000209060020201600091509150508060000154908060010154905082565b60018054600181600116156101000203166002900480601f0160208091040260200160405190810160405280929190818152602001828054600181600116156101000203166002900480156113365780601f1061130b57610100808354040283529160200191611336565b820191906000526020600020905b81548152906001019060200180831161131957829003601f168201915b505050505081565b6060806060806000600660008773ffffffffffffffffffffffffffffffffffffffff1673ffffffffffffffffffffffffffffffffffffffff1681526020019081526020016000209050600081805490509050806040519080825280602002602001820160405280156113bf5781602001602082028038833980820191505090505b509550806040519080825280602002602001820160405280156113f15781602001602082028038833980820191505090505b509450806040519080825280602002602001820160405280156114235781602001602082028038833980820191505090505b509350806040519080825280602002602001820160405280156114555781602001602082028038833980820191505090505b50925060008090505b8181101561155f578087828151811061147357fe5b60200260200101818152505082818154811061148b57fe5b9060005260206000209060020201600001548682815181106114a957fe5b6020026020010181815250508281815481106114c157fe5b9060005260206000209060020201600101548582815181106114df57fe5b6020026020010181815250508281815481106114f757fe5b906000526020600020906002020160010154421080156115345750600083828154811061152057fe5b906000526020600020906002020160000154115b84828151811061154057fe5b602002602001019015159081151581525050808060010191505061145e565b5085858585955095509550955050509193509193565b6000611582338484610638565b905092915050565b600080600660008473ffffffffffffffffffffffffffffffffffffffff1673ffffffffffffffffffffffffffffffffffffffff16815260200190815260200160002090506060818054905060405190808252806020026020018201604052801561160e57816020015b6115fb611fe0565b8152602001906001900390816115f35790505b509050600080905060008090505b83805490508110156117295783818154811061163457fe5b90600052602060002090600202016001015442101580156116725750600084828154811061165e57fe5b906000526020600020906002020160000154115b1561169e5783818154811061168357fe5b9060005260206000209060020201600001548501945061171c565b60008482815481106116ac57fe5b906000526020600020906002020160000154111561171b578381815481106116d057fe5b90600052602060002090600202016040518060400160405290816000820154815260200160018201548152505083838060010194508151811061170f57fe5b60200260200101819052505b5b808060010191505061161c565b50600660008673ffffffffffffffffffffffffffffffffffffffff1673ffffffffffffffffffffffffffffffffffffffff16815260200190815260200160002060006117759190611ffa565b60008090505b8181101561182557600660008773ffffffffffffffffffffffffffffffffffffffff1673ffffffffffffffffffffffffffffffffffffffff1681526020019081526020016000208382815181106117ce57fe5b6020026020010151908060018154018082558091505090600182039060005260206000209060020201600090919290919091506000820151816000015560208201518160010155505050808060010191505061177b565b5060008411156118f457836003600082825403925050819055508473ffffffffffffffffffffffffffffffffffffffff167f696de425f79f4a40bc6d2122ca50507f0efbeabbff86a84871b7196ab8ea8df7856040516118859190612845565b60405180910390a2600073ffffffffffffffffffffffffffffffffffffffff168573ffffffffffffffffffffffffffffffffffffffff167fddf252ad1be2c89b69c2b068fc378daa952ba7f163c4a11628f55a4df523b3ef866040516118eb9190612845565b60405180910390a35b839350505050919050565b6060806000600660008573ffffffffffffffffffffffffffffffffffffffff1673ffffffffffffffffffffffffffffffffffffffff1681526020019081526020016000209050600080905060008090505b82805490508110156119c15782818154811061196857fe5b90600052602060002090600202016001015442101580156119a65750600083828154811061199257fe5b906000526020600020906002020160000154115b156119b45781806001019250505b8080600101915050611950565b506060816040519080825280602002602001820160405280156119f35781602001602082028038833980820191505090505b509050606082604051908082528060200260200182016040528015611a275781602001602082028038833980820191505090505b509050600080905060008090505b8580549050811015611b1257858181548110611a4d57fe5b9060005260206000209060020201600101544210158015611a8b57506000868281548110611a7757fe5b906000526020600020906002020160000154115b15611b0557858181548110611a9c57fe5b906000526020600020906002020160000154848381518110611aba57fe5b602002602001018181525050858181548110611ad257fe5b906000526020600020906002020160010154838381518110611af057fe5b60200260200101818152505081806001019250505b8080600101915050611a35565b508282965096505050505050915091565b600460009054906101000a900473ffffffffffffffffffffffffffffffffffffffff1673ffffffffffffffffffffffffffffffffffffffff163373ffffffffffffffffffffffffffffffffffffffff1614611bb3576040517f08c379a0000000000000000000000000000000000000000000000000000000008152600401611baa906127c5565b60405180910390fd5b611bbc8361158a565b50600073ffffffffffffffffffffffffffffffffffffffff168373ffffffffffffffffffffffffffffffffffffffff161415611c2d576040517f08c379a0000000000000000000000000000000000000000000000000000000008152600401611c2490612705565b60405180910390fd5b6000603c820242019050600660008573ffffffffffffffffffffffffffffffffffffffff1673ffffffffffffffffffffffffffffffffffffffff168152602001908152602001600020604051806040016040528085815260200183815250908060018154018082558091505090600182039060005260206000209060020201600090919290919091506000820151816000015560208201518160010155505050826003600082825401925050819055508373ffffffffffffffffffffffffffffffffffffffff167fc1d5a9a0a7cdddbc3db5b9aeffbc9fa1ba5f7275fbd46d9de20ec463f8b8cfbd8483604051611d25929190612860565b60405180910390a28373ffffffffffffffffffffffffffffffffffffffff16600073ffffffffffffffffffffffffffffffffffffffff167fddf252ad1be2c89b69c2b068fc378daa952ba7f163c4a11628f55a4df523b3ef85604051611d8b9190612845565b60405180910390a350505050565b6060806000600660008573ffffffffffffffffffffffffffffffffffffffff1673ffffffffffffffffffffffffffffffffffffffff1681526020019081526020016000209050600080905060008090505b8280549050811015611e5a57828181548110611e0257fe5b90600052602060002090600202016001015442108015611e3f57506000838281548110611e2b57fe5b906000526020600020906002020160000154115b15611e4d5781806001019250505b8080600101915050611dea565b50606081604051908082528060200260200182016040528015611e8c5781602001602082028038833980820191505090505b509050606082604051908082528060200260200182016040528015611ec05781602001602082028038833980820191505090505b509050600080905060008090505b8580549050811015611faa57858181548110611ee657fe5b90600052602060002090600202016001015442108015611f2357506000868281548110611f0f57fe5b906000526020600020906002020160000154115b15611f9d57858181548110611f3457fe5b906000526020600020906002020160000154848381518110611f5257fe5b602002602001018181525050858181548110611f6a57fe5b906000526020600020906002020160010154838381518110611f8857fe5b60200260200101818152505081806001019250505b8080600101915050611ece565b508282965096505050505050915091565b6007602052816000526040600020602052806000526040600020600091509150505481565b604051806040016040528060008152602001600081525090565b508054600082556002029060005260206000209081019061201b919061201e565b50565b61204a91905b8082111561204657600080820160009055600182016000905550600201612024565b5090565b90565b60008135905061205c816129cb565b92915050565b600081359050612071816129e2565b92915050565b60006020828403121561208957600080fd5b60006120978482850161204d565b91505092915050565b600080604083850312156120b357600080fd5b60006120c18582860161204d565b92505060206120d28582860161204d565b9150509250929050565b6000806000606084860312156120f157600080fd5b60006120ff8682870161204d565b93505060206121108682870161204d565b925050604061212186828701612062565b9150509250925092565b6000806040838503121561213e57600080fd5b600061214c8582860161204d565b925050602061215d85828601612062565b9150509250929050565b60008060006060848603121561217c57600080fd5b600061218a8682870161204d565b935050602061219b86828701612062565b92505060406121ac86828701612062565b9150509250925092565b60006121c283836122b1565b60208301905092915050565b60006121da83836125c8565b60208301905092915050565b6121ef81612932565b82525050565b6000612200826128c4565b61220a81856128ff565b9350612215836128a4565b8060005b8381101561224657815161222d88826121b6565b9750612238836128e5565b925050600181019050612219565b5085935050505092915050565b600061225e826128cf565b6122688185612910565b9350612273836128b4565b8060005b838110156122a457815161228b88826121ce565b9750612296836128f2565b925050600181019050612277565b5085935050505092915050565b6122ba81612944565b82525050565b6122c981612944565b82525050565b60006122da826128da565b6122e48185612921565b93506122f4818560208601612987565b6122fd816129ba565b840191505092915050565b6000612315601283612921565b91507f416c6c6f77616e636520657863656564656400000000000000000000000000006000830152602082019050919050565b6000612355600f83612921565b91507f496e76616c6964206164647265737300000000000000000000000000000000006000830152602082019050919050565b6000612395602083612921565b91507f416d6f756e74206d7573742062652067726561746572207468616e207a65726f6000830152602082019050919050565b60006123d5600e83612921565b91507f496e76616c69642073656e6465720000000000000000000000000000000000006000830152602082019050919050565b6000612415602083612921565b91507f4e657720657870697279206d75737420626520696e20746865206675747572656000830152602082019050919050565b6000612455601e83612921565b91507f496e73756666696369656e7420756e657870697265642062616c616e636500006000830152602082019050919050565b6000612495601183612921565b91507f496e76616c696420726563697069656e740000000000000000000000000000006000830152602082019050919050565b60006124d5600983612921565b91507f4e6f74206f776e657200000000000000000000000000000000000000000000006000830152602082019050919050565b6000612515601283612921565b91507f546f6b656e206c6f7420697320656d70747900000000000000000000000000006000830152602082019050919050565b6000612555601183612921565b91507f496e76616c6964206c6f7420696e6465780000000000000000000000000000006000830152602082019050919050565b6000612595600f83612921565b91507f496e76616c6964207370656e64657200000000000000000000000000000000006000830152602082019050919050565b6125d181612970565b82525050565b6125e081612970565b82525050565b6125ef8161297a565b82525050565b600060208201905061260a60008301846121e6565b92915050565b6000604082019050818103600083015261262a8185612253565b9050818103602083015261263e8184612253565b90509392505050565b600060808201905081810360008301526126618187612253565b905081810360208301526126758186612253565b905081810360408301526126898185612253565b9050818103606083015261269d81846121f5565b905095945050505050565b60006020820190506126bd60008301846122c0565b92915050565b600060208201905081810360008301526126dd81846122cf565b905092915050565b600060208201905081810360008301526126fe81612308565b9050919050565b6000602082019050818103600083015261271e81612348565b9050919050565b6000602082019050818103600083015261273e81612388565b9050919050565b6000602082019050818103600083015261275e816123c8565b9050919050565b6000602082019050818103600083015261277e81612408565b9050919050565b6000602082019050818103600083015261279e81612448565b9050919050565b600060208201905081810360008301526127be81612488565b9050919050565b600060208201905081810360008301526127de816124c8565b9050919050565b600060208201905081810360008301526127fe81612508565b9050919050565b6000602082019050818103600083015261281e81612548565b9050919050565b6000602082019050818103600083015261283e81612588565b9050919050565b600060208201905061285a60008301846125d7565b92915050565b600060408201905061287560008301856125d7565b61288260208301846125d7565b9392505050565b600060208201905061289e60008301846125e6565b92915050565b6000819050602082019050919050565b6000819050602082019050919050565b600081519050919050565b600081519050919050565b600081519050919050565b6000602082019050919050565b6000602082019050919050565b600082825260208201905092915050565b600082825260208201905092915050565b600082825260208201905092915050565b600061293d82612950565b9050919050565b60008115159050919050565b600073ffffffffffffffffffffffffffffffffffffffff82169050919050565b6000819050919050565b600060ff82169050919050565b60005b838110156129a557808201518184015260208101905061298a565b838111156129b4576000848401525b50505050565b6000601f19601f8301169050919050565b6129d481612932565b81146129df57600080fd5b50565b6129eb81612970565b81146129f657600080fd5b5056fea365627a7a723058202fd5ba9a9817a39f713b44847389f55224af1eb15ee59deee07be6a9d45463196c6578706572696d656e74616cf564736f6c634300050a0040697066733a2f2f6261666b7265696576686c686461776a6e627672766d6f336a736271736e35376e756f696f33617378346179766d7a6669786e757876786c7a6b65",
					"opcodes": "PUSH1 0x80 PUSH1 0x40 MSTORE PUSH1 0x40 MLOAD DUP1 PUSH1 0x40 ADD PUSH1 0x40 MSTORE DUP1 PUSH1 0xA DUP2 MSTORE PUSH1 0x20 ADD PUSH32 0x5553445420546F6B656E00000000000000000000000000000000000000000000 DUP2 MSTORE POP PUSH1 0x0 SWAP1 DUP1 MLOAD SWAP1 PUSH1 0x20 ADD SWAP1 PUSH3 0x51 SWAP3 SWAP2 SWAP1 PUSH3 0x143 JUMP JUMPDEST POP PUSH1 0x40 MLOAD DUP1 PUSH1 0x40 ADD PUSH1 0x40 MSTORE DUP1 PUSH1 0x4 DUP2 MSTORE PUSH1 0x20 ADD PUSH32 0x5553445400000000000000000000000000000000000000000000000000000000 DUP2 MSTORE POP PUSH1 0x1 SWAP1 DUP1 MLOAD SWAP1 PUSH1 0x20 ADD SWAP1 PUSH3 0x9F SWAP3 SWAP2 SWAP1 PUSH3 0x143 JUMP JUMPDEST POP PUSH1 0x6 PUSH1 0x2 PUSH1 0x0 PUSH2 0x100 EXP DUP2 SLOAD DUP2 PUSH1 0xFF MUL NOT AND SWAP1 DUP4 PUSH1 0xFF AND MUL OR SWAP1 SSTORE POP PUSH1 0x40 MLOAD DUP1 PUSH1 0x80 ADD PUSH1 0x40 MSTORE DUP1 PUSH1 0x42 DUP2 MSTORE PUSH1 0x20 ADD PUSH3 0x2C3E PUSH1 0x42 SWAP2 CODECOPY PUSH1 0x5 SWAP1 DUP1 MLOAD SWAP1 PUSH1 0x20 ADD SWAP1 PUSH3 0xED SWAP3 SWAP2 SWAP1 PUSH3 0x143 JUMP JUMPDEST POP CALLVALUE DUP1 ISZERO PUSH3 0xFB JUMPI PUSH1 0x0 DUP1 REVERT JUMPDEST POP CALLER PUSH1 0x4 PUSH1 0x0 PUSH2 0x100 EXP DUP2 SLOAD DUP2 PUSH20 0xFFFFFFFFFFFFFFFFFFFFFFFFFFFFFFFFFFFFFFFF MUL NOT AND SWAP1 DUP4 PUSH20 0xFFFFFFFFFFFFFFFFFFFFFFFFFFFFFFFFFFFFFFFF AND MUL OR SWAP1 SSTORE POP PUSH3 0x1F2 JUMP JUMPDEST DUP3 DUP1 SLOAD PUSH1 0x1 DUP2 PUSH1 0x1 AND ISZERO PUSH2 0x100 MUL SUB AND PUSH1 0x2 SWAP1 DIV SWAP1 PUSH1 0x0 MSTORE PUSH1 0x20 PUSH1 0x0 KECCAK256 SWAP1 PUSH1 0x1F ADD PUSH1 0x20 SWAP1 DIV DUP2 ADD SWAP3 DUP3 PUSH1 0x1F LT PUSH3 0x186 JUMPI DUP1 MLOAD PUSH1 0xFF NOT AND DUP4 DUP1 ADD OR DUP6 SSTORE PUSH3 0x1B7 JUMP JUMPDEST DUP3 DUP1 ADD PUSH1 0x1 ADD DUP6 SSTORE DUP3 ISZERO PUSH3 0x1B7 JUMPI SWAP2 DUP3 ADD JUMPDEST DUP3 DUP2 GT ISZERO PUSH3 0x1B6 JUMPI DUP3 MLOAD DUP3 SSTORE SWAP2 PUSH1 0x20 ADD SWAP2 SWAP1 PUSH1 0x1 ADD SWAP1 PUSH3 0x199 JUMP JUMPDEST JUMPDEST POP SWAP1 POP PUSH3 0x1C6 SWAP2 SWAP1 PUSH3 0x1CA JUMP JUMPDEST POP SWAP1 JUMP JUMPDEST PUSH3 0x1EF SWAP2 SWAP1 JUMPDEST DUP1 DUP3 GT ISZERO PUSH3 0x1EB JUMPI PUSH1 0x0 DUP2 PUSH1 0x0 SWAP1 SSTORE POP PUSH1 0x1 ADD PUSH3 0x1D1 JUMP JUMPDEST POP SWAP1 JUMP JUMPDEST SWAP1 JUMP JUMPDEST PUSH2 0x2A3C DUP1 PUSH3 0x202 PUSH1 0x0 CODECOPY PUSH1 0x0 RETURN INVALID PUSH1 0x80 PUSH1 0x40 MSTORE CALLVALUE DUP1 ISZERO PUSH2 0x10 JUMPI PUSH1 0x0 DUP1 REVERT JUMPDEST POP PUSH1 0x4 CALLDATASIZE LT PUSH2 0x121 JUMPI PUSH1 0x0 CALLDATALOAD PUSH1 0xE0 SHR DUP1 PUSH4 0x8DA5CB5B GT PUSH2 0xAD JUMPI DUP1 PUSH4 0xB0F9DFBF GT PUSH2 0x71 JUMPI DUP1 PUSH4 0xB0F9DFBF EQ PUSH2 0x34A JUMPI DUP1 PUSH4 0xB40792B9 EQ PUSH2 0x37A JUMPI DUP1 PUSH4 0xB5B3E35A EQ PUSH2 0x3AB JUMPI DUP1 PUSH4 0xCD437BDA EQ PUSH2 0x3C7 JUMPI DUP1 PUSH4 0xDD62ED3E EQ PUSH2 0x3F8 JUMPI PUSH2 0x121 JUMP JUMPDEST DUP1 PUSH4 0x8DA5CB5B EQ PUSH2 0x27A JUMPI DUP1 PUSH4 0x91B46A91 EQ PUSH2 0x298 JUMPI DUP1 PUSH4 0x95D89B41 EQ PUSH2 0x2C9 JUMPI DUP1 PUSH4 0xA8E8486E EQ PUSH2 0x2E7 JUMPI DUP1 PUSH4 0xA9059CBB EQ PUSH2 0x31A JUMPI PUSH2 0x121 JUMP JUMPDEST DUP1 PUSH4 0x313CE567 GT PUSH2 0xF4 JUMPI DUP1 PUSH4 0x313CE567 EQ PUSH2 0x1C2 JUMPI DUP1 PUSH4 0x3345906F EQ PUSH2 0x1E0 JUMPI DUP1 PUSH4 0x6BB38B28 EQ PUSH2 0x210 JUMPI DUP1 PUSH4 0x70A08231 EQ PUSH2 0x22E JUMPI DUP1 PUSH4 0x7A825B10 EQ PUSH2 0x25E JUMPI PUSH2 0x121 JUMP JUMPDEST DUP1 PUSH4 0x6FDDE03 EQ PUSH2 0x126 JUMPI DUP1 PUSH4 0x95EA7B3 EQ PUSH2 0x144 JUMPI DUP1 PUSH4 0x18160DDD EQ PUSH2 0x174 JUMPI DUP1 PUSH4 0x23B872DD EQ PUSH2 0x192 JUMPI JUMPDEST PUSH1 0x0 DUP1 REVERT JUMPDEST PUSH2 0x12E PUSH2 0x428 JUMP JUMPDEST PUSH1 0x40 MLOAD PUSH2 0x13B SWAP2 SWAP1 PUSH2 0x26C3 JUMP JUMPDEST PUSH1 0x40 MLOAD DUP1 SWAP2 SUB SWAP1 RETURN JUMPDEST PUSH2 0x15E PUSH1 0x4 DUP1 CALLDATASIZE SUB PUSH2 0x159 SWAP2 SWAP1 DUP2 ADD SWAP1 PUSH2 0x212B JUMP JUMPDEST PUSH2 0x4C6 JUMP JUMPDEST PUSH1 0x40 MLOAD PUSH2 0x16B SWAP2 SWAP1 PUSH2 0x26A8 JUMP JUMPDEST PUSH1 0x40 MLOAD DUP1 SWAP2 SUB SWAP1 RETURN JUMPDEST PUSH2 0x17C PUSH2 0x632 JUMP JUMPDEST PUSH1 0x40 MLOAD PUSH2 0x189 SWAP2 SWAP1 PUSH2 0x2845 JUMP JUMPDEST PUSH1 0x40 MLOAD DUP1 SWAP2 SUB SWAP1 RETURN JUMPDEST PUSH2 0x1AC PUSH1 0x4 DUP1 CALLDATASIZE SUB PUSH2 0x1A7 SWAP2 SWAP1 DUP2 ADD SWAP1 PUSH2 0x20DC JUMP JUMPDEST PUSH2 0x638 JUMP JUMPDEST PUSH1 0x40 MLOAD PUSH2 0x1B9 SWAP2 SWAP1 PUSH2 0x26A8 JUMP JUMPDEST PUSH1 0x40 MLOAD DUP1 SWAP2 SUB SWAP1 RETURN JUMPDEST PUSH2 0x1CA PUSH2 0xD3E JUMP JUMPDEST PUSH1 0x40 MLOAD PUSH2 0x1D7 SWAP2 SWAP1 PUSH2 0x2889 JUMP JUMPDEST PUSH1 0x40 MLOAD DUP1 SWAP2 SUB SWAP1 RETURN JUMPDEST PUSH2 0x1FA PUSH1 0x4 DUP1 CALLDATASIZE SUB PUSH2 0x1F5 SWAP2 SWAP1 DUP2 ADD SWAP1 PUSH2 0x2077 JUMP JUMPDEST PUSH2 0xD51 JUMP JUMPDEST PUSH1 0x40 MLOAD PUSH2 0x207 SWAP2 SWAP1 PUSH2 0x2845 JUMP JUMPDEST PUSH1 0x40 MLOAD DUP1 SWAP2 SUB SWAP1 RETURN JUMPDEST PUSH2 0x218 PUSH2 0xE2C JUMP JUMPDEST PUSH1 0x40 MLOAD PUSH2 0x225 SWAP2 SWAP1 PUSH2 0x26C3 JUMP JUMPDEST PUSH1 0x40 MLOAD DUP1 SWAP2 SUB SWAP1 RETURN JUMPDEST PUSH2 0x248 PUSH1 0x4 DUP1 CALLDATASIZE SUB PUSH2 0x243 SWAP2 SWAP1 DUP2 ADD SWAP1 PUSH2 0x2077 JUMP JUMPDEST PUSH2 0xECA JUMP JUMPDEST PUSH1 0x40 MLOAD PUSH2 0x255 SWAP2 SWAP1 PUSH2 0x2845 JUMP JUMPDEST PUSH1 0x40 MLOAD DUP1 SWAP2 SUB SWAP1 RETURN JUMPDEST PUSH2 0x278 PUSH1 0x4 DUP1 CALLDATASIZE SUB PUSH2 0x273 SWAP2 SWAP1 DUP2 ADD SWAP1 PUSH2 0x2167 JUMP JUMPDEST PUSH2 0xF85 JUMP JUMPDEST STOP JUMPDEST PUSH2 0x282 PUSH2 0x123C JUMP JUMPDEST PUSH1 0x40 MLOAD PUSH2 0x28F SWAP2 SWAP1 PUSH2 0x25F5 JUMP JUMPDEST PUSH1 0x40 MLOAD DUP1 SWAP2 SUB SWAP1 RETURN JUMPDEST PUSH2 0x2B2 PUSH1 0x4 DUP1 CALLDATASIZE SUB PUSH2 0x2AD SWAP2 SWAP1 DUP2 ADD SWAP1 PUSH2 0x212B JUMP JUMPDEST PUSH2 0x1262 JUMP JUMPDEST PUSH1 0x40 MLOAD PUSH2 0x2C0 SWAP3 SWAP2 SWAP1 PUSH2 0x2860 JUMP JUMPDEST PUSH1 0x40 MLOAD DUP1 SWAP2 SUB SWAP1 RETURN JUMPDEST PUSH2 0x2D1 PUSH2 0x12A0 JUMP JUMPDEST PUSH1 0x40 MLOAD PUSH2 0x2DE SWAP2 SWAP1 PUSH2 0x26C3 JUMP JUMPDEST PUSH1 0x40 MLOAD DUP1 SWAP2 SUB SWAP1 RETURN JUMPDEST PUSH2 0x301 PUSH1 0x4 DUP1 CALLDATASIZE SUB PUSH2 0x2FC SWAP2 SWAP1 DUP2 ADD SWAP1 PUSH2 0x2077 JUMP JUMPDEST PUSH2 0x133E JUMP JUMPDEST PUSH1 0x40 MLOAD PUSH2 0x311 SWAP5 SWAP4 SWAP3 SWAP2 SWAP1 PUSH2 0x2647 JUMP JUMPDEST PUSH1 0x40 MLOAD DUP1 SWAP2 SUB SWAP1 RETURN JUMPDEST PUSH2 0x334 PUSH1 0x4 DUP1 CALLDATASIZE SUB PUSH2 0x32F SWAP2 SWAP1 DUP2 ADD SWAP1 PUSH2 0x212B JUMP JUMPDEST PUSH2 0x1575 JUMP JUMPDEST PUSH1 0x40 MLOAD PUSH2 0x341 SWAP2 SWAP1 PUSH2 0x26A8 JUMP JUMPDEST PUSH1 0x40 MLOAD DUP1 SWAP2 SUB SWAP1 RETURN JUMPDEST PUSH2 0x364 PUSH1 0x4 DUP1 CALLDATASIZE SUB PUSH2 0x35F SWAP2 SWAP1 DUP2 ADD SWAP1 PUSH2 0x2077 JUMP JUMPDEST PUSH2 0x158A JUMP JUMPDEST PUSH1 0x40 MLOAD PUSH2 0x371 SWAP2 SWAP1 PUSH2 0x2845 JUMP JUMPDEST PUSH1 0x40 MLOAD DUP1 SWAP2 SUB SWAP1 RETURN JUMPDEST PUSH2 0x394 PUSH1 0x4 DUP1 CALLDATASIZE SUB PUSH2 0x38F SWAP2 SWAP1 DUP2 ADD SWAP1 PUSH2 0x2077 JUMP JUMPDEST PUSH2 0x18FF JUMP JUMPDEST PUSH1 0x40 MLOAD PUSH2 0x3A2 SWAP3 SWAP2 SWAP1 PUSH2 0x2610 JUMP JUMPDEST PUSH1 0x40 MLOAD DUP1 SWAP2 SUB SWAP1 RETURN JUMPDEST PUSH2 0x3C5 PUSH1 0x4 DUP1 CALLDATASIZE SUB PUSH2 0x3C0 SWAP2 SWAP1 DUP2 ADD SWAP1 PUSH2 0x2167 JUMP JUMPDEST PUSH2 0x1B23 JUMP JUMPDEST STOP JUMPDEST PUSH2 0x3E1 PUSH1 0x4 DUP1 CALLDATASIZE SUB PUSH2 0x3DC SWAP2 SWAP1 DUP2 ADD SWAP1 PUSH2 0x2077 JUMP JUMPDEST PUSH2 0x1D99 JUMP JUMPDEST PUSH1 0x40 MLOAD PUSH2 0x3EF SWAP3 SWAP2 SWAP1 PUSH2 0x2610 JUMP JUMPDEST PUSH1 0x40 MLOAD DUP1 SWAP2 SUB SWAP1 RETURN JUMPDEST PUSH2 0x412 PUSH1 0x4 DUP1 CALLDATASIZE SUB PUSH2 0x40D SWAP2 SWAP1 DUP2 ADD SWAP1 PUSH2 0x20A0 JUMP JUMPDEST PUSH2 0x1FBB JUMP JUMPDEST PUSH1 0x40 MLOAD PUSH2 0x41F SWAP2 SWAP1 PUSH2 0x2845 JUMP JUMPDEST PUSH1 0x40 MLOAD DUP1 SWAP2 SUB SWAP1 RETURN JUMPDEST PUSH1 0x0 DUP1 SLOAD PUSH1 0x1 DUP2 PUSH1 0x1 AND ISZERO PUSH2 0x100 MUL SUB AND PUSH1 0x2 SWAP1 DIV DUP1 PUSH1 0x1F ADD PUSH1 0x20 DUP1 SWAP2 DIV MUL PUSH1 0x20 ADD PUSH1 0x40 MLOAD SWAP1 DUP2 ADD PUSH1 0x40 MSTORE DUP1 SWAP3 SWAP2 SWAP1 DUP2 DUP2 MSTORE PUSH1 0x20 ADD DUP3 DUP1 SLOAD PUSH1 0x1 DUP2 PUSH1 0x1 AND ISZERO PUSH2 0x100 MUL SUB AND PUSH1 0x2 SWAP1 DIV DUP1 ISZERO PUSH2 0x4BE JUMPI DUP1 PUSH1 0x1F LT PUSH2 0x493 JUMPI PUSH2 0x100 DUP1 DUP4 SLOAD DIV MUL DUP4 MSTORE SWAP2 PUSH1 0x20 ADD SWAP2 PUSH2 0x4BE JUMP JUMPDEST DUP3 ADD SWAP2 SWAP1 PUSH1 0x0 MSTORE PUSH1 0x20 PUSH1 0x0 KECCAK256 SWAP1 JUMPDEST DUP2 SLOAD DUP2 MSTORE SWAP1 PUSH1 0x1 ADD SWAP1 PUSH1 0x20 ADD DUP1 DUP4 GT PUSH2 0x4A1 JUMPI DUP3 SWAP1 SUB PUSH1 0x1F AND DUP3 ADD SWAP2 JUMPDEST POP POP POP POP POP DUP2 JUMP JUMPDEST PUSH1 0x0 PUSH2 0x4D1 CALLER PUSH2 0x158A JUMP JUMPDEST POP PUSH1 0x0 PUSH20 0xFFFFFFFFFFFFFFFFFFFFFFFFFFFFFFFFFFFFFFFF AND DUP4 PUSH20 0xFFFFFFFFFFFFFFFFFFFFFFFFFFFFFFFFFFFFFFFF AND EQ ISZERO PUSH2 0x542 JUMPI PUSH1 0x40 MLOAD PUSH32 0x8C379A000000000000000000000000000000000000000000000000000000000 DUP2 MSTORE PUSH1 0x4 ADD PUSH2 0x539 SWAP1 PUSH2 0x2825 JUMP JUMPDEST PUSH1 0x40 MLOAD DUP1 SWAP2 SUB SWAP1 REVERT JUMPDEST DUP2 PUSH1 0x7 PUSH1 0x0 CALLER PUSH20 0xFFFFFFFFFFFFFFFFFFFFFFFFFFFFFFFFFFFFFFFF AND PUSH20 0xFFFFFFFFFFFFFFFFFFFFFFFFFFFFFFFFFFFFFFFF AND DUP2 MSTORE PUSH1 0x20 ADD SWAP1 DUP2 MSTORE PUSH1 0x20 ADD PUSH1 0x0 KECCAK256 PUSH1 0x0 DUP6 PUSH20 0xFFFFFFFFFFFFFFFFFFFFFFFFFFFFFFFFFFFFFFFF AND PUSH20 0xFFFFFFFFFFFFFFFFFFFFFFFFFFFFFFFFFFFFFFFF AND DUP2 MSTORE PUSH1 0x20 ADD SWAP1 DUP2 MSTORE PUSH1 0x20 ADD PUSH1 0x0 KECCAK256 DUP2 SWAP1 SSTORE POP DUP3 PUSH20 0xFFFFFFFFFFFFFFFFFFFFFFFFFFFFFFFFFFFFFFFF AND CALLER PUSH20 0xFFFFFFFFFFFFFFFFFFFFFFFFFFFFFFFFFFFFFFFF AND PUSH32 0x8C5BE1E5EBEC7D5BD14F71427D1E84F3DD0314C0F7B2291E5B200AC8C7C3B925 DUP5 PUSH1 0x40 MLOAD PUSH2 0x620 SWAP2 SWAP1 PUSH2 0x2845 JUMP JUMPDEST PUSH1 0x40 MLOAD DUP1 SWAP2 SUB SWAP1 LOG3 PUSH1 0x1 SWAP1 POP SWAP3 SWAP2 POP POP JUMP JUMPDEST PUSH1 0x3 SLOAD DUP2 JUMP JUMPDEST PUSH1 0x0 PUSH2 0x643 DUP5 PUSH2 0x158A JUMP JUMPDEST POP PUSH1 0x0 PUSH20 0xFFFFFFFFFFFFFFFFFFFFFFFFFFFFFFFFFFFFFFFF AND DUP5 PUSH20 0xFFFFFFFFFFFFFFFFFFFFFFFFFFFFFFFFFFFFFFFF AND EQ ISZERO PUSH2 0x6B4 JUMPI PUSH1 0x40 MLOAD PUSH32 0x8C379A000000000000000000000000000000000000000000000000000000000 DUP2 MSTORE PUSH1 0x4 ADD PUSH2 0x6AB SWAP1 PUSH2 0x2745 JUMP JUMPDEST PUSH1 0x40 MLOAD DUP1 SWAP2 SUB SWAP1 REVERT JUMPDEST PUSH1 0x0 PUSH20 0xFFFFFFFFFFFFFFFFFFFFFFFFFFFFFFFFFFFFFFFF AND DUP4 PUSH20 0xFFFFFFFFFFFFFFFFFFFFFFFFFFFFFFFFFFFFFFFF AND EQ ISZERO PUSH2 0x724 JUMPI PUSH1 0x40 MLOAD PUSH32 0x8C379A000000000000000000000000000000000000000000000000000000000 DUP2 MSTORE PUSH1 0x4 ADD PUSH2 0x71B SWAP1 PUSH2 0x27A5 JUMP JUMPDEST PUSH1 0x40 MLOAD DUP1 SWAP2 SUB SWAP1 REVERT JUMPDEST PUSH1 0x0 DUP3 GT PUSH2 0x767 JUMPI PUSH1 0x40 MLOAD PUSH32 0x8C379A000000000000000000000000000000000000000000000000000000000 DUP2 MSTORE PUSH1 0x4 ADD PUSH2 0x75E SWAP1 PUSH2 0x2725 JUMP JUMPDEST PUSH1 0x40 MLOAD DUP1 SWAP2 SUB SWAP1 REVERT JUMPDEST PUSH2 0x770 DUP5 PUSH2 0x158A JUMP JUMPDEST POP DUP4 PUSH20 0xFFFFFFFFFFFFFFFFFFFFFFFFFFFFFFFFFFFFFFFF AND CALLER PUSH20 0xFFFFFFFFFFFFFFFFFFFFFFFFFFFFFFFFFFFFFFFF AND EQ PUSH2 0x9CE JUMPI PUSH1 0x0 PUSH1 0x7 PUSH1 0x0 DUP7 PUSH20 0xFFFFFFFFFFFFFFFFFFFFFFFFFFFFFFFFFFFFFFFF AND PUSH20 0xFFFFFFFFFFFFFFFFFFFFFFFFFFFFFFFFFFFFFFFF AND DUP2 MSTORE PUSH1 0x20 ADD SWAP1 DUP2 MSTORE PUSH1 0x20 ADD PUSH1 0x0 KECCAK256 PUSH1 0x0 CALLER PUSH20 0xFFFFFFFFFFFFFFFFFFFFFFFFFFFFFFFFFFFFFFFF AND PUSH20 0xFFFFFFFFFFFFFFFFFFFFFFFFFFFFFFFFFFFFFFFF AND DUP2 MSTORE PUSH1 0x20 ADD SWAP1 DUP2 MSTORE PUSH1 0x20 ADD PUSH1 0x0 KECCAK256 SLOAD SWAP1 POP DUP3 DUP2 LT ISZERO PUSH2 0x868 JUMPI PUSH1 0x40 MLOAD PUSH32 0x8C379A000000000000000000000000000000000000000000000000000000000 DUP2 MSTORE PUSH1 0x4 ADD PUSH2 0x85F SWAP1 PUSH2 0x26E5 JUMP JUMPDEST PUSH1 0x40 MLOAD DUP1 SWAP2 SUB SWAP1 REVERT JUMPDEST DUP3 DUP2 SUB PUSH1 0x7 PUSH1 0x0 DUP8 PUSH20 0xFFFFFFFFFFFFFFFFFFFFFFFFFFFFFFFFFFFFFFFF AND PUSH20 0xFFFFFFFFFFFFFFFFFFFFFFFFFFFFFFFFFFFFFFFF AND DUP2 MSTORE PUSH1 0x20 ADD SWAP1 DUP2 MSTORE PUSH1 0x20 ADD PUSH1 0x0 KECCAK256 PUSH1 0x0 CALLER PUSH20 0xFFFFFFFFFFFFFFFFFFFFFFFFFFFFFFFFFFFFFFFF AND PUSH20 0xFFFFFFFFFFFFFFFFFFFFFFFFFFFFFFFFFFFFFFFF AND DUP2 MSTORE PUSH1 0x20 ADD SWAP1 DUP2 MSTORE PUSH1 0x20 ADD PUSH1 0x0 KECCAK256 DUP2 SWAP1 SSTORE POP CALLER PUSH20 0xFFFFFFFFFFFFFFFFFFFFFFFFFFFFFFFFFFFFFFFF AND DUP6 PUSH20 0xFFFFFFFFFFFFFFFFFFFFFFFFFFFFFFFFFFFFFFFF AND PUSH32 0x8C5BE1E5EBEC7D5BD14F71427D1E84F3DD0314C0F7B2291E5B200AC8C7C3B925 PUSH1 0x7 PUSH1 0x0 DUP10 PUSH20 0xFFFFFFFFFFFFFFFFFFFFFFFFFFFFFFFFFFFFFFFF AND PUSH20 0xFFFFFFFFFFFFFFFFFFFFFFFFFFFFFFFFFFFFFFFF AND DUP2 MSTORE PUSH1 0x20 ADD SWAP1 DUP2 MSTORE PUSH1 0x20 ADD PUSH1 0x0 KECCAK256 PUSH1 0x0 CALLER PUSH20 0xFFFFFFFFFFFFFFFFFFFFFFFFFFFFFFFFFFFFFFFF AND PUSH20 0xFFFFFFFFFFFFFFFFFFFFFFFFFFFFFFFFFFFFFFFF AND DUP2 MSTORE PUSH1 0x20 ADD SWAP1 DUP2 MSTORE PUSH1 0x20 ADD PUSH1 0x0 KECCAK256 SLOAD PUSH1 0x40 MLOAD PUSH2 0x9C4 SWAP2 SWAP1 PUSH2 0x2845 JUMP JUMPDEST PUSH1 0x40 MLOAD DUP1 SWAP2 SUB SWAP1 LOG3 POP JUMPDEST PUSH1 0x0 PUSH1 0x6 PUSH1 0x0 DUP7 PUSH20 0xFFFFFFFFFFFFFFFFFFFFFFFFFFFFFFFFFFFFFFFF AND PUSH20 0xFFFFFFFFFFFFFFFFFFFFFFFFFFFFFFFFFFFFFFFF AND DUP2 MSTORE PUSH1 0x20 ADD SWAP1 DUP2 MSTORE PUSH1 0x20 ADD PUSH1 0x0 KECCAK256 SWAP1 POP PUSH1 0x0 DUP4 SWAP1 POP PUSH1 0x0 DUP1 SWAP1 POP JUMPDEST DUP3 DUP1 SLOAD SWAP1 POP DUP2 LT DUP1 ISZERO PUSH2 0xA2F JUMPI POP PUSH1 0x0 DUP3 GT JUMPDEST ISZERO PUSH2 0xC88 JUMPI DUP3 DUP2 DUP2 SLOAD DUP2 LT PUSH2 0xA40 JUMPI INVALID JUMPDEST SWAP1 PUSH1 0x0 MSTORE PUSH1 0x20 PUSH1 0x0 KECCAK256 SWAP1 PUSH1 0x2 MUL ADD PUSH1 0x1 ADD SLOAD TIMESTAMP LT ISZERO DUP1 PUSH2 0xA7D JUMPI POP PUSH1 0x0 DUP4 DUP3 DUP2 SLOAD DUP2 LT PUSH2 0xA69 JUMPI INVALID JUMPDEST SWAP1 PUSH1 0x0 MSTORE PUSH1 0x20 PUSH1 0x0 KECCAK256 SWAP1 PUSH1 0x2 MUL ADD PUSH1 0x0 ADD SLOAD EQ JUMPDEST ISZERO PUSH2 0xA87 JUMPI PUSH2 0xC7B JUMP JUMPDEST PUSH1 0x0 DUP4 DUP3 DUP2 SLOAD DUP2 LT PUSH2 0xA95 JUMPI INVALID JUMPDEST SWAP1 PUSH1 0x0 MSTORE PUSH1 0x20 PUSH1 0x0 KECCAK256 SWAP1 PUSH1 0x2 MUL ADD PUSH1 0x0 ADD SLOAD SWAP1 POP DUP3 DUP2 GT ISZERO PUSH2 0xB98 JUMPI DUP3 DUP5 DUP4 DUP2 SLOAD DUP2 LT PUSH2 0xABE JUMPI INVALID JUMPDEST SWAP1 PUSH1 0x0 MSTORE PUSH1 0x20 PUSH1 0x0 KECCAK256 SWAP1 PUSH1 0x2 MUL ADD PUSH1 0x0 ADD PUSH1 0x0 DUP3 DUP3 SLOAD SUB SWAP3 POP POP DUP2 SWAP1 SSTORE POP PUSH1 0x6 PUSH1 0x0 DUP9 PUSH20 0xFFFFFFFFFFFFFFFFFFFFFFFFFFFFFFFFFFFFFFFF AND PUSH20 0xFFFFFFFFFFFFFFFFFFFFFFFFFFFFFFFFFFFFFFFF AND DUP2 MSTORE PUSH1 0x20 ADD SWAP1 DUP2 MSTORE PUSH1 0x20 ADD PUSH1 0x0 KECCAK256 PUSH1 0x40 MLOAD DUP1 PUSH1 0x40 ADD PUSH1 0x40 MSTORE DUP1 DUP6 DUP2 MSTORE PUSH1 0x20 ADD DUP7 DUP6 DUP2 SLOAD DUP2 LT PUSH2 0xB38 JUMPI INVALID JUMPDEST SWAP1 PUSH1 0x0 MSTORE PUSH1 0x20 PUSH1 0x0 KECCAK256 SWAP1 PUSH1 0x2 MUL ADD PUSH1 0x1 ADD SLOAD DUP2 MSTORE POP SWAP1 DUP1 PUSH1 0x1 DUP2 SLOAD ADD DUP1 DUP3 SSTORE DUP1 SWAP2 POP POP SWAP1 PUSH1 0x1 DUP3 SUB SWAP1 PUSH1 0x0 MSTORE PUSH1 0x20 PUSH1 0x0 KECCAK256 SWAP1 PUSH1 0x2 MUL ADD PUSH1 0x0 SWAP1 SWAP2 SWAP3 SWAP1 SWAP2 SWAP1 SWAP2 POP PUSH1 0x0 DUP3 ADD MLOAD DUP2 PUSH1 0x0 ADD SSTORE PUSH1 0x20 DUP3 ADD MLOAD DUP2 PUSH1 0x1 ADD SSTORE POP POP POP PUSH1 0x0 SWAP3 POP PUSH2 0xC79 JUMP JUMPDEST PUSH1 0x0 DUP5 DUP4 DUP2 SLOAD DUP2 LT PUSH2 0xBA6 JUMPI INVALID JUMPDEST SWAP1 PUSH1 0x0 MSTORE PUSH1 0x20 PUSH1 0x0 KECCAK256 SWAP1 PUSH1 0x2 MUL ADD PUSH1 0x0 ADD DUP2 SWAP1 SSTORE POP PUSH1 0x6 PUSH1 0x0 DUP9 PUSH20 0xFFFFFFFFFFFFFFFFFFFFFFFFFFFFFFFFFFFFFFFF AND PUSH20 0xFFFFFFFFFFFFFFFFFFFFFFFFFFFFFFFFFFFFFFFF AND DUP2 MSTORE PUSH1 0x20 ADD SWAP1 DUP2 MSTORE PUSH1 0x20 ADD PUSH1 0x0 KECCAK256 PUSH1 0x40 MLOAD DUP1 PUSH1 0x40 ADD PUSH1 0x40 MSTORE DUP1 DUP4 DUP2 MSTORE PUSH1 0x20 ADD DUP7 DUP6 DUP2 SLOAD DUP2 LT PUSH2 0xC17 JUMPI INVALID JUMPDEST SWAP1 PUSH1 0x0 MSTORE PUSH1 0x20 PUSH1 0x0 KECCAK256 SWAP1 PUSH1 0x2 MUL ADD PUSH1 0x1 ADD SLOAD DUP2 MSTORE POP SWAP1 DUP1 PUSH1 0x1 DUP2 SLOAD ADD DUP1 DUP3 SSTORE DUP1 SWAP2 POP POP SWAP1 PUSH1 0x1 DUP3 SUB SWAP1 PUSH1 0x0 MSTORE PUSH1 0x20 PUSH1 0x0 KECCAK256 SWAP1 PUSH1 0x2 MUL ADD PUSH1 0x0 SWAP1 SWAP2 SWAP3 SWAP1 SWAP2 SWAP1 SWAP2 POP PUSH1 0x0 DUP3 ADD MLOAD DUP2 PUSH1 0x0 ADD SSTORE PUSH1 0x20 DUP3 ADD MLOAD DUP2 PUSH1 0x1 ADD SSTORE POP POP POP DUP1 DUP4 SUB SWAP3 POP POP PUSH2 0xC88 JUMP JUMPDEST POP JUMPDEST DUP1 DUP1 PUSH1 0x1 ADD SWAP2 POP POP PUSH2 0xA1C JUMP JUMPDEST POP PUSH1 0x0 DUP2 EQ PUSH2 0xCCC JUMPI PUSH1 0x40 MLOAD PUSH32 0x8C379A000000000000000000000000000000000000000000000000000000000 DUP2 MSTORE PUSH1 0x4 ADD PUSH2 0xCC3 SWAP1 PUSH2 0x2785 JUMP JUMPDEST PUSH1 0x40 MLOAD DUP1 SWAP2 SUB SWAP1 REVERT JUMPDEST DUP5 PUSH20 0xFFFFFFFFFFFFFFFFFFFFFFFFFFFFFFFFFFFFFFFF AND DUP7 PUSH20 0xFFFFFFFFFFFFFFFFFFFFFFFFFFFFFFFFFFFFFFFF AND PUSH32 0xDDF252AD1BE2C89B69C2B068FC378DAA952BA7F163C4A11628F55A4DF523B3EF DUP7 PUSH1 0x40 MLOAD PUSH2 0xD29 SWAP2 SWAP1 PUSH2 0x2845 JUMP JUMPDEST PUSH1 0x40 MLOAD DUP1 SWAP2 SUB SWAP1 LOG3 PUSH1 0x1 SWAP3 POP POP POP SWAP4 SWAP3 POP POP POP JUMP JUMPDEST PUSH1 0x2 PUSH1 0x0 SWAP1 SLOAD SWAP1 PUSH2 0x100 EXP SWAP1 DIV PUSH1 0xFF AND DUP2 JUMP JUMPDEST PUSH1 0x0 DUP1 PUSH1 0x6 PUSH1 0x0 DUP5 PUSH20 0xFFFFFFFFFFFFFFFFFFFFFFFFFFFFFFFFFFFFFFFF AND PUSH20 0xFFFFFFFFFFFFFFFFFFFFFFFFFFFFFFFFFFFFFFFF AND DUP2 MSTORE PUSH1 0x20 ADD SWAP1 DUP2 MSTORE PUSH1 0x20 ADD PUSH1 0x0 KECCAK256 SWAP1 POP PUSH1 0x0 DUP1 SWAP1 POP JUMPDEST DUP2 DUP1 SLOAD SWAP1 POP DUP2 LT ISZERO PUSH2 0xE25 JUMPI DUP2 DUP2 DUP2 SLOAD DUP2 LT PUSH2 0xDB3 JUMPI INVALID JUMPDEST SWAP1 PUSH1 0x0 MSTORE PUSH1 0x20 PUSH1 0x0 KECCAK256 SWAP1 PUSH1 0x2 MUL ADD PUSH1 0x1 ADD SLOAD TIMESTAMP LT DUP1 ISZERO PUSH2 0xDF0 JUMPI POP PUSH1 0x0 DUP3 DUP3 DUP2 SLOAD DUP2 LT PUSH2 0xDDC JUMPI INVALID JUMPDEST SWAP1 PUSH1 0x0 MSTORE PUSH1 0x20 PUSH1 0x0 KECCAK256 SWAP1 PUSH1 0x2 MUL ADD PUSH1 0x0 ADD SLOAD GT JUMPDEST ISZERO PUSH2 0xE18 JUMPI DUP2 DUP2 DUP2 SLOAD DUP2 LT PUSH2 0xE01 JUMPI INVALID JUMPDEST SWAP1 PUSH1 0x0 MSTORE PUSH1 0x20 PUSH1 0x0 KECCAK256 SWAP1 PUSH1 0x2 MUL ADD PUSH1 0x0 ADD SLOAD DUP4 ADD SWAP3 POP JUMPDEST DUP1 DUP1 PUSH1 0x1 ADD SWAP2 POP POP PUSH2 0xD9B JUMP JUMPDEST POP POP SWAP2 SWAP1 POP JUMP JUMPDEST PUSH1 0x5 DUP1 SLOAD PUSH1 0x1 DUP2 PUSH1 0x1 AND ISZERO PUSH2 0x100 MUL SUB AND PUSH1 0x2 SWAP1 DIV DUP1 PUSH1 0x1F ADD PUSH1 0x20 DUP1 SWAP2 DIV MUL PUSH1 0x20 ADD PUSH1 0x40 MLOAD SWAP1 DUP2 ADD PUSH1 0x40 MSTORE DUP1 SWAP3 SWAP2 SWAP1 DUP2 DUP2 MSTORE PUSH1 0x20 ADD DUP3 DUP1 SLOAD PUSH1 0x1 DUP2 PUSH1 0x1 AND ISZERO PUSH2 0x100 MUL SUB AND PUSH1 0x2 SWAP1 DIV DUP1 ISZERO PUSH2 0xEC2 JUMPI DUP1 PUSH1 0x1F LT PUSH2 0xE97 JUMPI PUSH2 0x100 DUP1 DUP4 SLOAD DIV MUL DUP4 MSTORE SWAP2 PUSH1 0x20 ADD SWAP2 PUSH2 0xEC2 JUMP JUMPDEST DUP3 ADD SWAP2 SWAP1 PUSH1 0x0 MSTORE PUSH1 0x20 PUSH1 0x0 KECCAK256 SWAP1 JUMPDEST DUP2 SLOAD DUP2 MSTORE SWAP1 PUSH1 0x1 ADD SWAP1 PUSH1 0x20 ADD DUP1 DUP4 GT PUSH2 0xEA5 JUMPI DUP3 SWAP1 SUB PUSH1 0x1F AND DUP3 ADD SWAP2 JUMPDEST POP POP POP POP POP DUP2 JUMP JUMPDEST PUSH1 0x0 DUP1 PUSH1 0x6 PUSH1 0x0 DUP5 PUSH20 0xFFFFFFFFFFFFFFFFFFFFFFFFFFFFFFFFFFFFFFFF AND PUSH20 0xFFFFFFFFFFFFFFFFFFFFFFFFFFFFFFFFFFFFFFFF AND DUP2 MSTORE PUSH1 0x20 ADD SWAP1 DUP2 MSTORE PUSH1 0x20 ADD PUSH1 0x0 KECCAK256 SWAP1 POP PUSH1 0x0 DUP1 SWAP1 POP PUSH1 0x0 DUP1 SWAP1 POP JUMPDEST DUP3 DUP1 SLOAD SWAP1 POP DUP2 LT ISZERO PUSH2 0xF7A JUMPI DUP3 DUP2 DUP2 SLOAD DUP2 LT PUSH2 0xF31 JUMPI INVALID JUMPDEST SWAP1 PUSH1 0x0 MSTORE PUSH1 0x20 PUSH1 0x0 KECCAK256 SWAP1 PUSH1 0x2 MUL ADD PUSH1 0x1 ADD SLOAD TIMESTAMP LT ISZERO PUSH2 0xF6D JUMPI DUP3 DUP2 DUP2 SLOAD DUP2 LT PUSH2 0xF56 JUMPI INVALID JUMPDEST SWAP1 PUSH1 0x0 MSTORE PUSH1 0x20 PUSH1 0x0 KECCAK256 SWAP1 PUSH1 0x2 MUL ADD PUSH1 0x0 ADD SLOAD DUP3 ADD SWAP2 POP JUMPDEST DUP1 DUP1 PUSH1 0x1 ADD SWAP2 POP POP PUSH2 0xF19 JUMP JUMPDEST POP DUP1 SWAP3 POP POP POP SWAP2 SWAP1 POP JUMP JUMPDEST PUSH1 0x4 PUSH1 0x0 SWAP1 SLOAD SWAP1 PUSH2 0x100 EXP SWAP1 DIV PUSH20 0xFFFFFFFFFFFFFFFFFFFFFFFFFFFFFFFFFFFFFFFF AND PUSH20 0xFFFFFFFFFFFFFFFFFFFFFFFFFFFFFFFFFFFFFFFF AND CALLER PUSH20 0xFFFFFFFFFFFFFFFFFFFFFFFFFFFFFFFFFFFFFFFF AND EQ PUSH2 0x1015 JUMPI PUSH1 0x40 MLOAD PUSH32 0x8C379A000000000000000000000000000000000000000000000000000000000 DUP2 MSTORE PUSH1 0x4 ADD PUSH2 0x100C SWAP1 PUSH2 0x27C5 JUMP JUMPDEST PUSH1 0x40 MLOAD DUP1 SWAP2 SUB SWAP1 REVERT JUMPDEST PUSH2 0x101E DUP4 PUSH2 0x158A JUMP JUMPDEST POP PUSH1 0x0 PUSH20 0xFFFFFFFFFFFFFFFFFFFFFFFFFFFFFFFFFFFFFFFF AND DUP4 PUSH20 0xFFFFFFFFFFFFFFFFFFFFFFFFFFFFFFFFFFFFFFFF AND EQ ISZERO PUSH2 0x108F JUMPI PUSH1 0x40 MLOAD PUSH32 0x8C379A000000000000000000000000000000000000000000000000000000000 DUP2 MSTORE PUSH1 0x4 ADD PUSH2 0x1086 SWAP1 PUSH2 0x2705 JUMP JUMPDEST PUSH1 0x40 MLOAD DUP1 SWAP2 SUB SWAP1 REVERT JUMPDEST PUSH1 0x0 PUSH1 0x6 PUSH1 0x0 DUP6 PUSH20 0xFFFFFFFFFFFFFFFFFFFFFFFFFFFFFFFFFFFFFFFF AND PUSH20 0xFFFFFFFFFFFFFFFFFFFFFFFFFFFFFFFFFFFFFFFF AND DUP2 MSTORE PUSH1 0x20 ADD SWAP1 DUP2 MSTORE PUSH1 0x20 ADD PUSH1 0x0 KECCAK256 SWAP1 POP DUP1 DUP1 SLOAD SWAP1 POP DUP4 LT PUSH2 0x1118 JUMPI PUSH1 0x40 MLOAD PUSH32 0x8C379A000000000000000000000000000000000000000000000000000000000 DUP2 MSTORE PUSH1 0x4 ADD PUSH2 0x110F SWAP1 PUSH2 0x2805 JUMP JUMPDEST PUSH1 0x40 MLOAD DUP1 SWAP2 SUB SWAP1 REVERT JUMPDEST PUSH1 0x0 DUP2 DUP5 DUP2 SLOAD DUP2 LT PUSH2 0x1126 JUMPI INVALID JUMPDEST SWAP1 PUSH1 0x0 MSTORE PUSH1 0x20 PUSH1 0x0 KECCAK256 SWAP1 PUSH1 0x2 MUL ADD PUSH1 0x0 ADD SLOAD GT PUSH2 0x1178 JUMPI PUSH1 0x40 MLOAD PUSH32 0x8C379A000000000000000000000000000000000000000000000000000000000 DUP2 MSTORE PUSH1 0x4 ADD PUSH2 0x116F SWAP1 PUSH2 0x27E5 JUMP JUMPDEST PUSH1 0x40 MLOAD DUP1 SWAP2 SUB SWAP1 REVERT JUMPDEST PUSH1 0x0 PUSH1 0x3C DUP4 MUL TIMESTAMP ADD SWAP1 POP TIMESTAMP DUP2 GT PUSH2 0x11C4 JUMPI PUSH1 0x40 MLOAD PUSH32 0x8C379A000000000000000000000000000000000000000000000000000000000 DUP2 MSTORE PUSH1 0x4 ADD PUSH2 0x11BB SWAP1 PUSH2 0x2765 JUMP JUMPDEST PUSH1 0x40 MLOAD DUP1 SWAP2 SUB SWAP1 REVERT JUMPDEST DUP1 DUP3 DUP6 DUP2 SLOAD DUP2 LT PUSH2 0x11D1 JUMPI INVALID JUMPDEST SWAP1 PUSH1 0x0 MSTORE PUSH1 0x20 PUSH1 0x0 KECCAK256 SWAP1 PUSH1 0x2 MUL ADD PUSH1 0x1 ADD DUP2 SWAP1 SSTORE POP DUP4 DUP6 PUSH20 0xFFFFFFFFFFFFFFFFFFFFFFFFFFFFFFFFFFFFFFFF AND PUSH32 0x2FBDA298B5B96DD64C5D8E502AA9BC32FC01887DAC2B05C9B8196D4E00464966 DUP4 PUSH1 0x40 MLOAD PUSH2 0x122D SWAP2 SWAP1 PUSH2 0x2845 JUMP JUMPDEST PUSH1 0x40 MLOAD DUP1 SWAP2 SUB SWAP1 LOG3 POP POP POP POP POP JUMP JUMPDEST PUSH1 0x4 PUSH1 0x0 SWAP1 SLOAD SWAP1 PUSH2 0x100 EXP SWAP1 DIV PUSH20 0xFFFFFFFFFFFFFFFFFFFFFFFFFFFFFFFFFFFFFFFF AND DUP2 JUMP JUMPDEST PUSH1 0x6 PUSH1 0x20 MSTORE DUP2 PUSH1 0x0 MSTORE PUSH1 0x40 PUSH1 0x0 KECCAK256 DUP2 DUP2 SLOAD DUP2 LT PUSH2 0x127B JUMPI INVALID JUMPDEST SWAP1 PUSH1 0x0 MSTORE PUSH1 0x20 PUSH1 0x0 KECCAK256 SWAP1 PUSH1 0x2 MUL ADD PUSH1 0x0 SWAP2 POP SWAP2 POP POP DUP1 PUSH1 0x0 ADD SLOAD SWAP1 DUP1 PUSH1 0x1 ADD SLOAD SWAP1 POP DUP3 JUMP JUMPDEST PUSH1 0x1 DUP1 SLOAD PUSH1 0x1 DUP2 PUSH1 0x1 AND ISZERO PUSH2 0x100 MUL SUB AND PUSH1 0x2 SWAP1 DIV DUP1 PUSH1 0x1F ADD PUSH1 0x20 DUP1 SWAP2 DIV MUL PUSH1 0x20 ADD PUSH1 0x40 MLOAD SWAP1 DUP2 ADD PUSH1 0x40 MSTORE DUP1 SWAP3 SWAP2 SWAP1 DUP2 DUP2 MSTORE PUSH1 0x20 ADD DUP3 DUP1 SLOAD PUSH1 0x1 DUP2 PUSH1 0x1 AND ISZERO PUSH2 0x100 MUL SUB AND PUSH1 0x2 SWAP1 DIV DUP1 ISZERO PUSH2 0x1336 JUMPI DUP1 PUSH1 0x1F LT PUSH2 0x130B JUMPI PUSH2 0x100 DUP1 DUP4 SLOAD DIV MUL DUP4 MSTORE SWAP2 PUSH1 0x20 ADD SWAP2 PUSH2 0x1336 JUMP JUMPDEST DUP3 ADD SWAP2 SWAP1 PUSH1 0x0 MSTORE PUSH1 0x20 PUSH1 0x0 KECCAK256 SWAP1 JUMPDEST DUP2 SLOAD DUP2 MSTORE SWAP1 PUSH1 0x1 ADD SWAP1 PUSH1 0x20 ADD DUP1 DUP4 GT PUSH2 0x1319 JUMPI DUP3 SWAP1 SUB PUSH1 0x1F AND DUP3 ADD SWAP2 JUMPDEST POP POP POP POP POP DUP2 JUMP JUMPDEST PUSH1 0x60 DUP1 PUSH1 0x60 DUP1 PUSH1 0x0 PUSH1 0x6 PUSH1 0x0 DUP8 PUSH20 0xFFFFFFFFFFFFFFFFFFFFFFFFFFFFFFFFFFFFFFFF AND PUSH20 0xFFFFFFFFFFFFFFFFFFFFFFFFFFFFFFFFFFFFFFFF AND DUP2 MSTORE PUSH1 0x20 ADD SWAP1 DUP2 MSTORE PUSH1 0x20 ADD PUSH1 0x0 KECCAK256 SWAP1 POP PUSH1 0x0 DUP2 DUP1 SLOAD SWAP1 POP SWAP1 POP DUP1 PUSH1 0x40 MLOAD SWAP1 DUP1 DUP3 MSTORE DUP1 PUSH1 0x20 MUL PUSH1 0x20 ADD DUP3 ADD PUSH1 0x40 MSTORE DUP1 ISZERO PUSH2 0x13BF JUMPI DUP2 PUSH1 0x20 ADD PUSH1 0x20 DUP3 MUL DUP1 CODESIZE DUP4 CODECOPY DUP1 DUP3 ADD SWAP2 POP POP SWAP1 POP JUMPDEST POP SWAP6 POP DUP1 PUSH1 0x40 MLOAD SWAP1 DUP1 DUP3 MSTORE DUP1 PUSH1 0x20 MUL PUSH1 0x20 ADD DUP3 ADD PUSH1 0x40 MSTORE DUP1 ISZERO PUSH2 0x13F1 JUMPI DUP2 PUSH1 0x20 ADD PUSH1 0x20 DUP3 MUL DUP1 CODESIZE DUP4 CODECOPY DUP1 DUP3 ADD SWAP2 POP POP SWAP1 POP JUMPDEST POP SWAP5 POP DUP1 PUSH1 0x40 MLOAD SWAP1 DUP1 DUP3 MSTORE DUP1 PUSH1 0x20 MUL PUSH1 0x20 ADD DUP3 ADD PUSH1 0x40 MSTORE DUP1 ISZERO PUSH2 0x1423 JUMPI DUP2 PUSH1 0x20 ADD PUSH1 0x20 DUP3 MUL DUP1 CODESIZE DUP4 CODECOPY DUP1 DUP3 ADD SWAP2 POP POP SWAP1 POP JUMPDEST POP SWAP4 POP DUP1 PUSH1 0x40 MLOAD SWAP1 DUP1 DUP3 MSTORE DUP1 PUSH1 0x20 MUL PUSH1 0x20 ADD DUP3 ADD PUSH1 0x40 MSTORE DUP1 ISZERO PUSH2 0x1455 JUMPI DUP2 PUSH1 0x20 ADD PUSH1 0x20 DUP3 MUL DUP1 CODESIZE DUP4 CODECOPY DUP1 DUP3 ADD SWAP2 POP POP SWAP1 POP JUMPDEST POP SWAP3 POP PUSH1 0x0 DUP1 SWAP1 POP JUMPDEST DUP2 DUP2 LT ISZERO PUSH2 0x155F JUMPI DUP1 DUP8 DUP3 DUP2 MLOAD DUP2 LT PUSH2 0x1473 JUMPI INVALID JUMPDEST PUSH1 0x20 MUL PUSH1 0x20 ADD ADD DUP2 DUP2 MSTORE POP POP DUP3 DUP2 DUP2 SLOAD DUP2 LT PUSH2 0x148B JUMPI INVALID JUMPDEST SWAP1 PUSH1 0x0 MSTORE PUSH1 0x20 PUSH1 0x0 KECCAK256 SWAP1 PUSH1 0x2 MUL ADD PUSH1 0x0 ADD SLOAD DUP7 DUP3 DUP2 MLOAD DUP2 LT PUSH2 0x14A9 JUMPI INVALID JUMPDEST PUSH1 0x20 MUL PUSH1 0x20 ADD ADD DUP2 DUP2 MSTORE POP POP DUP3 DUP2 DUP2 SLOAD DUP2 LT PUSH2 0x14C1 JUMPI INVALID JUMPDEST SWAP1 PUSH1 0x0 MSTORE PUSH1 0x20 PUSH1 0x0 KECCAK256 SWAP1 PUSH1 0x2 MUL ADD PUSH1 0x1 ADD SLOAD DUP6 DUP3 DUP2 MLOAD DUP2 LT PUSH2 0x14DF JUMPI INVALID JUMPDEST PUSH1 0x20 MUL PUSH1 0x20 ADD ADD DUP2 DUP2 MSTORE POP POP DUP3 DUP2 DUP2 SLOAD DUP2 LT PUSH2 0x14F7 JUMPI INVALID JUMPDEST SWAP1 PUSH1 0x0 MSTORE PUSH1 0x20 PUSH1 0x0 KECCAK256 SWAP1 PUSH1 0x2 MUL ADD PUSH1 0x1 ADD SLOAD TIMESTAMP LT DUP1 ISZERO PUSH2 0x1534 JUMPI POP PUSH1 0x0 DUP4 DUP3 DUP2 SLOAD DUP2 LT PUSH2 0x1520 JUMPI INVALID JUMPDEST SWAP1 PUSH1 0x0 MSTORE PUSH1 0x20 PUSH1 0x0 KECCAK256 SWAP1 PUSH1 0x2 MUL ADD PUSH1 0x0 ADD SLOAD GT JUMPDEST DUP5 DUP3 DUP2 MLOAD DUP2 LT PUSH2 0x1540 JUMPI INVALID JUMPDEST PUSH1 0x20 MUL PUSH1 0x20 ADD ADD SWAP1 ISZERO ISZERO SWAP1 DUP2 ISZERO ISZERO DUP2 MSTORE POP POP DUP1 DUP1 PUSH1 0x1 ADD SWAP2 POP POP PUSH2 0x145E JUMP JUMPDEST POP DUP6 DUP6 DUP6 DUP6 SWAP6 POP SWAP6 POP SWAP6 POP SWAP6 POP POP POP SWAP2 SWAP4 POP SWAP2 SWAP4 JUMP JUMPDEST PUSH1 0x0 PUSH2 0x1582 CALLER DUP5 DUP5 PUSH2 0x638 JUMP JUMPDEST SWAP1 POP SWAP3 SWAP2 POP POP JUMP JUMPDEST PUSH1 0x0 DUP1 PUSH1 0x6 PUSH1 0x0 DUP5 PUSH20 0xFFFFFFFFFFFFFFFFFFFFFFFFFFFFFFFFFFFFFFFF AND PUSH20 0xFFFFFFFFFFFFFFFFFFFFFFFFFFFFFFFFFFFFFFFF AND DUP2 MSTORE PUSH1 0x20 ADD SWAP1 DUP2 MSTORE PUSH1 0x20 ADD PUSH1 0x0 KECCAK256 SWAP1 POP PUSH1 0x60 DUP2 DUP1 SLOAD SWAP1 POP PUSH1 0x40 MLOAD SWAP1 DUP1 DUP3 MSTORE DUP1 PUSH1 0x20 MUL PUSH1 0x20 ADD DUP3 ADD PUSH1 0x40 MSTORE DUP1 ISZERO PUSH2 0x160E JUMPI DUP2 PUSH1 0x20 ADD JUMPDEST PUSH2 0x15FB PUSH2 0x1FE0 JUMP JUMPDEST DUP2 MSTORE PUSH1 0x20 ADD SWAP1 PUSH1 0x1 SWAP1 SUB SWAP1 DUP2 PUSH2 0x15F3 JUMPI SWAP1 POP JUMPDEST POP SWAP1 POP PUSH1 0x0 DUP1 SWAP1 POP PUSH1 0x0 DUP1 SWAP1 POP JUMPDEST DUP4 DUP1 SLOAD SWAP1 POP DUP2 LT ISZERO PUSH2 0x1729 JUMPI DUP4 DUP2 DUP2 SLOAD DUP2 LT PUSH2 0x1634 JUMPI INVALID JUMPDEST SWAP1 PUSH1 0x0 MSTORE PUSH1 0x20 PUSH1 0x0 KECCAK256 SWAP1 PUSH1 0x2 MUL ADD PUSH1 0x1 ADD SLOAD TIMESTAMP LT ISZERO DUP1 ISZERO PUSH2 0x1672 JUMPI POP PUSH1 0x0 DUP5 DUP3 DUP2 SLOAD DUP2 LT PUSH2 0x165E JUMPI INVALID JUMPDEST SWAP1 PUSH1 0x0 MSTORE PUSH1 0x20 PUSH1 0x0 KECCAK256 SWAP1 PUSH1 0x2 MUL ADD PUSH1 0x0 ADD SLOAD GT JUMPDEST ISZERO PUSH2 0x169E JUMPI DUP4 DUP2 DUP2 SLOAD DUP2 LT PUSH2 0x1683 JUMPI INVALID JUMPDEST SWAP1 PUSH1 0x0 MSTORE PUSH1 0x20 PUSH1 0x0 KECCAK256 SWAP1 PUSH1 0x2 MUL ADD PUSH1 0x0 ADD SLOAD DUP6 ADD SWAP5 POP PUSH2 0x171C JUMP JUMPDEST PUSH1 0x0 DUP5 DUP3 DUP2 SLOAD DUP2 LT PUSH2 0x16AC JUMPI INVALID JUMPDEST SWAP1 PUSH1 0x0 MSTORE PUSH1 0x20 PUSH1 0x0 KECCAK256 SWAP1 PUSH1 0x2 MUL ADD PUSH1 0x0 ADD SLOAD GT ISZERO PUSH2 0x171B JUMPI DUP4 DUP2 DUP2 SLOAD DUP2 LT PUSH2 0x16D0 JUMPI INVALID JUMPDEST SWAP1 PUSH1 0x0 MSTORE PUSH1 0x20 PUSH1 0x0 KECCAK256 SWAP1 PUSH1 0x2 MUL ADD PUSH1 0x40 MLOAD DUP1 PUSH1 0x40 ADD PUSH1 0x40 MSTORE SWAP1 DUP2 PUSH1 0x0 DUP3 ADD SLOAD DUP2 MSTORE PUSH1 0x20 ADD PUSH1 0x1 DUP3 ADD SLOAD DUP2 MSTORE POP POP DUP4 DUP4 DUP1 PUSH1 0x1 ADD SWAP5 POP DUP2 MLOAD DUP2 LT PUSH2 0x170F JUMPI INVALID JUMPDEST PUSH1 0x20 MUL PUSH1 0x20 ADD ADD DUP2 SWAP1 MSTORE POP JUMPDEST JUMPDEST DUP1 DUP1 PUSH1 0x1 ADD SWAP2 POP POP PUSH2 0x161C JUMP JUMPDEST POP PUSH1 0x6 PUSH1 0x0 DUP7 PUSH20 0xFFFFFFFFFFFFFFFFFFFFFFFFFFFFFFFFFFFFFFFF AND PUSH20 0xFFFFFFFFFFFFFFFFFFFFFFFFFFFFFFFFFFFFFFFF AND DUP2 MSTORE PUSH1 0x20 ADD SWAP1 DUP2 MSTORE PUSH1 0x20 ADD PUSH1 0x0 KECCAK256 PUSH1 0x0 PUSH2 0x1775 SWAP2 SWAP1 PUSH2 0x1FFA JUMP JUMPDEST PUSH1 0x0 DUP1 SWAP1 POP JUMPDEST DUP2 DUP2 LT ISZERO PUSH2 0x1825 JUMPI PUSH1 0x6 PUSH1 0x0 DUP8 PUSH20 0xFFFFFFFFFFFFFFFFFFFFFFFFFFFFFFFFFFFFFFFF AND PUSH20 0xFFFFFFFFFFFFFFFFFFFFFFFFFFFFFFFFFFFFFFFF AND DUP2 MSTORE PUSH1 0x20 ADD SWAP1 DUP2 MSTORE PUSH1 0x20 ADD PUSH1 0x0 KECCAK256 DUP4 DUP3 DUP2 MLOAD DUP2 LT PUSH2 0x17CE JUMPI INVALID JUMPDEST PUSH1 0x20 MUL PUSH1 0x20 ADD ADD MLOAD SWAP1 DUP1 PUSH1 0x1 DUP2 SLOAD ADD DUP1 DUP3 SSTORE DUP1 SWAP2 POP POP SWAP1 PUSH1 0x1 DUP3 SUB SWAP1 PUSH1 0x0 MSTORE PUSH1 0x20 PUSH1 0x0 KECCAK256 SWAP1 PUSH1 0x2 MUL ADD PUSH1 0x0 SWAP1 SWAP2 SWAP3 SWAP1 SWAP2 SWAP1 SWAP2 POP PUSH1 0x0 DUP3 ADD MLOAD DUP2 PUSH1 0x0 ADD SSTORE PUSH1 0x20 DUP3 ADD MLOAD DUP2 PUSH1 0x1 ADD SSTORE POP POP POP DUP1 DUP1 PUSH1 0x1 ADD SWAP2 POP POP PUSH2 0x177B JUMP JUMPDEST POP PUSH1 0x0 DUP5 GT ISZERO PUSH2 0x18F4 JUMPI DUP4 PUSH1 0x3 PUSH1 0x0 DUP3 DUP3 SLOAD SUB SWAP3 POP POP DUP2 SWAP1 SSTORE POP DUP5 PUSH20 0xFFFFFFFFFFFFFFFFFFFFFFFFFFFFFFFFFFFFFFFF AND PUSH32 0x696DE425F79F4A40BC6D2122CA50507F0EFBEABBFF86A84871B7196AB8EA8DF7 DUP6 PUSH1 0x40 MLOAD PUSH2 0x1885 SWAP2 SWAP1 PUSH2 0x2845 JUMP JUMPDEST PUSH1 0x40 MLOAD DUP1 SWAP2 SUB SWAP1 LOG2 PUSH1 0x0 PUSH20 0xFFFFFFFFFFFFFFFFFFFFFFFFFFFFFFFFFFFFFFFF AND DUP6 PUSH20 0xFFFFFFFFFFFFFFFFFFFFFFFFFFFFFFFFFFFFFFFF AND PUSH32 0xDDF252AD1BE2C89B69C2B068FC378DAA952BA7F163C4A11628F55A4DF523B3EF DUP7 PUSH1 0x40 MLOAD PUSH2 0x18EB SWAP2 SWAP1 PUSH2 0x2845 JUMP JUMPDEST PUSH1 0x40 MLOAD DUP1 SWAP2 SUB SWAP1 LOG3 JUMPDEST DUP4 SWAP4 POP POP POP POP SWAP2 SWAP1 POP JUMP JUMPDEST PUSH1 0x60 DUP1 PUSH1 0x0 PUSH1 0x6 PUSH1 0x0 DUP6 PUSH20 0xFFFFFFFFFFFFFFFFFFFFFFFFFFFFFFFFFFFFFFFF AND PUSH20 0xFFFFFFFFFFFFFFFFFFFFFFFFFFFFFFFFFFFFFFFF AND DUP2 MSTORE PUSH1 0x20 ADD SWAP1 DUP2 MSTORE PUSH1 0x20 ADD PUSH1 0x0 KECCAK256 SWAP1 POP PUSH1 0x0 DUP1 SWAP1 POP PUSH1 0x0 DUP1 SWAP1 POP JUMPDEST DUP3 DUP1 SLOAD SWAP1 POP DUP2 LT ISZERO PUSH2 0x19C1 JUMPI DUP3 DUP2 DUP2 SLOAD DUP2 LT PUSH2 0x1968 JUMPI INVALID JUMPDEST SWAP1 PUSH1 0x0 MSTORE PUSH1 0x20 PUSH1 0x0 KECCAK256 SWAP1 PUSH1 0x2 MUL ADD PUSH1 0x1 ADD SLOAD TIMESTAMP LT ISZERO DUP1 ISZERO PUSH2 0x19A6 JUMPI POP PUSH1 0x0 DUP4 DUP3 DUP2 SLOAD DUP2 LT PUSH2 0x1992 JUMPI INVALID JUMPDEST SWAP1 PUSH1 0x0 MSTORE PUSH1 0x20 PUSH1 0x0 KECCAK256 SWAP1 PUSH1 0x2 MUL ADD PUSH1 0x0 ADD SLOAD GT JUMPDEST ISZERO PUSH2 0x19B4 JUMPI DUP2 DUP1 PUSH1 0x1 ADD SWAP3 POP POP JUMPDEST DUP1 DUP1 PUSH1 0x1 ADD SWAP2 POP POP PUSH2 0x1950 JUMP JUMPDEST POP PUSH1 0x60 DUP2 PUSH1 0x40 MLOAD SWAP1 DUP1 DUP3 MSTORE DUP1 PUSH1 0x20 MUL PUSH1 0x20 ADD DUP3 ADD PUSH1 0x40 MSTORE DUP1 ISZERO PUSH2 0x19F3 JUMPI DUP2 PUSH1 0x20 ADD PUSH1 0x20 DUP3 MUL DUP1 CODESIZE DUP4 CODECOPY DUP1 DUP3 ADD SWAP2 POP POP SWAP1 POP JUMPDEST POP SWAP1 POP PUSH1 0x60 DUP3 PUSH1 0x40 MLOAD SWAP1 DUP1 DUP3 MSTORE DUP1 PUSH1 0x20 MUL PUSH1 0x20 ADD DUP3 ADD PUSH1 0x40 MSTORE DUP1 ISZERO PUSH2 0x1A27 JUMPI DUP2 PUSH1 0x20 ADD PUSH1 0x20 DUP3 MUL DUP1 CODESIZE DUP4 CODECOPY DUP1 DUP3 ADD SWAP2 POP POP SWAP1 POP JUMPDEST POP SWAP1 POP PUSH1 0x0 DUP1 SWAP1 POP PUSH1 0x0 DUP1 SWAP1 POP JUMPDEST DUP6 DUP1 SLOAD SWAP1 POP DUP2 LT ISZERO PUSH2 0x1B12 JUMPI DUP6 DUP2 DUP2 SLOAD DUP2 LT PUSH2 0x1A4D JUMPI INVALID JUMPDEST SWAP1 PUSH1 0x0 MSTORE PUSH1 0x20 PUSH1 0x0 KECCAK256 SWAP1 PUSH1 0x2 MUL ADD PUSH1 0x1 ADD SLOAD TIMESTAMP LT ISZERO DUP1 ISZERO PUSH2 0x1A8B JUMPI POP PUSH1 0x0 DUP7 DUP3 DUP2 SLOAD DUP2 LT PUSH2 0x1A77 JUMPI INVALID JUMPDEST SWAP1 PUSH1 0x0 MSTORE PUSH1 0x20 PUSH1 0x0 KECCAK256 SWAP1 PUSH1 0x2 MUL ADD PUSH1 0x0 ADD SLOAD GT JUMPDEST ISZERO PUSH2 0x1B05 JUMPI DUP6 DUP2 DUP2 SLOAD DUP2 LT PUSH2 0x1A9C JUMPI INVALID JUMPDEST SWAP1 PUSH1 0x0 MSTORE PUSH1 0x20 PUSH1 0x0 KECCAK256 SWAP1 PUSH1 0x2 MUL ADD PUSH1 0x0 ADD SLOAD DUP5 DUP4 DUP2 MLOAD DUP2 LT PUSH2 0x1ABA JUMPI INVALID JUMPDEST PUSH1 0x20 MUL PUSH1 0x20 ADD ADD DUP2 DUP2 MSTORE POP POP DUP6 DUP2 DUP2 SLOAD DUP2 LT PUSH2 0x1AD2 JUMPI INVALID JUMPDEST SWAP1 PUSH1 0x0 MSTORE PUSH1 0x20 PUSH1 0x0 KECCAK256 SWAP1 PUSH1 0x2 MUL ADD PUSH1 0x1 ADD SLOAD DUP4 DUP4 DUP2 MLOAD DUP2 LT PUSH2 0x1AF0 JUMPI INVALID JUMPDEST PUSH1 0x20 MUL PUSH1 0x20 ADD ADD DUP2 DUP2 MSTORE POP POP DUP2 DUP1 PUSH1 0x1 ADD SWAP3 POP POP JUMPDEST DUP1 DUP1 PUSH1 0x1 ADD SWAP2 POP POP PUSH2 0x1A35 JUMP JUMPDEST POP DUP3 DUP3 SWAP7 POP SWAP7 POP POP POP POP POP POP SWAP2 POP SWAP2 JUMP JUMPDEST PUSH1 0x4 PUSH1 0x0 SWAP1 SLOAD SWAP1 PUSH2 0x100 EXP SWAP1 DIV PUSH20 0xFFFFFFFFFFFFFFFFFFFFFFFFFFFFFFFFFFFFFFFF AND PUSH20 0xFFFFFFFFFFFFFFFFFFFFFFFFFFFFFFFFFFFFFFFF AND CALLER PUSH20 0xFFFFFFFFFFFFFFFFFFFFFFFFFFFFFFFFFFFFFFFF AND EQ PUSH2 0x1BB3 JUMPI PUSH1 0x40 MLOAD PUSH32 0x8C379A000000000000000000000000000000000000000000000000000000000 DUP2 MSTORE PUSH1 0x4 ADD PUSH2 0x1BAA SWAP1 PUSH2 0x27C5 JUMP JUMPDEST PUSH1 0x40 MLOAD DUP1 SWAP2 SUB SWAP1 REVERT JUMPDEST PUSH2 0x1BBC DUP4 PUSH2 0x158A JUMP JUMPDEST POP PUSH1 0x0 PUSH20 0xFFFFFFFFFFFFFFFFFFFFFFFFFFFFFFFFFFFFFFFF AND DUP4 PUSH20 0xFFFFFFFFFFFFFFFFFFFFFFFFFFFFFFFFFFFFFFFF AND EQ ISZERO PUSH2 0x1C2D JUMPI PUSH1 0x40 MLOAD PUSH32 0x8C379A000000000000000000000000000000000000000000000000000000000 DUP2 MSTORE PUSH1 0x4 ADD PUSH2 0x1C24 SWAP1 PUSH2 0x2705 JUMP JUMPDEST PUSH1 0x40 MLOAD DUP1 SWAP2 SUB SWAP1 REVERT JUMPDEST PUSH1 0x0 PUSH1 0x3C DUP3 MUL TIMESTAMP ADD SWAP1 POP PUSH1 0x6 PUSH1 0x0 DUP6 PUSH20 0xFFFFFFFFFFFFFFFFFFFFFFFFFFFFFFFFFFFFFFFF AND PUSH20 0xFFFFFFFFFFFFFFFFFFFFFFFFFFFFFFFFFFFFFFFF AND DUP2 MSTORE PUSH1 0x20 ADD SWAP1 DUP2 MSTORE PUSH1 0x20 ADD PUSH1 0x0 KECCAK256 PUSH1 0x40 MLOAD DUP1 PUSH1 0x40 ADD PUSH1 0x40 MSTORE DUP1 DUP6 DUP2 MSTORE PUSH1 0x20 ADD DUP4 DUP2 MSTORE POP SWAP1 DUP1 PUSH1 0x1 DUP2 SLOAD ADD DUP1 DUP3 SSTORE DUP1 SWAP2 POP POP SWAP1 PUSH1 0x1 DUP3 SUB SWAP1 PUSH1 0x0 MSTORE PUSH1 0x20 PUSH1 0x0 KECCAK256 SWAP1 PUSH1 0x2 MUL ADD PUSH1 0x0 SWAP1 SWAP2 SWAP3 SWAP1 SWAP2 SWAP1 SWAP2 POP PUSH1 0x0 DUP3 ADD MLOAD DUP2 PUSH1 0x0 ADD SSTORE PUSH1 0x20 DUP3 ADD MLOAD DUP2 PUSH1 0x1 ADD SSTORE POP POP POP DUP3 PUSH1 0x3 PUSH1 0x0 DUP3 DUP3 SLOAD ADD SWAP3 POP POP DUP2 SWAP1 SSTORE POP DUP4 PUSH20 0xFFFFFFFFFFFFFFFFFFFFFFFFFFFFFFFFFFFFFFFF AND PUSH32 0xC1D5A9A0A7CDDDBC3DB5B9AEFFBC9FA1BA5F7275FBD46D9DE20EC463F8B8CFBD DUP5 DUP4 PUSH1 0x40 MLOAD PUSH2 0x1D25 SWAP3 SWAP2 SWAP1 PUSH2 0x2860 JUMP JUMPDEST PUSH1 0x40 MLOAD DUP1 SWAP2 SUB SWAP1 LOG2 DUP4 PUSH20 0xFFFFFFFFFFFFFFFFFFFFFFFFFFFFFFFFFFFFFFFF AND PUSH1 0x0 PUSH20 0xFFFFFFFFFFFFFFFFFFFFFFFFFFFFFFFFFFFFFFFF AND PUSH32 0xDDF252AD1BE2C89B69C2B068FC378DAA952BA7F163C4A11628F55A4DF523B3EF DUP6 PUSH1 0x40 MLOAD PUSH2 0x1D8B SWAP2 SWAP1 PUSH2 0x2845 JUMP JUMPDEST PUSH1 0x40 MLOAD DUP1 SWAP2 SUB SWAP1 LOG3 POP POP POP POP JUMP JUMPDEST PUSH1 0x60 DUP1 PUSH1 0x0 PUSH1 0x6 PUSH1 0x0 DUP6 PUSH20 0xFFFFFFFFFFFFFFFFFFFFFFFFFFFFFFFFFFFFFFFF AND PUSH20 0xFFFFFFFFFFFFFFFFFFFFFFFFFFFFFFFFFFFFFFFF AND DUP2 MSTORE PUSH1 0x20 ADD SWAP1 DUP2 MSTORE PUSH1 0x20 ADD PUSH1 0x0 KECCAK256 SWAP1 POP PUSH1 0x0 DUP1 SWAP1 POP PUSH1 0x0 DUP1 SWAP1 POP JUMPDEST DUP3 DUP1 SLOAD SWAP1 POP DUP2 LT ISZERO PUSH2 0x1E5A JUMPI DUP3 DUP2 DUP2 SLOAD DUP2 LT PUSH2 0x1E02 JUMPI INVALID JUMPDEST SWAP1 PUSH1 0x0 MSTORE PUSH1 0x20 PUSH1 0x0 KECCAK256 SWAP1 PUSH1 0x2 MUL ADD PUSH1 0x1 ADD SLOAD TIMESTAMP LT DUP1 ISZERO PUSH2 0x1E3F JUMPI POP PUSH1 0x0 DUP4 DUP3 DUP2 SLOAD DUP2 LT PUSH2 0x1E2B JUMPI INVALID JUMPDEST SWAP1 PUSH1 0x0 MSTORE PUSH1 0x20 PUSH1 0x0 KECCAK256 SWAP1 PUSH1 0x2 MUL ADD PUSH1 0x0 ADD SLOAD GT JUMPDEST ISZERO PUSH2 0x1E4D JUMPI DUP2 DUP1 PUSH1 0x1 ADD SWAP3 POP POP JUMPDEST DUP1 DUP1 PUSH1 0x1 ADD SWAP2 POP POP PUSH2 0x1DEA JUMP JUMPDEST POP PUSH1 0x60 DUP2 PUSH1 0x40 MLOAD SWAP1 DUP1 DUP3 MSTORE DUP1 PUSH1 0x20 MUL PUSH1 0x20 ADD DUP3 ADD PUSH1 0x40 MSTORE DUP1 ISZERO PUSH2 0x1E8C JUMPI DUP2 PUSH1 0x20 ADD PUSH1 0x20 DUP3 MUL DUP1 CODESIZE DUP4 CODECOPY DUP1 DUP3 ADD SWAP2 POP POP SWAP1 POP JUMPDEST POP SWAP1 POP PUSH1 0x60 DUP3 PUSH1 0x40 MLOAD SWAP1 DUP1 DUP3 MSTORE DUP1 PUSH1 0x20 MUL PUSH1 0x20 ADD DUP3 ADD PUSH1 0x40 MSTORE DUP1 ISZERO PUSH2 0x1EC0 JUMPI DUP2 PUSH1 0x20 ADD PUSH1 0x20 DUP3 MUL DUP1 CODESIZE DUP4 CODECOPY DUP1 DUP3 ADD SWAP2 POP POP SWAP1 POP JUMPDEST POP SWAP1 POP PUSH1 0x0 DUP1 SWAP1 POP PUSH1 0x0 DUP1 SWAP1 POP JUMPDEST DUP6 DUP1 SLOAD SWAP1 POP DUP2 LT ISZERO PUSH2 0x1FAA JUMPI DUP6 DUP2 DUP2 SLOAD DUP2 LT PUSH2 0x1EE6 JUMPI INVALID JUMPDEST SWAP1 PUSH1 0x0 MSTORE PUSH1 0x20 PUSH1 0x0 KECCAK256 SWAP1 PUSH1 0x2 MUL ADD PUSH1 0x1 ADD SLOAD TIMESTAMP LT DUP1 ISZERO PUSH2 0x1F23 JUMPI POP PUSH1 0x0 DUP7 DUP3 DUP2 SLOAD DUP2 LT PUSH2 0x1F0F JUMPI INVALID JUMPDEST SWAP1 PUSH1 0x0 MSTORE PUSH1 0x20 PUSH1 0x0 KECCAK256 SWAP1 PUSH1 0x2 MUL ADD PUSH1 0x0 ADD SLOAD GT JUMPDEST ISZERO PUSH2 0x1F9D JUMPI DUP6 DUP2 DUP2 SLOAD DUP2 LT PUSH2 0x1F34 JUMPI INVALID JUMPDEST SWAP1 PUSH1 0x0 MSTORE PUSH1 0x20 PUSH1 0x0 KECCAK256 SWAP1 PUSH1 0x2 MUL ADD PUSH1 0x0 ADD SLOAD DUP5 DUP4 DUP2 MLOAD DUP2 LT PUSH2 0x1F52 JUMPI INVALID JUMPDEST PUSH1 0x20 MUL PUSH1 0x20 ADD ADD DUP2 DUP2 MSTORE POP POP DUP6 DUP2 DUP2 SLOAD DUP2 LT PUSH2 0x1F6A JUMPI INVALID JUMPDEST SWAP1 PUSH1 0x0 MSTORE PUSH1 0x20 PUSH1 0x0 KECCAK256 SWAP1 PUSH1 0x2 MUL ADD PUSH1 0x1 ADD SLOAD DUP4 DUP4 DUP2 MLOAD DUP2 LT PUSH2 0x1F88 JUMPI INVALID JUMPDEST PUSH1 0x20 MUL PUSH1 0x20 ADD ADD DUP2 DUP2 MSTORE POP POP DUP2 DUP1 PUSH1 0x1 ADD SWAP3 POP POP JUMPDEST DUP1 DUP1 PUSH1 0x1 ADD SWAP2 POP POP PUSH2 0x1ECE JUMP JUMPDEST POP DUP3 DUP3 SWAP7 POP SWAP7 POP POP POP POP POP POP SWAP2 POP SWAP2 JUMP JUMPDEST PUSH1 0x7 PUSH1 0x20 MSTORE DUP2 PUSH1 0x0 MSTORE PUSH1 0x40 PUSH1 0x0 KECCAK256 PUSH1 0x20 MSTORE DUP1 PUSH1 0x0 MSTORE PUSH1 0x40 PUSH1 0x0 KECCAK256 PUSH1 0x0 SWAP2 POP SWAP2 POP POP SLOAD DUP2 JUMP JUMPDEST PUSH1 0x40 MLOAD DUP1 PUSH1 0x40 ADD PUSH1 0x40 MSTORE DUP1 PUSH1 0x0 DUP2 MSTORE PUSH1 0x20 ADD PUSH1 0x0 DUP2 MSTORE POP SWAP1 JUMP JUMPDEST POP DUP1 SLOAD PUSH1 0x0 DUP3 SSTORE PUSH1 0x2 MUL SWAP1 PUSH1 0x0 MSTORE PUSH1 0x20 PUSH1 0x0 KECCAK256 SWAP1 DUP2 ADD SWAP1 PUSH2 0x201B SWAP2 SWAP1 PUSH2 0x201E JUMP JUMPDEST POP JUMP JUMPDEST PUSH2 0x204A SWAP2 SWAP1 JUMPDEST DUP1 DUP3 GT ISZERO PUSH2 0x2046 JUMPI PUSH1 0x0 DUP1 DUP3 ADD PUSH1 0x0 SWAP1 SSTORE PUSH1 0x1 DUP3 ADD PUSH1 0x0 SWAP1 SSTORE POP PUSH1 0x2 ADD PUSH2 0x2024 JUMP JUMPDEST POP SWAP1 JUMP JUMPDEST SWAP1 JUMP JUMPDEST PUSH1 0x0 DUP2 CALLDATALOAD SWAP1 POP PUSH2 0x205C DUP2 PUSH2 0x29CB JUMP JUMPDEST SWAP3 SWAP2 POP POP JUMP JUMPDEST PUSH1 0x0 DUP2 CALLDATALOAD SWAP1 POP PUSH2 0x2071 DUP2 PUSH2 0x29E2 JUMP JUMPDEST SWAP3 SWAP2 POP POP JUMP JUMPDEST PUSH1 0x0 PUSH1 0x20 DUP3 DUP5 SUB SLT ISZERO PUSH2 0x2089 JUMPI PUSH1 0x0 DUP1 REVERT JUMPDEST PUSH1 0x0 PUSH2 0x2097 DUP5 DUP3 DUP6 ADD PUSH2 0x204D JUMP JUMPDEST SWAP2 POP POP SWAP3 SWAP2 POP POP JUMP JUMPDEST PUSH1 0x0 DUP1 PUSH1 0x40 DUP4 DUP6 SUB SLT ISZERO PUSH2 0x20B3 JUMPI PUSH1 0x0 DUP1 REVERT JUMPDEST PUSH1 0x0 PUSH2 0x20C1 DUP6 DUP3 DUP7 ADD PUSH2 0x204D JUMP JUMPDEST SWAP3 POP POP PUSH1 0x20 PUSH2 0x20D2 DUP6 DUP3 DUP7 ADD PUSH2 0x204D JUMP JUMPDEST SWAP2 POP POP SWAP3 POP SWAP3 SWAP1 POP JUMP JUMPDEST PUSH1 0x0 DUP1 PUSH1 0x0 PUSH1 0x60 DUP5 DUP7 SUB SLT ISZERO PUSH2 0x20F1 JUMPI PUSH1 0x0 DUP1 REVERT JUMPDEST PUSH1 0x0 PUSH2 0x20FF DUP7 DUP3 DUP8 ADD PUSH2 0x204D JUMP JUMPDEST SWAP4 POP POP PUSH1 0x20 PUSH2 0x2110 DUP7 DUP3 DUP8 ADD PUSH2 0x204D JUMP JUMPDEST SWAP3 POP POP PUSH1 0x40 PUSH2 0x2121 DUP7 DUP3 DUP8 ADD PUSH2 0x2062 JUMP JUMPDEST SWAP2 POP POP SWAP3 POP SWAP3 POP SWAP3 JUMP JUMPDEST PUSH1 0x0 DUP1 PUSH1 0x40 DUP4 DUP6 SUB SLT ISZERO PUSH2 0x213E JUMPI PUSH1 0x0 DUP1 REVERT JUMPDEST PUSH1 0x0 PUSH2 0x214C DUP6 DUP3 DUP7 ADD PUSH2 0x204D JUMP JUMPDEST SWAP3 POP POP PUSH1 0x20 PUSH2 0x215D DUP6 DUP3 DUP7 ADD PUSH2 0x2062 JUMP JUMPDEST SWAP2 POP POP SWAP3 POP SWAP3 SWAP1 POP JUMP JUMPDEST PUSH1 0x0 DUP1 PUSH1 0x0 PUSH1 0x60 DUP5 DUP7 SUB SLT ISZERO PUSH2 0x217C JUMPI PUSH1 0x0 DUP1 REVERT JUMPDEST PUSH1 0x0 PUSH2 0x218A DUP7 DUP3 DUP8 ADD PUSH2 0x204D JUMP JUMPDEST SWAP4 POP POP PUSH1 0x20 PUSH2 0x219B DUP7 DUP3 DUP8 ADD PUSH2 0x2062 JUMP JUMPDEST SWAP3 POP POP PUSH1 0x40 PUSH2 0x21AC DUP7 DUP3 DUP8 ADD PUSH2 0x2062 JUMP JUMPDEST SWAP2 POP POP SWAP3 POP SWAP3 POP SWAP3 JUMP JUMPDEST PUSH1 0x0 PUSH2 0x21C2 DUP4 DUP4 PUSH2 0x22B1 JUMP JUMPDEST PUSH1 0x20 DUP4 ADD SWAP1 POP SWAP3 SWAP2 POP POP JUMP JUMPDEST PUSH1 0x0 PUSH2 0x21DA DUP4 DUP4 PUSH2 0x25C8 JUMP JUMPDEST PUSH1 0x20 DUP4 ADD SWAP1 POP SWAP3 SWAP2 POP POP JUMP JUMPDEST PUSH2 0x21EF DUP2 PUSH2 0x2932 JUMP JUMPDEST DUP3 MSTORE POP POP JUMP JUMPDEST PUSH1 0x0 PUSH2 0x2200 DUP3 PUSH2 0x28C4 JUMP JUMPDEST PUSH2 0x220A DUP2 DUP6 PUSH2 0x28FF JUMP JUMPDEST SWAP4 POP PUSH2 0x2215 DUP4 PUSH2 0x28A4 JUMP JUMPDEST DUP1 PUSH1 0x0 JUMPDEST DUP4 DUP2 LT ISZERO PUSH2 0x2246 JUMPI DUP2 MLOAD PUSH2 0x222D DUP9 DUP3 PUSH2 0x21B6 JUMP JUMPDEST SWAP8 POP PUSH2 0x2238 DUP4 PUSH2 0x28E5 JUMP JUMPDEST SWAP3 POP POP PUSH1 0x1 DUP2 ADD SWAP1 POP PUSH2 0x2219 JUMP JUMPDEST POP DUP6 SWAP4 POP POP POP POP SWAP3 SWAP2 POP POP JUMP JUMPDEST PUSH1 0x0 PUSH2 0x225E DUP3 PUSH2 0x28CF JUMP JUMPDEST PUSH2 0x2268 DUP2 DUP6 PUSH2 0x2910 JUMP JUMPDEST SWAP4 POP PUSH2 0x2273 DUP4 PUSH2 0x28B4 JUMP JUMPDEST DUP1 PUSH1 0x0 JUMPDEST DUP4 DUP2 LT ISZERO PUSH2 0x22A4 JUMPI DUP2 MLOAD PUSH2 0x228B DUP9 DUP3 PUSH2 0x21CE JUMP JUMPDEST SWAP8 POP PUSH2 0x2296 DUP4 PUSH2 0x28F2 JUMP JUMPDEST SWAP3 POP POP PUSH1 0x1 DUP2 ADD SWAP1 POP PUSH2 0x2277 JUMP JUMPDEST POP DUP6 SWAP4 POP POP POP POP SWAP3 SWAP2 POP POP JUMP JUMPDEST PUSH2 0x22BA DUP2 PUSH2 0x2944 JUMP JUMPDEST DUP3 MSTORE POP POP JUMP JUMPDEST PUSH2 0x22C9 DUP2 PUSH2 0x2944 JUMP JUMPDEST DUP3 MSTORE POP POP JUMP JUMPDEST PUSH1 0x0 PUSH2 0x22DA DUP3 PUSH2 0x28DA JUMP JUMPDEST PUSH2 0x22E4 DUP2 DUP6 PUSH2 0x2921 JUMP JUMPDEST SWAP4 POP PUSH2 0x22F4 DUP2 DUP6 PUSH1 0x20 DUP7 ADD PUSH2 0x2987 JUMP JUMPDEST PUSH2 0x22FD DUP2 PUSH2 0x29BA JUMP JUMPDEST DUP5 ADD SWAP2 POP POP SWAP3 SWAP2 POP POP JUMP JUMPDEST PUSH1 0x0 PUSH2 0x2315 PUSH1 0x12 DUP4 PUSH2 0x2921 JUMP JUMPDEST SWAP2 POP PUSH32 0x416C6C6F77616E63652065786365656465640000000000000000000000000000 PUSH1 0x0 DUP4 ADD MSTORE PUSH1 0x20 DUP3 ADD SWAP1 POP SWAP2 SWAP1 POP JUMP JUMPDEST PUSH1 0x0 PUSH2 0x2355 PUSH1 0xF DUP4 PUSH2 0x2921 JUMP JUMPDEST SWAP2 POP PUSH32 0x496E76616C696420616464726573730000000000000000000000000000000000 PUSH1 0x0 DUP4 ADD MSTORE PUSH1 0x20 DUP3 ADD SWAP1 POP SWAP2 SWAP1 POP JUMP JUMPDEST PUSH1 0x0 PUSH2 0x2395 PUSH1 0x20 DUP4 PUSH2 0x2921 JUMP JUMPDEST SWAP2 POP PUSH32 0x416D6F756E74206D7573742062652067726561746572207468616E207A65726F PUSH1 0x0 DUP4 ADD MSTORE PUSH1 0x20 DUP3 ADD SWAP1 POP SWAP2 SWAP1 POP JUMP JUMPDEST PUSH1 0x0 PUSH2 0x23D5 PUSH1 0xE DUP4 PUSH2 0x2921 JUMP JUMPDEST SWAP2 POP PUSH32 0x496E76616C69642073656E646572000000000000000000000000000000000000 PUSH1 0x0 DUP4 ADD MSTORE PUSH1 0x20 DUP3 ADD SWAP1 POP SWAP2 SWAP1 POP JUMP JUMPDEST PUSH1 0x0 PUSH2 0x2415 PUSH1 0x20 DUP4 PUSH2 0x2921 JUMP JUMPDEST SWAP2 POP PUSH32 0x4E657720657870697279206D75737420626520696E2074686520667574757265 PUSH1 0x0 DUP4 ADD MSTORE PUSH1 0x20 DUP3 ADD SWAP1 POP SWAP2 SWAP1 POP JUMP JUMPDEST PUSH1 0x0 PUSH2 0x2455 PUSH1 0x1E DUP4 PUSH2 0x2921 JUMP JUMPDEST SWAP2 POP PUSH32 0x496E73756666696369656E7420756E657870697265642062616C616E63650000 PUSH1 0x0 DUP4 ADD MSTORE PUSH1 0x20 DUP3 ADD SWAP1 POP SWAP2 SWAP1 POP JUMP JUMPDEST PUSH1 0x0 PUSH2 0x2495 PUSH1 0x11 DUP4 PUSH2 0x2921 JUMP JUMPDEST SWAP2 POP PUSH32 0x496E76616C696420726563697069656E74000000000000000000000000000000 PUSH1 0x0 DUP4 ADD MSTORE PUSH1 0x20 DUP3 ADD SWAP1 POP SWAP2 SWAP1 POP JUMP JUMPDEST PUSH1 0x0 PUSH2 0x24D5 PUSH1 0x9 DUP4 PUSH2 0x2921 JUMP JUMPDEST SWAP2 POP PUSH32 0x4E6F74206F776E65720000000000000000000000000000000000000000000000 PUSH1 0x0 DUP4 ADD MSTORE PUSH1 0x20 DUP3 ADD SWAP1 POP SWAP2 SWAP1 POP JUMP JUMPDEST PUSH1 0x0 PUSH2 0x2515 PUSH1 0x12 DUP4 PUSH2 0x2921 JUMP JUMPDEST SWAP2 POP PUSH32 0x546F6B656E206C6F7420697320656D7074790000000000000000000000000000 PUSH1 0x0 DUP4 ADD MSTORE PUSH1 0x20 DUP3 ADD SWAP1 POP SWAP2 SWAP1 POP JUMP JUMPDEST PUSH1 0x0 PUSH2 0x2555 PUSH1 0x11 DUP4 PUSH2 0x2921 JUMP JUMPDEST SWAP2 POP PUSH32 0x496E76616C6964206C6F7420696E646578000000000000000000000000000000 PUSH1 0x0 DUP4 ADD MSTORE PUSH1 0x20 DUP3 ADD SWAP1 POP SWAP2 SWAP1 POP JUMP JUMPDEST PUSH1 0x0 PUSH2 0x2595 PUSH1 0xF DUP4 PUSH2 0x2921 JUMP JUMPDEST SWAP2 POP PUSH32 0x496E76616C6964207370656E6465720000000000000000000000000000000000 PUSH1 0x0 DUP4 ADD MSTORE PUSH1 0x20 DUP3 ADD SWAP1 POP SWAP2 SWAP1 POP JUMP JUMPDEST PUSH2 0x25D1 DUP2 PUSH2 0x2970 JUMP JUMPDEST DUP3 MSTORE POP POP JUMP JUMPDEST PUSH2 0x25E0 DUP2 PUSH2 0x2970 JUMP JUMPDEST DUP3 MSTORE POP POP JUMP JUMPDEST PUSH2 0x25EF DUP2 PUSH2 0x297A JUMP JUMPDEST DUP3 MSTORE POP POP JUMP JUMPDEST PUSH1 0x0 PUSH1 0x20 DUP3 ADD SWAP1 POP PUSH2 0x260A PUSH1 0x0 DUP4 ADD DUP5 PUSH2 0x21E6 JUMP JUMPDEST SWAP3 SWAP2 POP POP JUMP JUMPDEST PUSH1 0x0 PUSH1 0x40 DUP3 ADD SWAP1 POP DUP2 DUP2 SUB PUSH1 0x0 DUP4 ADD MSTORE PUSH2 0x262A DUP2 DUP6 PUSH2 0x2253 JUMP JUMPDEST SWAP1 POP DUP2 DUP2 SUB PUSH1 0x20 DUP4 ADD MSTORE PUSH2 0x263E DUP2 DUP5 PUSH2 0x2253 JUMP JUMPDEST SWAP1 POP SWAP4 SWAP3 POP POP POP JUMP JUMPDEST PUSH1 0x0 PUSH1 0x80 DUP3 ADD SWAP1 POP DUP2 DUP2 SUB PUSH1 0x0 DUP4 ADD MSTORE PUSH2 0x2661 DUP2 DUP8 PUSH2 0x2253 JUMP JUMPDEST SWAP1 POP DUP2 DUP2 SUB PUSH1 0x20 DUP4 ADD MSTORE PUSH2 0x2675 DUP2 DUP7 PUSH2 0x2253 JUMP JUMPDEST SWAP1 POP DUP2 DUP2 SUB PUSH1 0x40 DUP4 ADD MSTORE PUSH2 0x2689 DUP2 DUP6 PUSH2 0x2253 JUMP JUMPDEST SWAP1 POP DUP2 DUP2 SUB PUSH1 0x60 DUP4 ADD MSTORE PUSH2 0x269D DUP2 DUP5 PUSH2 0x21F5 JUMP JUMPDEST SWAP1 POP SWAP6 SWAP5 POP POP POP POP POP JUMP JUMPDEST PUSH1 0x0 PUSH1 0x20 DUP3 ADD SWAP1 POP PUSH2 0x26BD PUSH1 0x0 DUP4 ADD DUP5 PUSH2 0x22C0 JUMP JUMPDEST SWAP3 SWAP2 POP POP JUMP JUMPDEST PUSH1 0x0 PUSH1 0x20 DUP3 ADD SWAP1 POP DUP2 DUP2 SUB PUSH1 0x0 DUP4 ADD MSTORE PUSH2 0x26DD DUP2 DUP5 PUSH2 0x22CF JUMP JUMPDEST SWAP1 POP SWAP3 SWAP2 POP POP JUMP JUMPDEST PUSH1 0x0 PUSH1 0x20 DUP3 ADD SWAP1 POP DUP2 DUP2 SUB PUSH1 0x0 DUP4 ADD MSTORE PUSH2 0x26FE DUP2 PUSH2 0x2308 JUMP JUMPDEST SWAP1 POP SWAP2 SWAP1 POP JUMP JUMPDEST PUSH1 0x0 PUSH1 0x20 DUP3 ADD SWAP1 POP DUP2 DUP2 SUB PUSH1 0x0 DUP4 ADD MSTORE PUSH2 0x271E DUP2 PUSH2 0x2348 JUMP JUMPDEST SWAP1 POP SWAP2 SWAP1 POP JUMP JUMPDEST PUSH1 0x0 PUSH1 0x20 DUP3 ADD SWAP1 POP DUP2 DUP2 SUB PUSH1 0x0 DUP4 ADD MSTORE PUSH2 0x273E DUP2 PUSH2 0x2388 JUMP JUMPDEST SWAP1 POP SWAP2 SWAP1 POP JUMP JUMPDEST PUSH1 0x0 PUSH1 0x20 DUP3 ADD SWAP1 POP DUP2 DUP2 SUB PUSH1 0x0 DUP4 ADD MSTORE PUSH2 0x275E DUP2 PUSH2 0x23C8 JUMP JUMPDEST SWAP1 POP SWAP2 SWAP1 POP JUMP JUMPDEST PUSH1 0x0 PUSH1 0x20 DUP3 ADD SWAP1 POP DUP2 DUP2 SUB PUSH1 0x0 DUP4 ADD MSTORE PUSH2 0x277E DUP2 PUSH2 0x2408 JUMP JUMPDEST SWAP1 POP SWAP2 SWAP1 POP JUMP JUMPDEST PUSH1 0x0 PUSH1 0x20 DUP3 ADD SWAP1 POP DUP2 DUP2 SUB PUSH1 0x0 DUP4 ADD MSTORE PUSH2 0x279E DUP2 PUSH2 0x2448 JUMP JUMPDEST SWAP1 POP SWAP2 SWAP1 POP JUMP JUMPDEST PUSH1 0x0 PUSH1 0x20 DUP3 ADD SWAP1 POP DUP2 DUP2 SUB PUSH1 0x0 DUP4 ADD MSTORE PUSH2 0x27BE DUP2 PUSH2 0x2488 JUMP JUMPDEST SWAP1 POP SWAP2 SWAP1 POP JUMP JUMPDEST PUSH1 0x0 PUSH1 0x20 DUP3 ADD SWAP1 POP DUP2 DUP2 SUB PUSH1 0x0 DUP4 ADD MSTORE PUSH2 0x27DE DUP2 PUSH2 0x24C8 JUMP JUMPDEST SWAP1 POP SWAP2 SWAP1 POP JUMP JUMPDEST PUSH1 0x0 PUSH1 0x20 DUP3 ADD SWAP1 POP DUP2 DUP2 SUB PUSH1 0x0 DUP4 ADD MSTORE PUSH2 0x27FE DUP2 PUSH2 0x2508 JUMP JUMPDEST SWAP1 POP SWAP2 SWAP1 POP JUMP JUMPDEST PUSH1 0x0 PUSH1 0x20 DUP3 ADD SWAP1 POP DUP2 DUP2 SUB PUSH1 0x0 DUP4 ADD MSTORE PUSH2 0x281E DUP2 PUSH2 0x2548 JUMP JUMPDEST SWAP1 POP SWAP2 SWAP1 POP JUMP JUMPDEST PUSH1 0x0 PUSH1 0x20 DUP3 ADD SWAP1 POP DUP2 DUP2 SUB PUSH1 0x0 DUP4 ADD MSTORE PUSH2 0x283E DUP2 PUSH2 0x2588 JUMP JUMPDEST SWAP1 POP SWAP2 SWAP1 POP JUMP JUMPDEST PUSH1 0x0 PUSH1 0x20 DUP3 ADD SWAP1 POP PUSH2 0x285A PUSH1 0x0 DUP4 ADD DUP5 PUSH2 0x25D7 JUMP JUMPDEST SWAP3 SWAP2 POP POP JUMP JUMPDEST PUSH1 0x0 PUSH1 0x40 DUP3 ADD SWAP1 POP PUSH2 0x2875 PUSH1 0x0 DUP4 ADD DUP6 PUSH2 0x25D7 JUMP JUMPDEST PUSH2 0x2882 PUSH1 0x20 DUP4 ADD DUP5 PUSH2 0x25D7 JUMP JUMPDEST SWAP4 SWAP3 POP POP POP JUMP JUMPDEST PUSH1 0x0 PUSH1 0x20 DUP3 ADD SWAP1 POP PUSH2 0x289E PUSH1 0x0 DUP4 ADD DUP5 PUSH2 0x25E6 JUMP JUMPDEST SWAP3 SWAP2 POP POP JUMP JUMPDEST PUSH1 0x0 DUP2 SWAP1 POP PUSH1 0x20 DUP3 ADD SWAP1 POP SWAP2 SWAP1 POP JUMP JUMPDEST PUSH1 0x0 DUP2 SWAP1 POP PUSH1 0x20 DUP3 ADD SWAP1 POP SWAP2 SWAP1 POP JUMP JUMPDEST PUSH1 0x0 DUP2 MLOAD SWAP1 POP SWAP2 SWAP1 POP JUMP JUMPDEST PUSH1 0x0 DUP2 MLOAD SWAP1 POP SWAP2 SWAP1 POP JUMP JUMPDEST PUSH1 0x0 DUP2 MLOAD SWAP1 POP SWAP2 SWAP1 POP JUMP JUMPDEST PUSH1 0x0 PUSH1 0x20 DUP3 ADD SWAP1 POP SWAP2 SWAP1 POP JUMP JUMPDEST PUSH1 0x0 PUSH1 0x20 DUP3 ADD SWAP1 POP SWAP2 SWAP1 POP JUMP JUMPDEST PUSH1 0x0 DUP3 DUP3 MSTORE PUSH1 0x20 DUP3 ADD SWAP1 POP SWAP3 SWAP2 POP POP JUMP JUMPDEST PUSH1 0x0 DUP3 DUP3 MSTORE PUSH1 0x20 DUP3 ADD SWAP1 POP SWAP3 SWAP2 POP POP JUMP JUMPDEST PUSH1 0x0 DUP3 DUP3 MSTORE PUSH1 0x20 DUP3 ADD SWAP1 POP SWAP3 SWAP2 POP POP JUMP JUMPDEST PUSH1 0x0 PUSH2 0x293D DUP3 PUSH2 0x2950 JUMP JUMPDEST SWAP1 POP SWAP2 SWAP1 POP JUMP JUMPDEST PUSH1 0x0 DUP2 ISZERO ISZERO SWAP1 POP SWAP2 SWAP1 POP JUMP JUMPDEST PUSH1 0x0 PUSH20 0xFFFFFFFFFFFFFFFFFFFFFFFFFFFFFFFFFFFFFFFF DUP3 AND SWAP1 POP SWAP2 SWAP1 POP JUMP JUMPDEST PUSH1 0x0 DUP2 SWAP1 POP SWAP2 SWAP1 POP JUMP JUMPDEST PUSH1 0x0 PUSH1 0xFF DUP3 AND SWAP1 POP SWAP2 SWAP1 POP JUMP JUMPDEST PUSH1 0x0 JUMPDEST DUP4 DUP2 LT ISZERO PUSH2 0x29A5 JUMPI DUP1 DUP3 ADD MLOAD DUP2 DUP5 ADD MSTORE PUSH1 0x20 DUP2 ADD SWAP1 POP PUSH2 0x298A JUMP JUMPDEST DUP4 DUP2 GT ISZERO PUSH2 0x29B4 JUMPI PUSH1 0x0 DUP5 DUP5 ADD MSTORE JUMPDEST POP POP POP POP JUMP JUMPDEST PUSH1 0x0 PUSH1 0x1F NOT PUSH1 0x1F DUP4 ADD AND SWAP1 POP SWAP2 SWAP1 POP JUMP JUMPDEST PUSH2 0x29D4 DUP2 PUSH2 0x2932 JUMP JUMPDEST DUP2 EQ PUSH2 0x29DF JUMPI PUSH1 0x0 DUP1 REVERT JUMPDEST POP JUMP JUMPDEST PUSH2 0x29EB DUP2 PUSH2 0x2970 JUMP JUMPDEST DUP2 EQ PUSH2 0x29F6 JUMPI PUSH1 0x0 DUP1 REVERT JUMPDEST POP JUMP INVALID LOG3 PUSH6 0x627A7A723058 KECCAK256 0x2f 0xd5 0xba SWAP11 SWAP9 OR LOG3 SWAP16 PUSH18 0x3B44847389F55224AF1EB15EE59DEEE07BE6 0xa9 0xd4 SLOAD PUSH4 0x196C6578 PUSH17 0x6572696D656E74616CF564736F6C634300 SDIV EXP STOP BLOCKHASH PUSH10 0x7066733A2F2F6261666B PUSH19 0x65696576686C686461776A6E627672766D6F33 PUSH11 0x736271736E35376E756F69 PUSH16 0x33617378346179766D7A6669786E7578 PUSH23 0x786C7A6B65000000000000000000000000000000000000 "
				},
				"gasEstimates": {
					"creation": {
						"codeDepositCost": "2162400",
						"executionCost": "infinite",
						"totalCost": "infinite"
					},
					"external": {
						"allowance(address,address)": "infinite",
						"approve(address,uint256)": "infinite",
						"balanceOf(address)": "infinite",
						"burnExpired(address)": "infinite",
						"decimals()": "594",
						"flashMint(address,uint256,uint256)": "infinite",
						"getActiveTokenLots(address)": "infinite",
						"getAllTokenLots(address)": "infinite",
						"getExpiredTokenLots(address)": "infinite",
						"getSpendableBalance(address)": "infinite",
						"holdings(address,uint256)": "infinite",
						"logoURI()": "infinite",
						"name()": "infinite",
						"owner()": "637",
						"symbol()": "infinite",
						"totalSupply()": "597",
						"transfer(address,uint256)": "infinite",
						"transferFrom(address,address,uint256)": "infinite",
						"updateTokenLotExpiryInMinutes(address,uint256,uint256)": "infinite"
					},
					"internal": {
						"_cleanExpired(address)": "infinite"
					}
				},
				"methodIdentifiers": {
					"allowance(address,address)": "dd62ed3e",
					"approve(address,uint256)": "095ea7b3",
					"balanceOf(address)": "70a08231",
					"burnExpired(address)": "b0f9dfbf",
					"decimals()": "313ce567",
					"flashMint(address,uint256,uint256)": "b5b3e35a",
					"getActiveTokenLots(address)": "cd437bda",
					"getAllTokenLots(address)": "a8e8486e",
					"getExpiredTokenLots(address)": "b40792b9",
					"getSpendableBalance(address)": "3345906f",
					"holdings(address,uint256)": "91b46a91",
					"logoURI()": "6bb38b28",
					"name()": "06fdde03",
					"owner()": "8da5cb5b",
					"symbol()": "95d89b41",
					"totalSupply()": "18160ddd",
					"transfer(address,uint256)": "a9059cbb",
					"transferFrom(address,address,uint256)": "23b872dd",
					"updateTokenLotExpiryInMinutes(address,uint256,uint256)": "7a825b10"
				}
			},
			"userdoc": {
				"methods": {
					"balanceOf(address)": {
						"notice": "Returns the total balance of all non-expired token lots owned by the account"
					},
					"flashMint(address,uint256,uint256)": {
						"notice": "Flash mints tokens with a fixed expiry"
					},
					"getActiveTokenLots(address)": {
						"notice": "Returns all active (non-expired and non-zero) token lots owned by the user"
					},
					"transfer(address,uint256)": {
						"notice": "Transfers tokens to another address"
					},
					"transferFrom(address,address,uint256)": {
						"notice": "Transfers tokens from one address to another"
					}
				},
				"notice": "This is an educational demonstration token that mimics USDT behavior.         It is not affiliated with Tether or the official USDT stablecoin in any way.         Intended solely for users to learn how USDT-like tokens work and interact.         Anyone may request a free demonstration token to experiment with wallet transfers         and token behavior on the TRON network. These tokens have no monetary value."
			}
		}
	}
}